{
  "_format": "hh-sol-artifact-1",
  "contractName": "SingleStake",
  "sourceName": "SingleStake.sol",
  "abi": [
    {
      "inputs": [
        {
          "internalType": "bytes32",
          "name": "gameID",
          "type": "bytes32"
        },
        {
          "internalType": "address",
          "name": "usdc",
          "type": "address"
        },
        {
          "internalType": "address",
          "name": "nfticket",
          "type": "address"
        },
        {
          "internalType": "address",
          "name": "treasury",
          "type": "address"
        },
        {
          "internalType": "uint256",
          "name": "noOfOptions",
          "type": "uint256"
        }
      ],
      "stateMutability": "nonpayable",
      "type": "constructor"
    },
    {
      "anonymous": false,
      "inputs": [
        {
          "indexed": false,
          "internalType": "uint256",
          "name": "newFee",
          "type": "uint256"
        }
      ],
      "name": "DepositFeeChanged",
      "type": "event"
    },
    {
      "anonymous": false,
      "inputs": [
        {
          "indexed": true,
          "internalType": "address",
          "name": "manager",
          "type": "address"
        }
      ],
      "name": "ManagerAdded",
      "type": "event"
    },
    {
      "anonymous": false,
      "inputs": [
        {
          "indexed": true,
          "internalType": "address",
          "name": "manager",
          "type": "address"
        }
      ],
      "name": "ManagerRemoved",
      "type": "event"
    },
    {
      "anonymous": false,
      "inputs": [
        {
          "indexed": true,
          "internalType": "bytes32",
          "name": "_name",
          "type": "bytes32"
        },
        {
          "indexed": true,
          "internalType": "uint256",
          "name": "winningIndex",
          "type": "uint256"
        },
        {
          "indexed": true,
          "internalType": "address",
          "name": "winingERC20",
          "type": "address"
        }
      ],
      "name": "StakeResolved",
      "type": "event"
    },
    {
      "anonymous": false,
      "inputs": [
        {
          "indexed": true,
          "internalType": "address",
          "name": "treasuryAddress",
          "type": "address"
        }
      ],
      "name": "StakeTreasuryCreated",
      "type": "event"
    },
    {
      "anonymous": false,
      "inputs": [
        {
          "indexed": true,
          "internalType": "address",
          "name": "tokenIn",
          "type": "address"
        },
        {
          "indexed": true,
          "internalType": "address",
          "name": "tokenOut",
          "type": "address"
        },
        {
          "indexed": true,
          "internalType": "uint256",
          "name": "amountIn",
          "type": "uint256"
        },
        {
          "indexed": false,
          "internalType": "uint256",
          "name": "amountOutMin",
          "type": "uint256"
        }
      ],
      "name": "SwapExactTokens",
      "type": "event"
    },
    {
      "anonymous": false,
      "inputs": [
        {
          "indexed": false,
          "internalType": "uint256",
          "name": "amountOut",
          "type": "uint256"
        }
      ],
      "name": "SwapExactTokensSuccess",
      "type": "event"
    },
    {
      "anonymous": false,
      "inputs": [
        {
          "indexed": true,
          "internalType": "address",
          "name": "recipient",
          "type": "address"
        },
        {
          "indexed": true,
          "internalType": "uint256",
          "name": "ticketID",
          "type": "uint256"
        },
        {
          "indexed": true,
          "internalType": "uint256",
          "name": "serviceDescriptor",
          "type": "uint256"
        }
      ],
      "name": "TicketIssued",
      "type": "event"
    },
    {
      "anonymous": false,
      "inputs": [
        {
          "indexed": true,
          "internalType": "address",
          "name": "token",
          "type": "address"
        }
      ],
      "name": "TokenAllowed",
      "type": "event"
    },
    {
      "anonymous": false,
      "inputs": [
        {
          "indexed": true,
          "internalType": "address",
          "name": "token",
          "type": "address"
        }
      ],
      "name": "TokenDisallowed",
      "type": "event"
    },
    {
      "anonymous": false,
      "inputs": [
        {
          "indexed": true,
          "internalType": "bytes32",
          "name": "_name",
          "type": "bytes32"
        },
        {
          "indexed": false,
          "internalType": "uint256",
          "name": "option",
          "type": "uint256"
        },
        {
          "indexed": true,
          "internalType": "address",
          "name": "lpToken",
          "type": "address"
        },
        {
          "indexed": true,
          "internalType": "uint256",
          "name": "totalLP",
          "type": "uint256"
        }
      ],
      "name": "TokensWagered",
      "type": "event"
    },
    {
      "anonymous": false,
      "inputs": [
        {
          "indexed": false,
          "internalType": "uint256",
          "name": "newFee",
          "type": "uint256"
        }
      ],
      "name": "WithdrawFeeChanged",
      "type": "event"
    },
    {
      "anonymous": false,
      "inputs": [
        {
          "indexed": true,
          "internalType": "address",
          "name": "user",
          "type": "address"
        },
        {
          "indexed": true,
          "internalType": "address",
          "name": "token",
          "type": "address"
        },
        {
          "indexed": true,
          "internalType": "uint256",
          "name": "amount",
          "type": "uint256"
        }
      ],
      "name": "WithdrawalApproved",
      "type": "event"
    },
    {
      "anonymous": false,
      "inputs": [
        {
          "indexed": true,
          "internalType": "address",
          "name": "user",
          "type": "address"
        },
        {
          "indexed": true,
          "internalType": "address",
          "name": "token",
          "type": "address"
        },
        {
          "indexed": true,
          "internalType": "uint256",
          "name": "amount",
          "type": "uint256"
        }
      ],
      "name": "WithdrawalRejected",
      "type": "event"
    },
    {
      "anonymous": false,
      "inputs": [
        {
          "indexed": true,
          "internalType": "address",
          "name": "user",
          "type": "address"
        },
        {
          "indexed": true,
          "internalType": "address",
          "name": "token",
          "type": "address"
        },
        {
          "indexed": true,
          "internalType": "uint256",
          "name": "amount",
          "type": "uint256"
        }
      ],
      "name": "WithdrawalRequested",
      "type": "event"
    },
    {
      "anonymous": false,
      "inputs": [
        {
          "indexed": true,
          "internalType": "address",
          "name": "user",
          "type": "address"
        },
        {
          "indexed": true,
          "internalType": "address",
          "name": "token",
          "type": "address"
        },
        {
          "indexed": true,
          "internalType": "uint256",
          "name": "amount",
          "type": "uint256"
        }
      ],
      "name": "Withdrawn",
      "type": "event"
    },
    {
      "inputs": [
        {
          "internalType": "address",
          "name": "sendTo",
          "type": "address"
        }
      ],
      "name": "cashOut",
      "outputs": [],
      "stateMutability": "nonpayable",
      "type": "function"
    },
    {
      "inputs": [],
      "name": "companyDescriptor",
      "outputs": [
        {
          "internalType": "uint256",
          "name": "",
          "type": "uint256"
        }
      ],
      "stateMutability": "view",
      "type": "function"
    },
    {
      "inputs": [
        {
          "internalType": "uint256",
          "name": "option",
          "type": "uint256"
        },
        {
          "internalType": "address",
          "name": "erc20Contract",
          "type": "address"
        },
        {
          "internalType": "uint256",
          "name": "stakedAmount",
          "type": "uint256"
        }
      ],
      "name": "create_stake",
      "outputs": [],
      "stateMutability": "nonpayable",
      "type": "function"
    },
    {
      "inputs": [
        {
          "internalType": "address",
          "name": "_wallet",
          "type": "address"
        },
        {
          "internalType": "address",
          "name": "erc20Contract",
          "type": "address"
        }
      ],
      "name": "deposits",
      "outputs": [
        {
          "internalType": "uint256",
          "name": "",
          "type": "uint256"
        }
      ],
      "stateMutability": "view",
      "type": "function"
    },
    {
      "inputs": [],
      "name": "getUniswapRouter",
      "outputs": [
        {
          "internalType": "address",
          "name": "",
          "type": "address"
        }
      ],
      "stateMutability": "view",
      "type": "function"
    },
    {
      "inputs": [],
      "name": "owner",
      "outputs": [
        {
          "internalType": "address",
          "name": "",
          "type": "address"
        }
      ],
      "stateMutability": "view",
      "type": "function"
    },
    {
      "inputs": [
        {
          "internalType": "address",
          "name": "_token",
          "type": "address"
        },
        {
          "internalType": "uint256",
          "name": "_amount",
          "type": "uint256"
        }
      ],
      "name": "requestWithdraw",
      "outputs": [],
      "stateMutability": "nonpayable",
      "type": "function"
    },
    {
      "inputs": [],
      "name": "serviceDescriptor",
      "outputs": [
        {
          "internalType": "uint256",
          "name": "",
          "type": "uint256"
        }
      ],
      "stateMutability": "view",
      "type": "function"
    },
    {
      "inputs": [
        {
          "internalType": "uint256",
          "name": "_fee",
          "type": "uint256"
        }
      ],
      "name": "setDepositFee",
      "outputs": [],
      "stateMutability": "nonpayable",
      "type": "function"
    },
    {
      "inputs": [
        {
          "internalType": "address",
          "name": "_manager",
          "type": "address"
        },
        {
          "internalType": "bool",
          "name": "_status",
          "type": "bool"
        }
      ],
      "name": "setManager",
      "outputs": [],
      "stateMutability": "nonpayable",
      "type": "function"
    },
    {
      "inputs": [
        {
          "internalType": "address",
          "name": "_usdc",
          "type": "address"
        }
      ],
      "name": "setUSDCAddress",
      "outputs": [],
      "stateMutability": "nonpayable",
      "type": "function"
    },
    {
      "inputs": [
        {
          "internalType": "uint256",
          "name": "winningIndex",
          "type": "uint256"
        }
      ],
      "name": "setWinner",
      "outputs": [],
      "stateMutability": "nonpayable",
      "type": "function"
    },
    {
      "inputs": [
        {
          "internalType": "uint256",
          "name": "_fee",
          "type": "uint256"
        }
      ],
      "name": "setWithdrawFee",
      "outputs": [],
      "stateMutability": "nonpayable",
      "type": "function"
    },
    {
      "inputs": [],
      "name": "winningERC20",
      "outputs": [
        {
          "internalType": "address",
          "name": "",
          "type": "address"
        }
      ],
      "stateMutability": "view",
      "type": "function"
    }
  ],
  "bytecode": "0x60806040523480156200001157600080fd5b5060405162003c0a38038062003c0a83398101604081905262000034916200043b565b600160008181558154336001600160a01b0319918216179092556006805483166001600160a01b038781169190911790915560078054841686831617905560058054909316908716179091556008819055600955610803601e819055620000a090600160fb1b620004d5565b601f55601c8590556000600c8190556005600d55600e819055600f8190555b81811015620001cb576000620000d582620001d7565b604051602001620000e7919062000536565b60405160208183030381529060405290506000816040516200010990620003e8565b6200011591906200058c565b604051809103906000f08015801562000132573d6000803e3d6000fd5b50601b80546001810182556000919091527f3ad8aa4f87544323a9d1e5dd902f40c356527a7955687113db5f9a85ad579dc10180546001600160a01b0319166001600160a01b03831617905560408051808201909152600e81526d574147525b25735d20697320257360901b6020820152909150620001b390848362000270565b50508080620001c2906200059f565b915050620000bf565b50505050505062000620565b60606000620001e683620002c4565b60010190506000816001600160401b03811115620002085762000208620005bc565b6040519080825280601f01601f19166020018201604052801562000233576020820181803683370190505b5090508181016020015b600019016f181899199a1a9b1b9c1cb0b131b232b360811b600a86061a8153600a85049450846200023d57509392505050565b620002bf8383836040516024016200028b93929190620005e5565b60408051601f198184030181529190526020810180516001600160e01b0390811663038fd88960e31b17909152620003ae16565b505050565b6000807a184f03e93ff9f4daa797ed6e38ed64bf6a1f01000000000000000083106200030e577a184f03e93ff9f4daa797ed6e38ed64bf6a1f010000000000000000830492506040015b6d04ee2d6d415b85acef810000000083106200033b576d04ee2d6d415b85acef8100000000830492506020015b662386f26fc1000083106200035a57662386f26fc10000830492506010015b6305f5e100831062000373576305f5e100830492506008015b61271083106200038857612710830492506004015b606483106200039b576064830492506002015b600a8310620003a8576001015b92915050565b620003c481620003c760201b62000e871760201c565b50565b60006a636f6e736f6c652e6c6f679050600080835160208501845afa505050565b6111d48062002a3683390190565b805b8114620003c457600080fd5b8051620003a881620003f6565b60006001600160a01b038216620003a8565b620003f88162000411565b8051620003a88162000423565b600080600080600060a08688031215620004585762000458600080fd5b600062000466888862000404565b955050602062000479888289016200042e565b94505060406200048c888289016200042e565b93505060606200049f888289016200042e565b9250506080620004b28882890162000404565b9150509295509295909350565b634e487b7160e01b600052601160045260246000fd5b80820180821115620003a857620003a8620004bf565b60005b8381101562000508578181015183820152602001620004ee565b50506000910152565b60006200051c825190565b6200052c818560208601620004eb565b9290920192915050565b622ba3a960e91b8152600301600062000550828462000511565b9392505050565b600062000562825190565b8084526020840193506200057b818560208601620004eb565b601f01601f19169290920192915050565b6020808252810162000550818462000557565b60006000198203620005b557620005b5620004bf565b5060010190565b634e487b7160e01b600052604160045260246000fd5b805b82525050565b620005d48162000411565b60608082528101620005f8818662000557565b9050620006096020830185620005d2565b620006186040830184620005da565b949350505050565b61240680620006306000396000f3fe608060405234801561001057600080fd5b50600436106100ea5760003560e01c80638f601f661161008c578063b6ac642a11610066578063b6ac642a146101c2578063d8a71364146101d5578063eb3ab433146101e8578063f84bb849146101f157600080fd5b80638f601f6614610189578063a5e90eee1461019c578063aaf5bfc3146101af57600080fd5b8063490ae210116100c8578063490ae21014610136578063524900b51461014957806375121321146101635780638da5cb5b1461017657600080fd5b80630df71602146100ef578063189c92b914610104578063397a1b2814610123575b600080fd5b6101026100fd3660046116a9565b610204565b005b61010d601f5481565b60405161011a91906116d2565b60405180910390f35b610102610131366004611705565b610390565b6101026101443660046116a9565b6104ef565b6003546001600160a01b03165b60405161011a919061174b565b610102610171366004611759565b610599565b600154610156906001600160a01b031681565b61010d6101973660046117a9565b61099b565b6101026101aa3660046117ef565b6109c8565b6101026101bd366004611822565b610b0b565b6101026101d03660046116a9565b610b76565b6101026101e3366004611822565b610c15565b61010d601e5481565b602054610156906001600160a01b031681565b6001546001600160a01b031633148061023157503360009081526012602052604090205460ff1615156001145b6102565760405162461bcd60e51b815260040161024d90611871565b60405180910390fd5b601d54156102765760405162461bcd60e51b815260040161024d906118b5565b601b5461028390826118db565b905060006001600160a01b0316601b82815481106102a3576102a36118ef565b6000918252602090912001546001600160a01b0316036102d55760405162461bcd60e51b815260040161024d90611939565b601b81815481106102e8576102e86118ef565b6000918252602091829020015481546001600160a01b0319166001600160a01b0390911617905561031a81606461195f565b601d8190555061034f6040518060600160405280602281526020016123af6022913960205483906001600160a01b0316610ea8565b602054601c546040516001600160a01b03909216918391907f834b47baa23e5c7950911d6acd70b127b15d807ee548e2db70d8415efbdf29f390600090a450565b60055482906001600160a01b038083169116146103bf5760405162461bcd60e51b815260040161024d9061199a565b336000908152600b602090815260408083206001600160a01b03871684529091529020548211156104025760405162461bcd60e51b815260040161024d906119d5565b336000908152600b602090815260408083206001600160a01b0387168452909152812080548492906104359084906119e5565b9091555050604080516060810182528381524260208083019182526000838501818152338252600a83528582206001600160a01b038a16835290925293909320825181559051600180830191909155925160028083018054949593949293909260ff19169184908111156104ab576104ab6119f8565b0217905550506040518391506001600160a01b0385169033907f04c56a409d50971e45c5a2d96e5d557d2b0f1d66d40f14b141e4c958b0f39b3290600090a4505050565b6001546001600160a01b031633148061051c57503360009081526012602052604090205460ff1615156001145b6105385760405162461bcd60e51b815260040161024d90611871565b60648111156105595760405162461bcd60e51b815260040161024d90611a34565b600c8190556040517f2a6f1084651542f3142c70f4c43c096d016a8b517c063660b146268f646ea43a9061058e9083906116d2565b60405180910390a150565b6105bd60405180606001604052806000815260200160008152602001600081525090565b601d54156105dd5760405162461bcd60e51b815260040161024d906118b5565b601b546105ea90856118db565b604051635eee785d60e11b815290945073__$744e6baa1f687d86a909216607c3c50c82$__9063bddcf0ba90610627906002908790600401611a44565b602060405180830381865af4158015610644573d6000803e3d6000fd5b505050506040513d601f19601f820116820180604052508101906106689190611a64565b6106845760405162461bcd60e51b815260040161024d90611ab9565b6040516323b872dd60e01b81526001600160a01b038416906323b872dd906106b490339030908790600401611ac9565b6020604051808303816000875af11580156106d3573d6000803e3d6000fd5b505050506040513d601f19601f820116820180604052508101906106f79190611a64565b6107135760405162461bcd60e51b815260040161024d90611b17565b61071f60028484610ef4565b600754601c548251604051632fe3df7360e01b81529394506001600160a01b0390921692632fe3df739261075b92339290918991600401611b27565b6020604051808303816000875af115801561077a573d6000803e3d6000fd5b505050506040513d601f19601f8201168201806040525081019061079e9190611b67565b5080516107af906002908590611041565b60006107e8601b86815481106107c7576107c76118ef565b6000918252602090912001546005546001600160a01b03918216911661117c565b905060006107f782600a611c96565b83602001516108069190611cab565b90506108566040518060600160405280602681526020016123596026913982601b8981548110610838576108386118ef565b6000918252602090912001546001600160a01b031660ff8616611294565b601b8681548110610869576108696118ef565b6000918252602090912001546040516340c10f1960e01b81526001600160a01b03909116906340c10f19906108a49033908590600401611cca565b600060405180830381600087803b1580156108be57600080fd5b505af11580156108d2573d6000803e3d6000fd5b5050505061092860405180606001604052806030815260200161237f6030913987601b8981548110610906576109066118ef565b60009182526020918290200154908701516001600160a01b0390911690611294565b8260200151601b8781548110610940576109406118ef565b600091825260209091200154601c546040516001600160a01b03909216917fcfd574d494b356a2fcc316cd46853105cc64f840435a22422853ef7ee19295229061098b908b906116d2565b60405180910390a4505050505050565b6001600160a01b038083166000908152600b60209081526040808320938516835292905220545b92915050565b6001546001600160a01b031633146109f25760405162461bcd60e51b815260040161024d90611d05565b8015610a36576001600160a01b03821660009081526012602052604090205460ff1615610a315760405162461bcd60e51b815260040161024d90611d49565b610a6e565b6001600160a01b03821660009081526012602052604090205460ff16610a6e5760405162461bcd60e51b815260040161024d90611d8d565b6001600160a01b0382166000908152601260205260409020805460ff19168215801591909117909155610ad3576040516001600160a01b038316907f3b4a40cccf2058c593542587329dd385be4f0b588db5471fbd9598e56dd7093a90600090a25050565b6040516001600160a01b038316907fef69f7d97228658c92417be1b16b19058315de71fecb435d07b7d23728b6bd3190600090a25050565b6001546001600160a01b0316331480610b3857503360009081526012602052604090205460ff1615156001145b610b545760405162461bcd60e51b815260040161024d90611871565b600580546001600160a01b0319166001600160a01b0392909216919091179055565b6001546001600160a01b0316331480610ba357503360009081526012602052604090205460ff1615156001145b610bbf5760405162461bcd60e51b815260040161024d90611871565b6064811115610be05760405162461bcd60e51b815260040161024d90611a34565b600d8190556040517fef51b055f1ac1490e0c230364c65b0a9eca534656954023b56053b78461678e49061058e9083906116d2565b601d54600003610c375760405162461bcd60e51b815260040161024d90611dd1565b600754602054601c54604051631c5543eb60e31b815260009384936001600160a01b039182169363e2aa1f5893610c75933393169190600401611ac9565b6040805180830381865afa158015610c91573d6000803e3d6000fd5b505050506040513d601f19601f82011682018060405250810190610cb59190611de1565b9150915060008111610cd95760405162461bcd60e51b815260040161024d90611e3b565b602054600554600091610cf8916001600160a01b03918216911661117c565b90506000610d0782600a611c96565b610d119084611cab565b60205460405163095ea7b360e01b81529192506001600160a01b03169063095ea7b390610d449030908890600401611cca565b6020604051808303816000875af1158015610d63573d6000803e3d6000fd5b505050506040513d601f19601f82011682018060405250810190610d879190611a64565b50602054604051632770a7eb60e21b81526001600160a01b0390911690639dc29fac90610dba9033908890600401611cca565b600060405180830381600087803b158015610dd457600080fd5b505af1158015610de8573d6000803e3d6000fd5b5050600554610e0492508791506001600160a01b0316856112dd565b600754601c5460405163377f548960e01b81526001600160a01b039092169163377f548991610e3891339190600401611cca565b6000604051808303816000875af1158015610e57573d6000803e3d6000fd5b505050506040513d6000823e601f3d908101601f19168201604052610e7f9190810190611f52565b505050505050565b60006a636f6e736f6c652e6c6f679050600080835160208501845afa505050565b610eef838383604051602401610ec093929190611fe3565b60408051601f198184030181529190526020810180516001600160e01b031663038fd88960e31b17905261147a565b505050565b610f1860405180606001604052806000815260200160008152602001600081525090565b60038401546001600160a01b03848116911614610f475760405162461bcd60e51b815260040161024d9061199a565b610f56848386600a0154611486565b60408201819052610f6790836119e5565b808252610f7790859085906114a6565b60208201819052600685018054600090610f9290849061195f565b90915550506040808201516001600160a01b038516600090815260138701602052918220805491929091610fc790849061195f565b9091555050805133600090815260098601602090815260408083206001600160a01b03881684529091528120805490919061100390849061195f565b909155505080516001600160a01b0384166000908152600e860160205260408120805490919061103490849061195f565b90915550505b9392505050565b60038301546001600160a01b038381169116146110705760405162461bcd60e51b815260040161024d9061203a565b6040516370a0823160e01b815281906001600160a01b038416906370a082319061109e90309060040161174b565b602060405180830381865afa1580156110bb573d6000803e3d6000fd5b505050506040513d601f19601f820116820180604052508101906110df9190611b67565b10156110fd5760405162461bcd60e51b815260040161024d90612092565b600583015460405163a9059cbb60e01b81526001600160a01b038481169263a9059cbb9261113392909116908590600401611cca565b6020604051808303816000875af1158015611152573d6000803e3d6000fd5b505050506040513d601f19601f820116820180604052508101906111769190611a64565b50505050565b600080836001600160a01b031663313ce5676040518163ffffffff1660e01b8152600401602060405180830381865afa1580156111bd573d6000803e3d6000fd5b505050506040513d601f19601f820116820180604052508101906111e191906120b6565b90506000836001600160a01b031663313ce5676040518163ffffffff1660e01b8152600401602060405180830381865afa158015611223573d6000803e3d6000fd5b505050506040513d601f19601f8201168201806040525081019061124791906120b6565b9050600092508060ff168260ff161461128c578060ff168260ff161161127f5760405162461bcd60e51b815260040161024d90612124565b6112898183612134565b92505b505092915050565b611176848484846040516024016112ae9493929190612151565b60408051601f198184030181529190526020810180516001600160e01b03166327827ee360e11b17905261147a565b6112e56114fc565b60055482906001600160a01b038083169116146113145760405162461bcd60e51b815260040161024d9061199a565b600754601c54604051637e13d27d60e11b815284926001600160a01b03169163fc27a4fa9161134891908890600401612171565b602060405180830381865afa158015611365573d6000803e3d6000fd5b505050506040513d601f19601f820116820180604052508101906113899190611b67565b10156113a75760405162461bcd60e51b815260040161024d906121bf565b600d546000906113bb906002908590611486565b905060006113c982856119e5565b600754601c546040516378ce040160e01b81529293506001600160a01b03909116916378ce04019161140391899086908c906004016121cf565b600060405180830381600087803b15801561141d57600080fd5b505af1158015611431573d6000803e3d6000fd5b50506040518392506001600160a01b038816915033907fd1c19fbcd4551a5edfb66d43d2e337c04837afda3482b42bdf569a8fccdae5fb90600090a4505050610eef6001600055565b61148381610e87565b50565b600060646114948385611cab565b61149e9190612204565b949350505050565b60038301546000906001600160a01b03908116908416036114c857508061103a565b60006114d48585611525565b60208101518151919250906114e99085611cab565b6114f39190612204565b95945050505050565b60026000540361151e5760405162461bcd60e51b815260040161024d9061224c565b6002600055565b61152d611673565b6002830154600384015460405163e6a4390560e01b81526001600160a01b0392831692600092849263e6a439059261156b921690889060040161225c565b602060405180830381865afa158015611588573d6000803e3d6000fd5b505050506040513d601f19601f820116820180604052508101906115ac9190612275565b90506001600160a01b0381166115d45760405162461bcd60e51b815260040161024d906122bb565b6000819050600080826001600160a01b0316630902f1ac6040518163ffffffff1660e01b8152600401606060405180830381865afa15801561161a573d6000803e3d6000fd5b505050506040513d601f19601f8201168201806040525081019061163e91906122fc565b50604080518082019091526001600160701b0392831681529116602082015298975050505050505050565b611671612342565b565b60405180604001604052806002906020820280368337509192915050565b805b811461148357600080fd5b80356109c281611691565b6000602082840312156116be576116be600080fd5b600061149e848461169e565b805b82525050565b602081016109c282846116ca565b60006001600160a01b0382166109c2565b611693816116e0565b80356109c2816116f1565b6000806040838503121561171b5761171b600080fd5b600061172785856116fa565b92505060206117388582860161169e565b9150509250929050565b6116cc816116e0565b602081016109c28284611742565b60008060006060848603121561177157611771600080fd5b600061177d868661169e565b935050602061178e868287016116fa565b925050604061179f8682870161169e565b9150509250925092565b600080604083850312156117bf576117bf600080fd5b60006117cb85856116fa565b9250506020611738858286016116fa565b801515611693565b80356109c2816117dc565b6000806040838503121561180557611805600080fd5b600061181185856116fa565b9250506020611738858286016117e4565b60006020828403121561183757611837600080fd5b600061149e84846116fa565b60148152600060208201732737ba1037bbb732b91037b91036b0b730b3b2b960611b815291505b5060200190565b602080825281016109c281611843565b601981526000602082017f77696e6e657220616c72656164792064657465726d696e6564000000000000008152915061186a565b602080825281016109c281611881565b634e487b7160e01b600052601260045260246000fd5b6000826118ea576118ea6118c5565b500690565b634e487b7160e01b600052603260045260246000fd5b601981526000602082017f6e6f74206120746f6b656e2d6261636b6564206f7074696f6e000000000000008152915061186a565b602080825281016109c281611905565b634e487b7160e01b600052601160045260246000fd5b808201808211156109c2576109c2611949565b6011815260006020820170151bdad95b881b9bdd08185b1b1bddd959607a1b8152915061186a565b602080825281016109c281611972565b6014815260006020820173496e73756666696369656e742062616c616e636560601b8152915061186a565b602080825281016109c2816119aa565b818103818111156109c2576109c2611949565b634e487b7160e01b600052602160045260246000fd5b600f81526000602082016e08ccaca40d2e640e8dede40d0d2ced608b1b8152915061186a565b602080825281016109c281611a0e565b828152604081015b61103a6020830184611742565b80516109c2816117dc565b600060208284031215611a7957611a79600080fd5b600061149e8484611a59565b601f81526000602082017f7468697320746f6b656e206973206e6f742061636365707465642068657265008152915061186a565b602080825281016109c281611a85565b60608101611ad78286611742565b611ae46020830185611742565b61149e60408301846116ca565b600f81526000602082016e151c985b9cd9995c8819985a5b1959608a1b8152915061186a565b602080825281016109c281611af1565b60808101611b358287611742565b611b4260208301866116ca565b611b4f6040830185611742565b6114f360608301846116ca565b80516109c281611691565b600060208284031215611b7c57611b7c600080fd5b600061149e8484611b5c565b80825b6001851115611bc757808604811115611ba657611ba6611949565b6001851615611bb457908102905b8002611bc08560011c90565b9450611b8b565b94509492505050565b600082611bdf5750600161103a565b81611bec5750600061103a565b8160018114611c025760028114611c0c57611c39565b600191505061103a565b60ff841115611c1d57611c1d611949565b8360020a915084821115611c3357611c33611949565b5061103a565b5060208310610133831016604e8410600b8410161715611c6c575081810a83811115611c6757611c67611949565b61103a565b611c798484846001611b88565b92509050818404811115611c8f57611c8f611949565b0292915050565b600060ff8316925061103a6000198484611bd0565b818102808215838204851417611cc357611cc3611949565b5092915050565b60408101611cd88285611742565b61103a60208301846116ca565b600981526000602082016837b7363ca7bbb732b960b91b8152915061186a565b602080825281016109c281611ce5565b601c81526000602082017f4164647265737320697320616c72656164792061206d616e61676572000000008152915061186a565b602080825281016109c281611d15565b601881526000602082017f41646472657373206973206e6f742061206d616e6167657200000000000000008152915061186a565b602080825281016109c281611d59565b601981526000602082017f77696e6e6572206e6f74207965742064657465726d696e6564000000000000008152915061186a565b602080825281016109c281611d9d565b60008060408385031215611df757611df7600080fd5b6000611e038585611b5c565b925050602061173885828601611b5c565b601081526000602082016f7061796f757420756e646572666c6f7760801b8152915061186a565b602080825281016109c281611e14565b634e487b7160e01b600052604160045260246000fd5b601f19601f830116810181811067ffffffffffffffff82111715611e8757611e87611e4b565b6040525050565b6000611e9960405190565b9050611ea58282611e61565b919050565b600067ffffffffffffffff821115611ec457611ec4611e4b565b5060209081020190565b6000611ee1611edc84611eaa565b611e8e565b83815290506020808201908402830185811115611f0057611f00600080fd5b835b81811015611f245780611f158882611b5c565b84525060209283019201611f02565b5050509392505050565b600082601f830112611f4257611f42600080fd5b815161149e848260208601611ece565b600060208284031215611f6757611f67600080fd5b815167ffffffffffffffff811115611f8157611f81600080fd5b61149e84828501611f2e565b60005b83811015611fa8578181015183820152602001611f90565b50506000910152565b6000611fbb825190565b808452602084019350611fd2818560208601611f8d565b601f01601f19169290920192915050565b60608082528101611ff48186611fb1565b905061200360208301856116ca565b61149e6040830184611742565b60138152600060208201722ab735b737bbb71039ba30b136329031b7b4b760691b8152915061186a565b602080825281016109c281612010565b602881526000602082017f4d616e6167657220646f6573206e6f7420686176652073756666696369656e748152672062616c616e636560c01b602082015291505b5060400190565b602080825281016109c28161204a565b60ff8116611693565b80516109c2816120a2565b6000602082840312156120cb576120cb600080fd5b600061149e84846120ab565b603081526000602082017f7765207265717569726520737461626c6520646563696d616c7320746f20626581526f203c3d206f757220646563696d616c7360801b6020820152915061208b565b602080825281016109c2816120d7565b60ff9182169190811690828203908111156109c2576109c2611949565b608080825281016121628187611fb1565b9050611b4260208301866116ca565b60408101611a4c82856116ca565b602381526000602082017f496e73756666696369656e742062616c616e636520696e2054726561737572798152622634b160e91b6020820152915061208b565b602080825281016109c28161217f565b608081016121dd82876116ca565b6121ea6020830186611742565b6121f760408301856116ca565b6114f36060830184611742565b600082612213576122136118c5565b500490565b601f81526000602082017f5265656e7472616e637947756172643a207265656e7472616e742063616c6c008152915061186a565b602080825281016109c281612218565b60408101611a4c8285611742565b80516109c2816116f1565b60006020828403121561228a5761228a600080fd5b600061149e848461226a565b600e81526000602082016d14185a5c881b9bdd08199bdd5b9960921b8152915061186a565b602080825281016109c281612296565b6001600160701b038116611693565b80516109c2816122cb565b63ffffffff8116611693565b80516109c2816122e5565b60008060006060848603121561231457612314600080fd5b600061232086866122da565b9350506020612331868287016122da565b925050604061179f868287016122f1565b634e487b7160e01b600052605160045260246000fdfe6d696e74696e67202573206f66202573207769746820636f6e76657273696f6e206f66202573546f6b656e7357616765726564286f7074696f6e3a2025642c20746f6b656e3a2025732c20616674657246656520257377696e6e696e67496e646578203d2025732077696e6e696e67455243206973202573a2646970667358221220768a92187ff5408072ed88f4724fe45b8f5b2301bbca5ac9fe65115e68b6574664736f6c6343000814003360806040523480156200001157600080fd5b50604051620011d4380380620011d48339810160408190526200003491620001c0565b60408051808201909152600a8152692ba0a3a9102a37b5b2b760b11b6020820152816003620000648382620002fe565b506004620000738282620002fe565b5050600580546001600160a01b0319163317905550620003ce9050565b634e487b7160e01b600052604160045260246000fd5b601f19601f83011681018181106001600160401b0382111715620000ce57620000ce62000090565b6040525050565b6000620000e160405190565b9050620000ef8282620000a6565b919050565b60006001600160401b0382111562000110576200011062000090565b601f19601f83011660200192915050565b60005b838110156200013e57818101518382015260200162000124565b50506000910152565b60006200015e6200015884620000f4565b620000d5565b9050828152602081018484840111156200017b576200017b600080fd5b6200018884828562000121565b509392505050565b600082601f830112620001a657620001a6600080fd5b8151620001b884826020860162000147565b949350505050565b600060208284031215620001d757620001d7600080fd5b81516001600160401b03811115620001f257620001f2600080fd5b620001b88482850162000190565b634e487b7160e01b600052602260045260246000fd5b6002810460018216806200022b57607f821691505b60208210810362000240576200024062000200565b50919050565b600062000257620002548381565b90565b92915050565b620002688362000246565b815460001960089490940293841b1916921b91909117905550565b6000620002928184846200025d565b505050565b81811015620002b657620002ad60008262000283565b60010162000297565b5050565b601f82111562000292576000818152602090206020601f85010481016020851015620002e35750805b620002f76020601f86010483018262000297565b5050505050565b81516001600160401b038111156200031a576200031a62000090565b62000326825462000216565b62000333828285620002ba565b6020601f8311600181146200036a5760008415620003515750858201515b600019600886021c1981166002860217865550620003c6565b600085815260208120601f198616915b828110156200039c57888501518255602094850194600190920191016200037a565b86831015620003b95784890151600019601f89166008021c191682555b6001600288020188555050505b505050505050565b610df680620003de6000396000f3fe608060405234801561001057600080fd5b50600436106100ea5760003560e01c806370a082311161008c5780639dc29fac116100665780639dc29fac146101d9578063a457c2d7146101ec578063a9059cbb146101ff578063dd62ed3e1461021257600080fd5b806370a08231146101885780638da5cb5b146101b157806395d89b41146101d157600080fd5b806323b872dd116100c857806323b872dd1461013e578063313ce56714610151578063395093511461016057806340c10f191461017357600080fd5b806306fdde03146100ef578063095ea7b31461010d57806318160ddd1461012d575b600080fd5b6100f7610225565b6040516101049190610846565b60405180910390f35b61012061011b3660046108a2565b6102b7565b60405161010491906108e9565b6002545b60405161010491906108fd565b61012061014c36600461090b565b6102d1565b60126040516101049190610964565b61012061016e3660046108a2565b6102f5565b6101866101813660046108a2565b610317565b005b610131610196366004610972565b6001600160a01b031660009081526020819052604090205490565b6005546101c4906001600160a01b031681565b60405161010491906109a4565b6100f76103a8565b6101866101e73660046108a2565b6103b7565b6101206101fa3660046108a2565b61043f565b61012061020d3660046108a2565b61047c565b6101316102203660046109b2565b61048a565b606060038054610234906109fb565b80601f0160208091040260200160405190810160405280929190818152602001828054610260906109fb565b80156102ad5780601f10610282576101008083540402835291602001916102ad565b820191906000526020600020905b81548152906001019060200180831161029057829003601f168201915b5050505050905090565b6000336102c58185856104b5565b60019150505b92915050565b6000336102df858285610569565b6102ea8585856105b3565b506001949350505050565b6000336102c5818585610308838361048a565b6103129190610a3d565b6104b5565b6005546001600160a01b0316331461034a5760405162461bcd60e51b815260040161034190610a73565b60405180910390fd5b61035482826106a3565b816001600160a01b031681610367610225565b6040516103749190610aa5565b604051908190038120907f4ea4bf17c5d37efa096557e3ee29e15f25874692825bbab99f91e024a582864690600090a45050565b606060048054610234906109fb565b6005546001600160a01b031633146103e15760405162461bcd60e51b815260040161034190610a73565b6103eb8282610739565b816001600160a01b0316816103fe610225565b60405161040b9190610aa5565b604051908190038120907feb236328ada1ed26bdd57999a13f2ec8173e3935919da1161f6bb7965d93931790600090a45050565b6000338161044d828661048a565b90508381101561046f5760405162461bcd60e51b815260040161034190610af6565b6102ea82868684036104b5565b6000336102c58185856105b3565b6001600160a01b03918216600090815260016020908152604080832093909416825291909152205490565b6001600160a01b0383166104db5760405162461bcd60e51b815260040161034190610b47565b6001600160a01b0382166105015760405162461bcd60e51b815260040161034190610b96565b6001600160a01b0380841660008181526001602090815260408083209487168084529490915290819020849055517f8c5be1e5ebec7d5bd14f71427d1e84f3dd0314c0f7b2291e5b200ac8c7c3b9259061055c9085906108fd565b60405180910390a3505050565b6000610575848461048a565b905060001981146105ad57818110156105a05760405162461bcd60e51b815260040161034190610bda565b6105ad84848484036104b5565b50505050565b6001600160a01b0383166105d95760405162461bcd60e51b815260040161034190610c2c565b6001600160a01b0382166105ff5760405162461bcd60e51b815260040161034190610c7c565b6001600160a01b038316600090815260208190526040902054818110156106385760405162461bcd60e51b815260040161034190610ccf565b6001600160a01b0380851660008181526020819052604080822086860390559286168082529083902080548601905591517fddf252ad1be2c89b69c2b068fc378daa952ba7f163c4a11628f55a4df523b3ef906106969086906108fd565b60405180910390a36105ad565b6001600160a01b0382166106c95760405162461bcd60e51b815260040161034190610d13565b80600260008282546106db9190610a3d565b90915550506001600160a01b038216600081815260208190526040808220805485019055517fddf252ad1be2c89b69c2b068fc378daa952ba7f163c4a11628f55a4df523b3ef9061072d9085906108fd565b60405180910390a35050565b6001600160a01b03821661075f5760405162461bcd60e51b815260040161034190610d61565b6001600160a01b038216600090815260208190526040902054818110156107985760405162461bcd60e51b815260040161034190610db0565b6001600160a01b0383166000818152602081905260408082208585039055600280548690039055519091907fddf252ad1be2c89b69c2b068fc378daa952ba7f163c4a11628f55a4df523b3ef9061055c9086906108fd565b60005b8381101561080b5781810151838201526020016107f3565b50506000910152565b600061081e825190565b8084526020840193506108358185602086016107f0565b601f01601f19169290920192915050565b602080825281016108578184610814565b9392505050565b60006001600160a01b0382166102cb565b6108788161085e565b811461088357600080fd5b50565b80356102cb8161086f565b80610878565b80356102cb81610891565b600080604083850312156108b8576108b8600080fd5b60006108c48585610886565b92505060206108d585828601610897565b9150509250929050565b8015155b82525050565b602081016102cb82846108df565b806108e3565b602081016102cb82846108f7565b60008060006060848603121561092357610923600080fd5b600061092f8686610886565b935050602061094086828701610886565b925050604061095186828701610897565b9150509250925092565b60ff81166108e3565b602081016102cb828461095b565b60006020828403121561098757610987600080fd5b60006109938484610886565b949350505050565b6108e38161085e565b602081016102cb828461099b565b600080604083850312156109c8576109c8600080fd5b60006109d48585610886565b92505060206108d585828601610886565b634e487b7160e01b600052602260045260246000fd5b600281046001821680610a0f57607f821691505b602082108103610a2157610a216109e5565b50919050565b634e487b7160e01b600052601160045260246000fd5b808201808211156102cb576102cb610a27565b600981526000602082016837b7363ca7bbb732b960b91b815291505b5060200190565b602080825281016102cb81610a50565b6000610a8d825190565b610a9b8185602086016107f0565b9290920192915050565b60006108578284610a83565b602581526000602082017f45524332303a2064656372656173656420616c6c6f77616e63652062656c6f77815264207a65726f60d81b602082015291505b5060400190565b602080825281016102cb81610ab1565b602481526000602082017f45524332303a20617070726f76652066726f6d20746865207a65726f206164648152637265737360e01b60208201529150610aef565b602080825281016102cb81610b06565b602281526000602082017f45524332303a20617070726f766520746f20746865207a65726f206164647265815261737360f01b60208201529150610aef565b602080825281016102cb81610b57565b601d81526000602082017f45524332303a20696e73756666696369656e7420616c6c6f77616e636500000081529150610a6c565b602080825281016102cb81610ba6565b602581526000602082017f45524332303a207472616e736665722066726f6d20746865207a65726f206164815264647265737360d81b60208201529150610aef565b602080825281016102cb81610bea565b602381526000602082017f45524332303a207472616e7366657220746f20746865207a65726f206164647281526265737360e81b60208201529150610aef565b602080825281016102cb81610c3c565b602681526000602082017f45524332303a207472616e7366657220616d6f756e7420657863656564732062815265616c616e636560d01b60208201529150610aef565b602080825281016102cb81610c8c565b601f81526000602082017f45524332303a206d696e7420746f20746865207a65726f20616464726573730081529150610a6c565b602080825281016102cb81610cdf565b602181526000602082017f45524332303a206275726e2066726f6d20746865207a65726f206164647265738152607360f81b60208201529150610aef565b602080825281016102cb81610d23565b602281526000602082017f45524332303a206275726e20616d6f756e7420657863656564732062616c616e815261636560f01b60208201529150610aef565b602080825281016102cb81610d7156fea26469706673582212201f30cc24f5f41dd980e71bae5cec86bc87805ac407b303c9b533521521fcab5764736f6c63430008140033",
  "linkReferences": {
    "libs/ManagerLib.sol": {
      "ManagerLib": [
        {
          "length": 20,
          "start": 3116
        }
      ]
    }
  },
  "deployedLinkReferences": {
    "libs/ManagerLib.sol": {
      "ManagerLib": [
        {
          "length": 20,
          "start": 1532
        }
      ]
    }
  }
}