{
  "_format": "hh-sol-artifact-1",
  "contractName": "StakeTreasury",
  "sourceName": "StakeTreasury.sol",
  "abi": [
    {
      "inputs": [],
      "stateMutability": "nonpayable",
      "type": "constructor"
    },
    {
      "anonymous": false,
      "inputs": [
        {
          "indexed": true,
          "internalType": "address",
          "name": "token",
          "type": "address"
        }
      ],
      "name": "DebugAddress",
      "type": "event"
    },
    {
      "anonymous": false,
      "inputs": [
        {
          "indexed": false,
          "internalType": "uint256",
          "name": "checkit",
          "type": "uint256"
        }
      ],
      "name": "DebugNumber",
      "type": "event"
    },
    {
      "anonymous": false,
      "inputs": [
        {
          "indexed": false,
          "internalType": "string",
          "name": "stringValue",
          "type": "string"
        }
      ],
      "name": "DebugString",
      "type": "event"
    },
    {
      "anonymous": false,
      "inputs": [
        {
          "indexed": true,
          "internalType": "string",
          "name": "ownerHash",
          "type": "string"
        },
        {
          "indexed": false,
          "internalType": "bytes32[]",
          "name": "stakes",
          "type": "bytes32[]"
        }
      ],
      "name": "ReturnStakes",
      "type": "event"
    },
    {
      "inputs": [
        {
          "internalType": "address",
          "name": "staker",
          "type": "address"
        },
        {
          "internalType": "bytes32",
          "name": "stakeName",
          "type": "bytes32"
        },
        {
          "internalType": "address",
          "name": "tokenAddress",
          "type": "address"
        },
        {
          "internalType": "uint256",
          "name": "amount",
          "type": "uint256"
        }
      ],
      "name": "bookTokens",
      "outputs": [
        {
          "internalType": "uint256",
          "name": "",
          "type": "uint256"
        }
      ],
      "stateMutability": "nonpayable",
      "type": "function"
    },
    {
      "inputs": [
        {
          "internalType": "address",
          "name": "usr",
          "type": "address"
        },
        {
          "internalType": "address",
          "name": "chosenERC20",
          "type": "address"
        },
        {
          "internalType": "bytes32",
          "name": "project",
          "type": "bytes32"
        }
      ],
      "name": "calculatePayout",
      "outputs": [
        {
          "internalType": "uint256",
          "name": "stake",
          "type": "uint256"
        },
        {
          "internalType": "uint256",
          "name": "payout",
          "type": "uint256"
        }
      ],
      "stateMutability": "view",
      "type": "function"
    },
    {
      "inputs": [
        {
          "internalType": "address",
          "name": "staker",
          "type": "address"
        }
      ],
      "name": "getStakes",
      "outputs": [
        {
          "internalType": "bytes32[]",
          "name": "",
          "type": "bytes32[]"
        }
      ],
      "stateMutability": "view",
      "type": "function"
    },
    {
      "inputs": [
        {
          "internalType": "bytes32",
          "name": "_name",
          "type": "bytes32"
        },
        {
          "internalType": "address",
          "name": "_token",
          "type": "address"
        }
      ],
      "name": "getTokenAmount",
      "outputs": [
        {
          "internalType": "uint256",
          "name": "",
          "type": "uint256"
        }
      ],
      "stateMutability": "view",
      "type": "function"
    },
    {
      "inputs": [
        {
          "components": [
            {
              "internalType": "address",
              "name": "manager",
              "type": "address"
            }
          ],
          "internalType": "struct StakeTreasury.createTreasury",
          "name": "template",
          "type": "tuple"
        }
      ],
      "name": "init",
      "outputs": [],
      "stateMutability": "nonpayable",
      "type": "function"
    },
    {
      "inputs": [
        {
          "internalType": "address",
          "name": "staker",
          "type": "address"
        }
      ],
      "name": "registerStaker",
      "outputs": [],
      "stateMutability": "nonpayable",
      "type": "function"
    },
    {
      "inputs": [
        {
          "internalType": "address[]",
          "name": "_stakers",
          "type": "address[]"
        }
      ],
      "name": "registerStakers",
      "outputs": [],
      "stateMutability": "nonpayable",
      "type": "function"
    },
    {
      "inputs": [
        {
          "internalType": "address",
          "name": "staker",
          "type": "address"
        },
        {
          "internalType": "bytes32",
          "name": "stakeName",
          "type": "bytes32"
        }
      ],
      "name": "removeStake",
      "outputs": [
        {
          "internalType": "bytes32[]",
          "name": "",
          "type": "bytes32[]"
        }
      ],
      "stateMutability": "nonpayable",
      "type": "function"
    },
    {
      "inputs": [],
      "name": "stableAmount",
      "outputs": [
        {
          "internalType": "uint256",
          "name": "",
          "type": "uint256"
        }
      ],
      "stateMutability": "view",
      "type": "function"
    },
    {
      "inputs": [
        {
          "internalType": "bytes32",
          "name": "_name",
          "type": "bytes32"
        },
        {
          "internalType": "address",
          "name": "tokenAddress",
          "type": "address"
        },
        {
          "internalType": "uint256",
          "name": "amount",
          "type": "uint256"
        },
        {
          "internalType": "address",
          "name": "to",
          "type": "address"
        }
      ],
      "name": "transferTokenTo",
      "outputs": [],
      "stateMutability": "nonpayable",
      "type": "function"
    }
  ],
  "bytecode": "0x608060405234801561001057600080fd5b50600080546001600160a01b03191633179055611884806100326000396000f3fe608060405234801561001057600080fd5b506004361061009e5760003560e01c80637ba6f458116100665780637ba6f4581461011d578063ab50d54e14610130578063b42c91cc14610143578063e2aa1f5814610156578063fc27a4fa1461017757600080fd5b8063148394e1146100a35780632fe3df73146100c2578063377f5489146100d55780633cfffd39146100f557806378ce04011461010a575b600080fd5b6100ac60045481565b6040516100b99190610f4f565b60405180910390f35b6100ac6100d0366004610f9e565b61018d565b6100e86100e3366004611002565b610273565b6040516100b9919061109c565b610108610103366004611149565b61053d565b005b610108610118366004611172565b610589565b6100e861012b3660046111ca565b610617565b61010861013e36600461123d565b610683565b6101086101513660046111ca565b6107bf565b610169610164366004611285565b610830565b6040516100b99291906112d5565b6100ac6101853660046112f0565b505060045490565b600080546001600160a01b03163314806101bc57503360009081526001602081905260409091205460ff161515145b6101e15760405162461bcd60e51b81526004016101d89061135a565b60405180910390fd5b6001600160a01b038516600090815260026020526040812080546001929061020e90849061ffff16611380565b825461ffff9182166101009390930a9283029190920219909116179055506001600160a01b03851660009081526003602090815260408220805460018101825590835291200184905560045461026590839061139e565b600481905595945050505050565b6001600160a01b038216600090815260026020526040812054606091908190819061ffff1667ffffffffffffffff8111156102b0576102b06110b4565b6040519080825280602002602001820160405280156102d9578160200160208202803683370190505b509050600092505b6001600160a01b03861660009081526003602052604090205483101561048b576001600160a01b038616600090815260036020526040902080548691908590811061032e5761032e6113b1565b9060005260206000200154036103e4578051821061035e5760405162461bcd60e51b81526004016101d8906113f2565b6103b56040518060400160405280601581526020017472656d6f76655374616b65735b25645d203d20257360581b81525083876040516020016103a19190611408565b60405160208183030381529060405261098f565b8281836103c18161141d565b9450815181106103d3576103d36113b1565b602002602001018181525050610479565b610479604051806040016040528060118152602001706b656570696e67207374616b653a20257360781b81525060026001016000896001600160a01b03166001600160a01b03168152602001908152602001600020858154811061044a5761044a6113b1565b90600052602060002001546040516020016104659190611408565b6040516020818303038152906040526109db565b826104838161141d565b9350506102e1565b600092505b818310156104ce576104bb868285815181106104ae576104ae6113b1565b6020026020010151610a24565b50826104c68161141d565b935050610490565b6001600160a01b0386166000908152600360209081526040918290208054835181840281018401909452808452909183018282801561052c57602002820191906000526020600020905b815481526020019060010190808311610518575b505050505093505050505b92915050565b6000546001600160a01b031633146105675760405162461bcd60e51b81526004016101d890611464565b51600080546001600160a01b0319166001600160a01b03909216919091179055565b6000546001600160a01b03163314806105b757503360009081526001602081905260409091205460ff161515145b6105d35760405162461bcd60e51b81526004016101d89061135a565b8160045410156105f55760405162461bcd60e51b81526004016101d8906114c0565b8160045461060391906114d0565b600455610611838284610c4c565b50505050565b6001600160a01b03811660009081526003602090815260409182902080548351818402810184019094528084526060939283018282801561067757602002820191906000526020600020905b815481526020019060010190808311610663575b50505050509050919050565b6000546001600160a01b03163314806106b157503360009081526001602081905260409091205460ff161515145b6106cd5760405162461bcd60e51b81526004016101d89061135a565b60006106d882610d66565b6040516020016106e89190611529565b604051602081830303815290604052905060005b82811015610611576000848483818110610718576107186113b1565b905060200201602081019061072d91906111ca565b905082604051602001610740919061154d565b604051602081830303815290604052925082610764826001600160a01b0316610d66565b60405160200161077592919061156b565b60408051601f198184030181529181526001600160a01b03909216600090815260016020819052929020805460ff19169092179091559150806107b78161141d565b9150506106fc565b6000546001600160a01b03163314806107ed57503360009081526001602081905260409091205460ff161515145b6108095760405162461bcd60e51b81526004016101d89061135a565b6001600160a01b03166000908152600160208190526040909120805460ff19169091179055565b6000805481906001600160a01b031633148061086157503360009081526001602081905260409091205460ff161515145b61087d5760405162461bcd60e51b81526004016101d89061135a565b6040516370a0823160e01b81526001600160a01b038516906370a08231906108a990889060040161158c565b602060405180830381865afa1580156108c6573d6000803e3d6000fd5b505050506040513d601f19601f820116820180604052508101906108ea91906115a5565b91506000821161090c5760405162461bcd60e51b81526004016101d89061160a565b836001600160a01b03166318160ddd6040518163ffffffff1660e01b8152600401602060405180830381865afa15801561094a573d6000803e3d6000fd5b505050506040513d601f19601f8201168201806040525081019061096e91906115a5565b60045461097b908461161a565b610985919061164f565b9050935093915050565b6109d68383836040516024016109a793929190611695565b60408051601f198184030181529190526020810180516001600160e01b0316635970e08960e01b179052610df9565b505050565b610a2082826040516024016109f19291906116d0565b60408051601f198184030181529190526020810180516001600160e01b0316634b5c427760e01b179052610df9565b5050565b6001600160a01b0382166000908152600360205260409020546060908210610ab0576001600160a01b03831660009081526003602090815260409182902080548351818402810184019094528084529091830182828015610aa457602002820191906000526020600020905b815481526020019060010190808311610a90575b50505050509050610537565b815b6001600160a01b038416600090815260036020526040902054610ad7906001906114d0565b811015610b65576001600160a01b0384166000908152600360205260409020610b0182600161139e565b81548110610b1157610b116113b1565b60009182526020808320909101546001600160a01b038716835260039091526040909120805483908110610b4757610b476113b1565b60009182526020909120015580610b5d8161141d565b915050610ab2565b506001600160a01b0383166000908152600360205260409020805480610b8d57610b8d6116f5565b60019003818190600052602060002001600090559055610be16040518060600160405280602d8152602001611822602d91396001600160a01b03851660009081526003602052604090205484908690610e05565b6001600160a01b03831660009081526003602090815260409182902080548351818402810184019094528084529091830182828015610c3f57602002820191906000526020600020905b815481526020019060010190808311610c2b575b5050505050905092915050565b6040516370a0823160e01b815281906001600160a01b038516906370a0823190610c7a90309060040161158c565b602060405180830381865afa158015610c97573d6000803e3d6000fd5b505050506040513d601f19601f82011682018060405250810190610cbb91906115a5565b1015610cd95760405162461bcd60e51b81526004016101d890611751565b60405163a9059cbb60e01b81526001600160a01b0384169063a9059cbb90610d079085908590600401611761565b6020604051808303816000875af1158015610d26573d6000803e3d6000fd5b505050506040513d601f19601f82011682018060405250810190610d4a9190611782565b6109d65760405162461bcd60e51b81526004016101d8906117d7565b60606000610d7383610e4e565b600101905060008167ffffffffffffffff811115610d9357610d936110b4565b6040519080825280601f01601f191660200182016040528015610dbd576020820181803683370190505b5090508181016020015b600019016f181899199a1a9b1b9c1cb0b131b232b360811b600a86061a8153600a8504945084610dc757509392505050565b610e0281610f26565b50565b61061184848484604051602401610e1f94939291906117e7565b60408051601f198184030181529190526020810180516001600160e01b03166327827ee360e11b179052610df9565b60008072184f03e93ff9f4daa797ed6e38ed64bf6a1f0160401b8310610e8d5772184f03e93ff9f4daa797ed6e38ed64bf6a1f0160401b830492506040015b6d04ee2d6d415b85acef81000000008310610eb9576d04ee2d6d415b85acef8100000000830492506020015b662386f26fc100008310610ed757662386f26fc10000830492506010015b6305f5e1008310610eef576305f5e100830492506008015b6127108310610f0357612710830492506004015b60648310610f15576064830492506002015b600a83106105375760010192915050565b60006a636f6e736f6c652e6c6f679050600080835160208501845afa505050565b805b82525050565b602081016105378284610f47565b60006001600160a01b038216610537565b610f7781610f5d565b8114610e0257600080fd5b803561053781610f6e565b80610f77565b803561053781610f8d565b60008060008060808587031215610fb757610fb7600080fd5b6000610fc38787610f82565b9450506020610fd487828801610f93565b9350506040610fe587828801610f82565b9250506060610ff687828801610f93565b91505092959194509250565b6000806040838503121561101857611018600080fd5b60006110248585610f82565b925050602061103585828601610f93565b9150509250929050565b600061104b8383610f47565b505060200190565b600061105d825190565b80845260209384019383018060005b83811015611091578151611080888261103f565b97506020830192505060010161106c565b509495945050505050565b602080825281016110ad8184611053565b9392505050565b634e487b7160e01b600052604160045260246000fd5b601f19601f830116810181811067ffffffffffffffff821117156110f0576110f06110b4565b6040525050565b600061110260405190565b905061110e82826110ca565b919050565b60006020828403121561112857611128600080fd5b61113260206110f7565b905060006111408484610f82565b82525092915050565b60006020828403121561115e5761115e600080fd5b600061116a8484611113565b949350505050565b6000806000806080858703121561118b5761118b600080fd5b60006111978787610f93565b94505060206111a887828801610f82565b93505060406111b987828801610f93565b9250506060610ff687828801610f82565b6000602082840312156111df576111df600080fd5b600061116a8484610f82565b60008083601f84011261120057611200600080fd5b50813567ffffffffffffffff81111561121b5761121b600080fd5b60208301915083602082028301111561123657611236600080fd5b9250929050565b6000806020838503121561125357611253600080fd5b823567ffffffffffffffff81111561126d5761126d600080fd5b611279858286016111eb565b92509250509250929050565b60008060006060848603121561129d5761129d600080fd5b60006112a98686610f82565b93505060206112ba86828701610f82565b92505060406112cb86828701610f93565b9150509250925092565b604081016112e38285610f47565b6110ad6020830184610f47565b6000806040838503121561130657611306600080fd5b60006113128585610f93565b925050602061103585828601610f82565b601e81526000602082017f6f6e6c79207374616b6572206f72206d616e6167657220616c6c6f7765640000815291505b5060200190565b6020808252810161053781611323565b634e487b7160e01b600052601160045260246000fd5b61ffff9182169190811690828201908111156105375761053761136a565b808201808211156105375761053761136a565b634e487b7160e01b600052603260045260246000fd5b601481526000602082017372656d6f76655374616b65206f766572666c6f7760601b81529150611353565b60208082528101610537816113c7565b80610f49565b60006114148284611402565b50602001919050565b600060001982036114305761143061136a565b5060010190565b60168152600060208201751bdb9b1e481bdd5c881bdddb995c88185b1b1bddd95960521b81529150611353565b6020808252810161053781611437565b602c81526000602082017f54726561737572794c696220646f6573206e6f7420686176652073756666696381526b69656e742062616c616e636560a01b602082015291505b5060400190565b6020808252810161053781611474565b818103818111156105375761053761136a565b60005b838110156114fe5781810151838201526020016114e6565b50506000910152565b6000611511825190565b61151f8185602086016114e3565b9290920192915050565b60006115358284611507565b67207374616b65727360c01b81526008019392505050565b60006115598284611507565b61202d60f01b81526002019392505050565b60006115778285611507565b915061116a8284611507565b610f4981610f5d565b602081016105378284611583565b805161053781610f8d565b6000602082840312156115ba576115ba600080fd5b600061116a848461159a565b602781526000602082017f796f752068617665206e6f207374616b6520696e207468652077696e6e696e678152661037b83a34b7b760c91b602082015291506114b9565b60208082528101610537816115c6565b8181028082158382048514176116325761163261136a565b5092915050565b634e487b7160e01b600052601260045260246000fd5b60008261165e5761165e611639565b500490565b600061166d825190565b8084526020840193506116848185602086016114e3565b601f01601f19169290920192915050565b606080825281016116a68186611663565b90506116b56020830185610f47565b81810360408301526116c78184611663565b95945050505050565b604080825281016116e18185611663565b9050818103602083015261116a8184611663565b634e487b7160e01b600052603160045260246000fd5b602981526000602082017f547265617375727920646f6573206e6f7420686176652073756666696369656e815268742062616c616e636560b81b602082015291506114b9565b602080825281016105378161170b565b604081016112e38285611583565b801515610f77565b80516105378161176f565b60006020828403121561179757611797600080fd5b600061116a8484611777565b601881526000602082017f5472656173757279205472616e73666572206661696c6564000000000000000081529150611353565b60208082528101610537816117a3565b608080825281016117f88187611663565b90506118076020830186610f47565b6118146040830185611583565b6116c76060830184610f4756fe706f7070696e67207374616b655b25645d20666f72207374616b6572202573206c656e677468206e6f77202564a26469706673582212204f5d80eec3d6bdbd35468856d44d52d4707dff6be5afed78931f4e064ca8e59864736f6c63430008140033",
  "linkReferences": {},
  "deployedLinkReferences": {}
}