{
  "_format": "hh-sol-artifact-1",
  "contractName": "StakeTreasury",
  "sourceName": "StakeTreasury.sol",
  "abi": [
    {
      "inputs": [],
      "stateMutability": "nonpayable",
      "type": "constructor"
    },
    {
      "anonymous": false,
      "inputs": [
        {
          "indexed": true,
          "internalType": "address",
          "name": "token",
          "type": "address"
        }
      ],
      "name": "DebugAddress",
      "type": "event"
    },
    {
      "anonymous": false,
      "inputs": [
        {
          "indexed": false,
          "internalType": "uint256",
          "name": "checkit",
          "type": "uint256"
        }
      ],
      "name": "DebugNumber",
      "type": "event"
    },
    {
      "anonymous": false,
      "inputs": [
        {
          "indexed": false,
          "internalType": "string",
          "name": "stringValue",
          "type": "string"
        }
      ],
      "name": "DebugString",
      "type": "event"
    },
    {
      "anonymous": false,
      "inputs": [
        {
          "indexed": true,
          "internalType": "string",
          "name": "ownerHash",
          "type": "string"
        },
        {
          "indexed": false,
          "internalType": "bytes32[]",
          "name": "stakes",
          "type": "bytes32[]"
        }
      ],
      "name": "ReturnStakes",
      "type": "event"
    },
    {
      "inputs": [
        {
          "internalType": "address",
          "name": "staker",
          "type": "address"
        },
        {
          "internalType": "bytes32",
          "name": "stakeName",
          "type": "bytes32"
        },
        {
          "internalType": "address",
          "name": "tokenAddress",
          "type": "address"
        },
        {
          "internalType": "uint256",
          "name": "amount",
          "type": "uint256"
        }
      ],
      "name": "bookTokens",
      "outputs": [
        {
          "internalType": "uint256",
          "name": "",
          "type": "uint256"
        }
      ],
      "stateMutability": "nonpayable",
      "type": "function"
    },
    {
      "inputs": [
        {
          "internalType": "address",
          "name": "staker",
          "type": "address"
        }
      ],
      "name": "getStakes",
      "outputs": [
        {
          "internalType": "bytes32[]",
          "name": "",
          "type": "bytes32[]"
        }
      ],
      "stateMutability": "view",
      "type": "function"
    },
    {
      "inputs": [
        {
          "internalType": "bytes32",
          "name": "_name",
          "type": "bytes32"
        }
      ],
      "name": "getTokenAmount",
      "outputs": [
        {
          "internalType": "uint256",
          "name": "",
          "type": "uint256"
        }
      ],
      "stateMutability": "view",
      "type": "function"
    },
    {
      "inputs": [
        {
          "components": [
            {
              "internalType": "address",
              "name": "manager",
              "type": "address"
            }
          ],
          "internalType": "struct StakeTreasury.createTreasury",
          "name": "template",
          "type": "tuple"
        }
      ],
      "name": "init",
      "outputs": [],
      "stateMutability": "nonpayable",
      "type": "function"
    },
    {
      "inputs": [
        {
          "internalType": "address",
          "name": "staker",
          "type": "address"
        }
      ],
      "name": "registerStaker",
      "outputs": [],
      "stateMutability": "nonpayable",
      "type": "function"
    },
    {
      "inputs": [
        {
          "internalType": "address[]",
          "name": "_stakers",
          "type": "address[]"
        }
      ],
      "name": "registerStakers",
      "outputs": [],
      "stateMutability": "nonpayable",
      "type": "function"
    },
    {
      "inputs": [
        {
          "internalType": "address",
          "name": "staker",
          "type": "address"
        },
        {
          "internalType": "bytes32",
          "name": "stakeName",
          "type": "bytes32"
        }
      ],
      "name": "removeStake",
      "outputs": [
        {
          "internalType": "bytes32[]",
          "name": "",
          "type": "bytes32[]"
        }
      ],
      "stateMutability": "nonpayable",
      "type": "function"
    },
    {
      "inputs": [
        {
          "internalType": "bytes32",
          "name": "",
          "type": "bytes32"
        }
      ],
      "name": "stableAmount",
      "outputs": [
        {
          "internalType": "uint256",
          "name": "",
          "type": "uint256"
        }
      ],
      "stateMutability": "view",
      "type": "function"
    },
    {
      "inputs": [
        {
          "internalType": "bytes32",
          "name": "_name",
          "type": "bytes32"
        },
        {
          "internalType": "address",
          "name": "tokenAddress",
          "type": "address"
        },
        {
          "internalType": "uint256",
          "name": "amount",
          "type": "uint256"
        },
        {
          "internalType": "address",
          "name": "to",
          "type": "address"
        }
      ],
      "name": "transferTokenTo",
      "outputs": [],
      "stateMutability": "nonpayable",
      "type": "function"
    }
  ],
  "bytecode": "0x608060405234801561001057600080fd5b50600080546001600160a01b03191633179055611596806100326000396000f3fe608060405234801561001057600080fd5b50600436106100935760003560e01c806378ce04011161006657806378ce0401146101165780637ba6f45814610129578063ab50d54e1461013c578063b11dfbb01461014f578063b42c91cc1461016f57600080fd5b80632fe3df7314610098578063377f5489146100c15780633cfffd39146100e1578063673f69c0146100f6575b600080fd5b6100ab6100a6366004610dbf565b610182565b6040516100b89190610e2b565b60405180910390f35b6100d46100cf366004610e39565b610286565b6040516100b89190610ed3565b6100f46100ef366004610f80565b610467565b005b6100ab610104366004610fa1565b60009081526004602052604090205490565b6100f4610124366004610fc2565b6104b3565b6100d461013736600461101a565b610560565b6100f461014a36600461108d565b6105cc565b6100ab61015d366004610fa1565b60046020526000908152604090205481565b6100f461017d36600461101a565b610708565b600080546001600160a01b03163314806101b157503360009081526001602081905260409091205460ff161515145b6101d65760405162461bcd60e51b81526004016101cd9061110c565b60405180910390fd5b6001600160a01b038516600090815260026020526040812080546001929061020390849061ffff16611132565b825461ffff9182166101009390930a9283029190920219909116179055506001600160a01b0385166000908152600360209081526040808320805460018101825590845282842001879055868352600490915281208054849290610268908490611150565b9091555050506000838152600460205260409020545b949350505050565b6001600160a01b038216600090815260026020526040812054606091908190819061ffff1667ffffffffffffffff8111156102c3576102c3610eeb565b6040519080825280602002602001820160405280156102ec578160200160208202803683370190505b509050600092505b6001600160a01b0386166000908152600360205260409020548310156103ae576001600160a01b038616600090815260036020526040902080548691908590811061034157610341611163565b90600052602060002001540361039c57805182106103715760405162461bcd60e51b81526004016101cd906111a4565b82818361037d816111b4565b94508151811061038f5761038f611163565b6020026020010181815250505b826103a6816111b4565b9350506102f4565b8192505b82156103f8576103e586826103c86001876111ce565b815181106103d8576103d8611163565b6020026020010151610779565b50826103f0816111e1565b9350506103b2565b6001600160a01b0386166000908152600360209081526040918290208054835181840281018401909452808452909183018282801561045657602002820191906000526020600020905b815481526020019060010190808311610442575b505050505093505050505b92915050565b6000546001600160a01b031633146104915760405162461bcd60e51b81526004016101cd90611225565b51600080546001600160a01b0319166001600160a01b03909216919091179055565b6000546001600160a01b03163314806104e157503360009081526001602081905260409091205460ff161515145b6104fd5760405162461bcd60e51b81526004016101cd9061110c565b60008481526004602052604090205482111561052b5760405162461bcd60e51b81526004016101cd90611281565b600084815260046020526040812080548492906105499084906111ce565b9091555061055a9050838284610a37565b50505050565b6001600160a01b0381166000908152600360209081526040918290208054835181840281018401909452808452606093928301828280156105c057602002820191906000526020600020905b8154815260200190600101908083116105ac575b50505050509050919050565b6000546001600160a01b03163314806105fa57503360009081526001602081905260409091205460ff161515145b6106165760405162461bcd60e51b81526004016101cd9061110c565b600061062182610b56565b60405160200161063191906112d7565b604051602081830303815290604052905060005b8281101561055a57600084848381811061066157610661611163565b9050602002016020810190610676919061101a565b90508260405160200161068991906112fb565b6040516020818303038152906040529250826106ad826001600160a01b0316610b56565b6040516020016106be929190611319565b60408051601f198184030181529181526001600160a01b03909216600090815260016020819052929020805460ff1916909217909155915080610700816111b4565b915050610645565b6000546001600160a01b031633148061073657503360009081526001602081905260409091205460ff161515145b6107525760405162461bcd60e51b81526004016101cd9061110c565b6001600160a01b03166000908152600160208190526040909120805460ff19169091179055565b6001600160a01b038216600090815260036020526040902054606090821061086157604080518082018252601881527f696e646578203d202573203e206c656e677468203d20257300000000000000006020808301919091526001600160a01b0386166000908152600390915291909120546107f791908490610be9565b6001600160a01b0383166000908152600360209081526040918290208054835181840281018401909452808452909183018282801561085557602002820191906000526020600020905b815481526020019060010190808311610841575b50505050509050610461565b6108da6040518060600160405280602a8152602001611537602a91396001600160a01b0385166000908152600360205260409020805485918791839081106108ab576108ab611163565b90600052602060002001546040516020016108c69190611337565b604051602081830303815290604052610c30565b815b6001600160a01b038416600090815260036020526040902054610901906001906111ce565b81101561098f576001600160a01b038416600090815260036020526040902061092b826001611150565b8154811061093b5761093b611163565b60009182526020808320909101546001600160a01b03871683526003909152604090912080548390811061097157610971611163565b60009182526020909120015580610987816111b4565b9150506108dc565b506001600160a01b03831660009081526003602052604090208054806109b7576109b761134c565b6000828152602080822083016000199081018390559092019092556001600160a01b03851682526003815260409182902080548351818402810184019094528084529091830182828015610a2a57602002820191906000526020600020905b815481526020019060010190808311610a16575b5050505050905092915050565b6040516370a0823160e01b815281906001600160a01b038516906370a0823190610a6590309060040161136b565b602060405180830381865afa158015610a82573d6000803e3d6000fd5b505050506040513d601f19601f82011682018060405250810190610aa69190611384565b1015610ac45760405162461bcd60e51b81526004016101cd906113eb565b60405163a9059cbb60e01b81526001600160a01b0384169063a9059cbb90610af290859085906004016113fb565b6020604051808303816000875af1158015610b11573d6000803e3d6000fd5b505050506040513d601f19601f82011682018060405250810190610b359190611429565b610b515760405162461bcd60e51b81526004016101cd9061147e565b505050565b60606000610b6383610c79565b600101905060008167ffffffffffffffff811115610b8357610b83610eeb565b6040519080825280601f01601f191660200182016040528015610bad576020820181803683370190505b5090508181016020015b600019016f181899199a1a9b1b9c1cb0b131b232b360811b600a86061a8153600a8504945084610bb757509392505050565b610b51838383604051602401610c01939291906114c0565b60408051601f198184030181529190526020810180516001600160e01b031663ca47c4eb60e01b179052610d51565b61055a84848484604051602401610c4a94939291906114ed565b60408051601f198184030181529190526020810180516001600160e01b0316639ffb2f9360e01b179052610d51565b60008072184f03e93ff9f4daa797ed6e38ed64bf6a1f0160401b8310610cb85772184f03e93ff9f4daa797ed6e38ed64bf6a1f0160401b830492506040015b6d04ee2d6d415b85acef81000000008310610ce4576d04ee2d6d415b85acef8100000000830492506020015b662386f26fc100008310610d0257662386f26fc10000830492506010015b6305f5e1008310610d1a576305f5e100830492506008015b6127108310610d2e57612710830492506004015b60648310610d40576064830492506002015b600a83106104615760010192915050565b610d5a81610d5d565b50565b60006a636f6e736f6c652e6c6f679050600080835160208501845afa505050565b60006001600160a01b038216610461565b610d9881610d7e565b8114610d5a57600080fd5b803561046181610d8f565b80610d98565b803561046181610dae565b60008060008060808587031215610dd857610dd8600080fd5b6000610de48787610da3565b9450506020610df587828801610db4565b9350506040610e0687828801610da3565b9250506060610e1787828801610db4565b91505092959194509250565b805b82525050565b602081016104618284610e23565b60008060408385031215610e4f57610e4f600080fd5b6000610e5b8585610da3565b9250506020610e6c85828601610db4565b9150509250929050565b6000610e828383610e23565b505060200190565b6000610e94825190565b80845260209384019383018060005b83811015610ec8578151610eb78882610e76565b975060208301925050600101610ea3565b509495945050505050565b60208082528101610ee48184610e8a565b9392505050565b634e487b7160e01b600052604160045260246000fd5b601f19601f830116810181811067ffffffffffffffff82111715610f2757610f27610eeb565b6040525050565b6000610f3960405190565b9050610f458282610f01565b919050565b600060208284031215610f5f57610f5f600080fd5b610f696020610f2e565b90506000610f778484610da3565b82525092915050565b600060208284031215610f9557610f95600080fd5b600061027e8484610f4a565b600060208284031215610fb657610fb6600080fd5b600061027e8484610db4565b60008060008060808587031215610fdb57610fdb600080fd5b6000610fe78787610db4565b9450506020610ff887828801610da3565b935050604061100987828801610db4565b9250506060610e1787828801610da3565b60006020828403121561102f5761102f600080fd5b600061027e8484610da3565b60008083601f84011261105057611050600080fd5b50813567ffffffffffffffff81111561106b5761106b600080fd5b60208301915083602082028301111561108657611086600080fd5b9250929050565b600080602083850312156110a3576110a3600080fd5b823567ffffffffffffffff8111156110bd576110bd600080fd5b6110c98582860161103b565b92509250509250929050565b601e81526000602082017f6f6e6c79207374616b6572206f72206d616e6167657220616c6c6f7765640000815291505b5060200190565b60208082528101610461816110d5565b634e487b7160e01b600052601160045260246000fd5b61ffff9182169190811690828201908111156104615761046161111c565b808201808211156104615761046161111c565b634e487b7160e01b600052603260045260246000fd5b601481526000602082017372656d6f76655374616b65206f766572666c6f7760601b81529150611105565b6020808252810161046181611179565b600060001982036111c7576111c761111c565b5060010190565b818103818111156104615761046161111c565b6000816111f0576111f061111c565b506000190190565b60168152600060208201751bdb9b1e481bdd5c881bdddb995c88185b1b1bddd95960521b81529150611105565b60208082528101610461816111f8565b602c81526000602082017f54726561737572794c696220646f6573206e6f7420686176652073756666696381526b69656e742062616c616e636560a01b602082015291505b5060400190565b6020808252810161046181611235565b60005b838110156112ac578181015183820152602001611294565b50506000910152565b60006112bf825190565b6112cd818560208601611291565b9290920192915050565b60006112e382846112b5565b67207374616b65727360c01b81526008019392505050565b600061130782846112b5565b61202d60f01b81526002019392505050565b600061132582856112b5565b915061027e82846112b5565b80610e25565b60006113438284611331565b50602001919050565b634e487b7160e01b600052603160045260246000fd5b610e2581610d7e565b602081016104618284611362565b805161046181610dae565b60006020828403121561139957611399600080fd5b600061027e8484611379565b602981526000602082017f547265617375727920646f6573206e6f7420686176652073756666696369656e815268742062616c616e636560b81b6020820152915061127a565b60208082528101610461816113a5565b604081016114098285611362565b610ee46020830184610e23565b801515610d98565b805161046181611416565b60006020828403121561143e5761143e600080fd5b600061027e848461141e565b601881526000602082017f5472656173757279205472616e73666572206661696c6564000000000000000081529150611105565b602080825281016104618161144a565b6000611498825190565b8084526020840193506114af818560208601611291565b601f01601f19169290920192915050565b606080825281016114d1818661148e565b90506114e06020830185610e23565b61027e6040830184610e23565b608080825281016114fe818761148e565b905061150d6020830186610e23565b61151a6040830185611362565b818103606083015261152c818461148e565b969550505050505056fe72656d6f76696e6720656e7472795b25735d203d207374616b65732e7374616b65735b25735d5b25735da2646970667358221220de2b5f01654875c1733c10f2c7088dc13144df0e3a2fea981717bfbd08f15fa264736f6c63430008140033",
  "linkReferences": {},
  "deployedLinkReferences": {}
}