{
  "_format": "hh-sol-artifact-1",
  "contractName": "StakeTreasury",
  "sourceName": "StakeTreasury.sol",
  "abi": [
    {
      "inputs": [],
      "stateMutability": "nonpayable",
      "type": "constructor"
    },
    {
      "anonymous": false,
      "inputs": [
        {
          "indexed": true,
          "internalType": "address",
          "name": "token",
          "type": "address"
        }
      ],
      "name": "DebugAddress",
      "type": "event"
    },
    {
      "anonymous": false,
      "inputs": [
        {
          "indexed": false,
          "internalType": "uint256",
          "name": "checkit",
          "type": "uint256"
        }
      ],
      "name": "DebugNumber",
      "type": "event"
    },
    {
      "anonymous": false,
      "inputs": [
        {
          "indexed": false,
          "internalType": "string",
          "name": "stringValue",
          "type": "string"
        }
      ],
      "name": "DebugString",
      "type": "event"
    },
    {
      "inputs": [
        {
          "internalType": "bytes32",
          "name": "_name",
          "type": "bytes32"
        },
        {
          "internalType": "address",
          "name": "tokenAddress",
          "type": "address"
        },
        {
          "internalType": "uint256",
          "name": "amount",
          "type": "uint256"
        }
      ],
      "name": "bookTokens",
      "outputs": [
        {
          "internalType": "uint256",
          "name": "",
          "type": "uint256"
        }
      ],
      "stateMutability": "nonpayable",
      "type": "function"
    },
    {
      "inputs": [
        {
          "internalType": "address",
          "name": "usr",
          "type": "address"
        },
        {
          "internalType": "address",
          "name": "chosenERC20",
          "type": "address"
        },
        {
          "internalType": "bytes32",
          "name": "project",
          "type": "bytes32"
        }
      ],
      "name": "calculatePayout",
      "outputs": [
        {
          "internalType": "uint256",
          "name": "stake",
          "type": "uint256"
        },
        {
          "internalType": "uint256",
          "name": "payout",
          "type": "uint256"
        }
      ],
      "stateMutability": "view",
      "type": "function"
    },
    {
      "inputs": [
        {
          "internalType": "bytes32",
          "name": "_name",
          "type": "bytes32"
        },
        {
          "internalType": "address",
          "name": "_token",
          "type": "address"
        }
      ],
      "name": "getTokenAmount",
      "outputs": [
        {
          "internalType": "uint256",
          "name": "",
          "type": "uint256"
        }
      ],
      "stateMutability": "view",
      "type": "function"
    },
    {
      "inputs": [
        {
          "components": [
            {
              "internalType": "address",
              "name": "manager",
              "type": "address"
            }
          ],
          "internalType": "struct createTreasury",
          "name": "template",
          "type": "tuple"
        }
      ],
      "name": "init",
      "outputs": [],
      "stateMutability": "nonpayable",
      "type": "function"
    },
    {
      "inputs": [
        {
          "internalType": "address",
          "name": "staker",
          "type": "address"
        }
      ],
      "name": "registerStaker",
      "outputs": [],
      "stateMutability": "nonpayable",
      "type": "function"
    },
    {
      "inputs": [
        {
          "internalType": "address[]",
          "name": "_stakers",
          "type": "address[]"
        }
      ],
      "name": "registerStakers",
      "outputs": [],
      "stateMutability": "nonpayable",
      "type": "function"
    },
    {
      "inputs": [],
      "name": "stableAmount",
      "outputs": [
        {
          "internalType": "uint256",
          "name": "",
          "type": "uint256"
        }
      ],
      "stateMutability": "view",
      "type": "function"
    },
    {
      "inputs": [
        {
          "internalType": "bytes32",
          "name": "_name",
          "type": "bytes32"
        },
        {
          "internalType": "address",
          "name": "tokenAddress",
          "type": "address"
        },
        {
          "internalType": "uint256",
          "name": "amount",
          "type": "uint256"
        },
        {
          "internalType": "address",
          "name": "to",
          "type": "address"
        }
      ],
      "name": "transferTokenTo",
      "outputs": [],
      "stateMutability": "nonpayable",
      "type": "function"
    }
  ],
  "bytecode": "0x608060405234801561001057600080fd5b50600080546001600160a01b03191633179055610f0d806100326000396000f3fe608060405234801561001057600080fd5b50600436106100885760003560e01c8063ab50d54e1161005b578063ab50d54e146100e7578063b42c91cc146100fa578063e2aa1f581461010d578063fc27a4fa1461012e57600080fd5b8063148394e11461008d5780633cfffd39146100ac57806340b0e185146100c157806378ce0401146100d4575b600080fd5b61009660025481565b6040516100a39190610834565b60405180910390f35b6100bf6100ba36600461090a565b610141565b005b6100966100cf366004610944565b610196565b6100bf6100e2366004610994565b6101fe565b6100bf6100f5366004610a4a565b61028c565b6100bf610108366004610a92565b6103c8565b61012061011b366004610ab3565b610439565b6040516100a3929190610ad7565b61009661013c366004610af2565b610598565b6000546001600160a01b031633146101745760405162461bcd60e51b815260040161016b90610b5f565b60405180910390fd5b51600080546001600160a01b0319166001600160a01b03909216919091179055565b600080546001600160a01b03163314806101c557503360009081526001602081905260409091205460ff161515145b6101e15760405162461bcd60e51b815260040161016b90610ba3565b816002546101ef9190610bc9565b600281905590505b9392505050565b6000546001600160a01b031633148061022c57503360009081526001602081905260409091205460ff161515145b6102485760405162461bcd60e51b815260040161016b90610ba3565b81600254101561026a5760405162461bcd60e51b815260040161016b90610c28565b816002546102789190610c38565b6002556102868382846105a2565b50505050565b6000546001600160a01b03163314806102ba57503360009081526001602081905260409091205460ff161515145b6102d65760405162461bcd60e51b815260040161016b90610ba3565b60006102e1826106c1565b6040516020016102f19190610c91565b604051602081830303815290604052905060005b8281101561028657600084848381811061032157610321610cb5565b90506020020160208101906103369190610a92565b9050826040516020016103499190610ccb565b60405160208183030381529060405292508261036d826001600160a01b03166106c1565b60405160200161037e929190610ce9565b60408051601f198184030181529181526001600160a01b03909216600090815260016020819052929020805460ff19169092179091559150806103c081610d01565b915050610305565b6000546001600160a01b03163314806103f657503360009081526001602081905260409091205460ff161515145b6104125760405162461bcd60e51b815260040161016b90610ba3565b6001600160a01b03166000908152600160208190526040909120805460ff19169091179055565b6000805481906001600160a01b031633148061046a57503360009081526001602081905260409091205460ff161515145b6104865760405162461bcd60e51b815260040161016b90610ba3565b6040516370a0823160e01b81526001600160a01b038516906370a08231906104b2908890600401610d24565b602060405180830381865afa1580156104cf573d6000803e3d6000fd5b505050506040513d601f19601f820116820180604052508101906104f39190610d3d565b9150600082116105155760405162461bcd60e51b815260040161016b90610da2565b836001600160a01b03166318160ddd6040518163ffffffff1660e01b8152600401602060405180830381865afa158015610553573d6000803e3d6000fd5b505050506040513d601f19601f820116820180604052508101906105779190610d3d565b6002546105849084610db2565b61058e9190610de7565b9050935093915050565b6002545b92915050565b6040516370a0823160e01b815281906001600160a01b038516906370a08231906105d0903090600401610d24565b602060405180830381865afa1580156105ed573d6000803e3d6000fd5b505050506040513d601f19601f820116820180604052508101906106119190610d3d565b101561062f5760405162461bcd60e51b815260040161016b90610e41565b60405163a9059cbb60e01b81526001600160a01b0384169063a9059cbb9061065d9085908590600401610e51565b6020604051808303816000875af115801561067c573d6000803e3d6000fd5b505050506040513d601f19601f820116820180604052508101906106a09190610e72565b6106bc5760405162461bcd60e51b815260040161016b90610ec7565b505050565b606060006106ce83610754565b600101905060008167ffffffffffffffff8111156106ee576106ee610842565b6040519080825280601f01601f191660200182016040528015610718576020820181803683370190505b5090508181016020015b600019016f181899199a1a9b1b9c1cb0b131b232b360811b600a86061a8153600a850494508461072257509392505050565b60008072184f03e93ff9f4daa797ed6e38ed64bf6a1f0160401b83106107935772184f03e93ff9f4daa797ed6e38ed64bf6a1f0160401b830492506040015b6d04ee2d6d415b85acef810000000083106107bf576d04ee2d6d415b85acef8100000000830492506020015b662386f26fc1000083106107dd57662386f26fc10000830492506010015b6305f5e10083106107f5576305f5e100830492506008015b612710831061080957612710830492506004015b6064831061081b576064830492506002015b600a831061059c5760010192915050565b805b82525050565b6020810161059c828461082c565b634e487b7160e01b600052604160045260246000fd5b601f19601f830116810181811067ffffffffffffffff8211171561087e5761087e610842565b6040525050565b600061089060405190565b905061089c8282610858565b919050565b60006001600160a01b03821661059c565b6108bb816108a1565b81146108c657600080fd5b50565b803561059c816108b2565b6000602082840312156108e9576108e9600080fd5b6108f36020610885565b9050600061090184846108c9565b82525092915050565b60006020828403121561091f5761091f600080fd5b600061092b84846108d4565b949350505050565b806108bb565b803561059c81610933565b60008060006060848603121561095c5761095c600080fd5b60006109688686610939565b9350506020610979868287016108c9565b925050604061098a86828701610939565b9150509250925092565b600080600080608085870312156109ad576109ad600080fd5b60006109b98787610939565b94505060206109ca878288016108c9565b93505060406109db87828801610939565b92505060606109ec878288016108c9565b91505092959194509250565b60008083601f840112610a0d57610a0d600080fd5b50813567ffffffffffffffff811115610a2857610a28600080fd5b602083019150836020820283011115610a4357610a43600080fd5b9250929050565b60008060208385031215610a6057610a60600080fd5b823567ffffffffffffffff811115610a7a57610a7a600080fd5b610a86858286016109f8565b92509250509250929050565b600060208284031215610aa757610aa7600080fd5b600061092b84846108c9565b600080600060608486031215610acb57610acb600080fd5b600061096886866108c9565b60408101610ae5828561082c565b6101f7602083018461082c565b60008060408385031215610b0857610b08600080fd5b6000610b148585610939565b9250506020610b25858286016108c9565b9150509250929050565b60168152600060208201751bdb9b1e481bdd5c881bdddb995c88185b1b1bddd95960521b815291505b5060200190565b6020808252810161059c81610b2f565b601e81526000602082017f6f6e6c79207374616b6572206f72206d616e6167657220616c6c6f776564000081529150610b58565b6020808252810161059c81610b6f565b634e487b7160e01b600052601160045260246000fd5b8082018082111561059c5761059c610bb3565b602c81526000602082017f54726561737572794c696220646f6573206e6f7420686176652073756666696381526b69656e742062616c616e636560a01b602082015291505b5060400190565b6020808252810161059c81610bdc565b8181038181111561059c5761059c610bb3565b60005b83811015610c66578181015183820152602001610c4e565b50506000910152565b6000610c79825190565b610c87818560208601610c4b565b9290920192915050565b6000610c9d8284610c6f565b67207374616b65727360c01b81526008019392505050565b634e487b7160e01b600052603260045260246000fd5b6000610cd78284610c6f565b61202d60f01b81526002019392505050565b6000610cf58285610c6f565b915061092b8284610c6f565b60006000198203610d1457610d14610bb3565b5060010190565b61082e816108a1565b6020810161059c8284610d1b565b805161059c81610933565b600060208284031215610d5257610d52600080fd5b600061092b8484610d32565b602781526000602082017f796f752068617665206e6f207374616b6520696e207468652077696e6e696e678152661037b83a34b7b760c91b60208201529150610c21565b6020808252810161059c81610d5e565b818102808215838204851417610dca57610dca610bb3565b5092915050565b634e487b7160e01b600052601260045260246000fd5b600082610df657610df6610dd1565b500490565b602981526000602082017f547265617375727920646f6573206e6f7420686176652073756666696369656e815268742062616c616e636560b81b60208201529150610c21565b6020808252810161059c81610dfb565b60408101610ae58285610d1b565b8015156108bb565b805161059c81610e5f565b600060208284031215610e8757610e87600080fd5b600061092b8484610e67565b601881526000602082017f5472656173757279205472616e73666572206661696c6564000000000000000081529150610b58565b6020808252810161059c81610e9356fea2646970667358221220fd63ae7be4883efd0d112fa336bf515c329cbe9d74ed1f7d359c1205431a1aff64736f6c63430008140033",
  "linkReferences": {},
  "deployedLinkReferences": {}
}