{
  "_format": "hh-sol-artifact-1",
  "contractName": "StakeTreasury",
  "sourceName": "StakeTreasury.sol",
  "abi": [
    {
      "inputs": [],
      "stateMutability": "nonpayable",
      "type": "constructor"
    },
    {
      "anonymous": false,
      "inputs": [
        {
          "indexed": true,
          "internalType": "address",
          "name": "token",
          "type": "address"
        }
      ],
      "name": "DebugAddress",
      "type": "event"
    },
    {
      "anonymous": false,
      "inputs": [
        {
          "indexed": false,
          "internalType": "uint256",
          "name": "checkit",
          "type": "uint256"
        }
      ],
      "name": "DebugNumber",
      "type": "event"
    },
    {
      "anonymous": false,
      "inputs": [
        {
          "indexed": false,
          "internalType": "string",
          "name": "stringValue",
          "type": "string"
        }
      ],
      "name": "DebugString",
      "type": "event"
    },
    {
      "inputs": [
        {
          "internalType": "bytes32",
          "name": "_name",
          "type": "bytes32"
        },
        {
          "internalType": "address",
          "name": "tokenAddress",
          "type": "address"
        },
        {
          "internalType": "uint256",
          "name": "amount",
          "type": "uint256"
        }
      ],
      "name": "bookTokens",
      "outputs": [
        {
          "internalType": "uint256",
          "name": "",
          "type": "uint256"
        }
      ],
      "stateMutability": "nonpayable",
      "type": "function"
    },
    {
      "inputs": [
        {
          "internalType": "address",
          "name": "usr",
          "type": "address"
        },
        {
          "internalType": "address",
          "name": "chosenERC20",
          "type": "address"
        },
        {
          "internalType": "bytes32",
          "name": "project",
          "type": "bytes32"
        }
      ],
      "name": "calculatePayout",
      "outputs": [
        {
          "internalType": "uint256",
          "name": "stake",
          "type": "uint256"
        },
        {
          "internalType": "uint256",
          "name": "payout",
          "type": "uint256"
        }
      ],
      "stateMutability": "view",
      "type": "function"
    },
    {
      "inputs": [
        {
          "internalType": "bytes32",
          "name": "_name",
          "type": "bytes32"
        },
        {
          "internalType": "address",
          "name": "_token",
          "type": "address"
        }
      ],
      "name": "getTokenAmount",
      "outputs": [
        {
          "internalType": "uint256",
          "name": "",
          "type": "uint256"
        }
      ],
      "stateMutability": "view",
      "type": "function"
    },
    {
      "inputs": [
        {
          "components": [
            {
              "internalType": "address",
              "name": "manager",
              "type": "address"
            }
          ],
          "internalType": "struct createTreasury",
          "name": "template",
          "type": "tuple"
        }
      ],
      "name": "init",
      "outputs": [],
      "stateMutability": "nonpayable",
      "type": "function"
    },
    {
      "inputs": [
        {
          "internalType": "address",
          "name": "staker",
          "type": "address"
        }
      ],
      "name": "registerStaker",
      "outputs": [],
      "stateMutability": "nonpayable",
      "type": "function"
    },
    {
      "inputs": [],
      "name": "stableAmount",
      "outputs": [
        {
          "internalType": "uint256",
          "name": "",
          "type": "uint256"
        }
      ],
      "stateMutability": "view",
      "type": "function"
    },
    {
      "inputs": [
        {
          "internalType": "bytes32",
          "name": "_name",
          "type": "bytes32"
        },
        {
          "internalType": "address",
          "name": "tokenAddress",
          "type": "address"
        },
        {
          "internalType": "uint256",
          "name": "amount",
          "type": "uint256"
        },
        {
          "internalType": "address",
          "name": "to",
          "type": "address"
        }
      ],
      "name": "transferTokenTo",
      "outputs": [],
      "stateMutability": "nonpayable",
      "type": "function"
    }
  ],
  "bytecode": "0x608060405234801561001057600080fd5b506001600081905580546001600160a01b03191633179055610adb806100376000396000f3fe608060405234801561001057600080fd5b506004361061007d5760003560e01c806378ce04011161005b57806378ce0401146100c9578063b42c91cc146100dc578063e2aa1f58146100ef578063fc27a4fa1461011057600080fd5b8063148394e1146100825780633cfffd39146100a157806340b0e185146100b6575b600080fd5b61008b60035481565b604051610098919061056c565b60405180910390f35b6100b46100af366004610642565b610123565b005b61008b6100c436600461067c565b610178565b6100b46100d73660046106cc565b6101e1565b6100b46100ea366004610730565b61026e565b6101026100fd366004610751565b6102db565b604051610098929190610775565b61008b61011e366004610790565b61043b565b6001546001600160a01b031633146101565760405162461bcd60e51b815260040161014d906107fd565b60405180910390fd5b51600180546001600160a01b0319166001600160a01b03909216919091179055565b6001546000906001600160a01b03163314806101a857503360009081526002602052604090205460ff1615156001145b6101c45760405162461bcd60e51b815260040161014d90610841565b816003546101d29190610867565b600381905590505b9392505050565b6001546001600160a01b031633148061020e57503360009081526002602052604090205460ff1615156001145b61022a5760405162461bcd60e51b815260040161014d90610841565b81600354101561024c5760405162461bcd60e51b815260040161014d906108c6565b8160035461025a91906108d6565b600355610268838284610445565b50505050565b6001546001600160a01b031633148061029b57503360009081526002602052604090205460ff1615156001145b6102b75760405162461bcd60e51b815260040161014d90610841565b6001600160a01b03166000908152600260205260409020805460ff19166001179055565b60015460009081906001600160a01b031633148061030d57503360009081526002602052604090205460ff1615156001145b6103295760405162461bcd60e51b815260040161014d90610841565b6040516370a0823160e01b81526001600160a01b038516906370a08231906103559088906004016108f2565b602060405180830381865afa158015610372573d6000803e3d6000fd5b505050506040513d601f19601f82011682018060405250810190610396919061090b565b9150600082116103b85760405162461bcd60e51b815260040161014d90610970565b836001600160a01b03166318160ddd6040518163ffffffff1660e01b8152600401602060405180830381865afa1580156103f6573d6000803e3d6000fd5b505050506040513d601f19601f8201168201806040525081019061041a919061090b565b6003546104279084610980565b61043191906109b5565b9050935093915050565b6003545b92915050565b6040516370a0823160e01b815281906001600160a01b038516906370a08231906104739030906004016108f2565b602060405180830381865afa158015610490573d6000803e3d6000fd5b505050506040513d601f19601f820116820180604052508101906104b4919061090b565b10156104d25760405162461bcd60e51b815260040161014d90610a0f565b60405163a9059cbb60e01b81526001600160a01b0384169063a9059cbb906105009085908590600401610a1f565b6020604051808303816000875af115801561051f573d6000803e3d6000fd5b505050506040513d601f19601f820116820180604052508101906105439190610a40565b61055f5760405162461bcd60e51b815260040161014d90610a95565b505050565b805b82525050565b6020810161043f8284610564565b634e487b7160e01b600052604160045260246000fd5b601f19601f830116810181811067ffffffffffffffff821117156105b6576105b661057a565b6040525050565b60006105c860405190565b90506105d48282610590565b919050565b60006001600160a01b03821661043f565b6105f3816105d9565b81146105fe57600080fd5b50565b803561043f816105ea565b60006020828403121561062157610621600080fd5b61062b60206105bd565b905060006106398484610601565b82525092915050565b60006020828403121561065757610657600080fd5b6000610663848461060c565b949350505050565b806105f3565b803561043f8161066b565b60008060006060848603121561069457610694600080fd5b60006106a08686610671565b93505060206106b186828701610601565b92505060406106c286828701610671565b9150509250925092565b600080600080608085870312156106e5576106e5600080fd5b60006106f18787610671565b945050602061070287828801610601565b935050604061071387828801610671565b925050606061072487828801610601565b91505092959194509250565b60006020828403121561074557610745600080fd5b60006106638484610601565b60008060006060848603121561076957610769600080fd5b60006106a08686610601565b604081016107838285610564565b6101da6020830184610564565b600080604083850312156107a6576107a6600080fd5b60006107b28585610671565b92505060206107c385828601610601565b9150509250929050565b60168152600060208201751bdb9b1e481bdd5c881bdddb995c88185b1b1bddd95960521b815291505b5060200190565b6020808252810161043f816107cd565b601e81526000602082017f6f6e6c79207374616b6572206f72206d616e6167657220616c6c6f7765640000815291506107f6565b6020808252810161043f8161080d565b634e487b7160e01b600052601160045260246000fd5b8082018082111561043f5761043f610851565b602c81526000602082017f54726561737572794c696220646f6573206e6f7420686176652073756666696381526b69656e742062616c616e636560a01b602082015291505b5060400190565b6020808252810161043f8161087a565b8181038181111561043f5761043f610851565b610566816105d9565b6020810161043f82846108e9565b805161043f8161066b565b60006020828403121561092057610920600080fd5b60006106638484610900565b602781526000602082017f796f752068617665206e6f207374616b6520696e207468652077696e6e696e678152661037b83a34b7b760c91b602082015291506108bf565b6020808252810161043f8161092c565b81810280821583820485141761099857610998610851565b5092915050565b634e487b7160e01b600052601260045260246000fd5b6000826109c4576109c461099f565b500490565b602981526000602082017f547265617375727920646f6573206e6f7420686176652073756666696369656e815268742062616c616e636560b81b602082015291506108bf565b6020808252810161043f816109c9565b6040810161078382856108e9565b8015156105f3565b805161043f81610a2d565b600060208284031215610a5557610a55600080fd5b60006106638484610a35565b601881526000602082017f5472656173757279205472616e73666572206661696c65640000000000000000815291506107f6565b6020808252810161043f81610a6156fea264697066735822122045d771cc0ddcf1171fea1cca780c7fe9b600e2acce23ec72965d01280747de2f64736f6c63430008140033",
  "linkReferences": {},
  "deployedLinkReferences": {}
}