{
  "_format": "hh-sol-artifact-1",
  "contractName": "WAGR",
  "sourceName": "WAGR.sol",
  "abi": [
    {
      "inputs": [
        {
          "internalType": "string",
          "name": "_name",
          "type": "string"
        }
      ],
      "stateMutability": "nonpayable",
      "type": "constructor"
    },
    {
      "anonymous": false,
      "inputs": [
        {
          "indexed": true,
          "internalType": "address",
          "name": "owner",
          "type": "address"
        },
        {
          "indexed": true,
          "internalType": "address",
          "name": "spender",
          "type": "address"
        },
        {
          "indexed": false,
          "internalType": "uint256",
          "name": "value",
          "type": "uint256"
        }
      ],
      "name": "Approval",
      "type": "event"
    },
    {
      "anonymous": false,
      "inputs": [
        {
          "indexed": true,
          "internalType": "string",
          "name": "name",
          "type": "string"
        },
        {
          "indexed": true,
          "internalType": "uint256",
          "name": "amount",
          "type": "uint256"
        },
        {
          "indexed": true,
          "internalType": "address",
          "name": "to",
          "type": "address"
        }
      ],
      "name": "TokenBurnt",
      "type": "event"
    },
    {
      "anonymous": false,
      "inputs": [
        {
          "indexed": true,
          "internalType": "string",
          "name": "name",
          "type": "string"
        },
        {
          "indexed": true,
          "internalType": "uint256",
          "name": "amount",
          "type": "uint256"
        },
        {
          "indexed": true,
          "internalType": "address",
          "name": "to",
          "type": "address"
        }
      ],
      "name": "TokenMinted",
      "type": "event"
    },
    {
      "anonymous": false,
      "inputs": [
        {
          "indexed": true,
          "internalType": "address",
          "name": "from",
          "type": "address"
        },
        {
          "indexed": true,
          "internalType": "address",
          "name": "to",
          "type": "address"
        },
        {
          "indexed": false,
          "internalType": "uint256",
          "name": "value",
          "type": "uint256"
        }
      ],
      "name": "Transfer",
      "type": "event"
    },
    {
      "inputs": [
        {
          "internalType": "address",
          "name": "owner",
          "type": "address"
        },
        {
          "internalType": "address",
          "name": "spender",
          "type": "address"
        }
      ],
      "name": "allowance",
      "outputs": [
        {
          "internalType": "uint256",
          "name": "",
          "type": "uint256"
        }
      ],
      "stateMutability": "view",
      "type": "function"
    },
    {
      "inputs": [
        {
          "internalType": "address",
          "name": "spender",
          "type": "address"
        },
        {
          "internalType": "uint256",
          "name": "amount",
          "type": "uint256"
        }
      ],
      "name": "approve",
      "outputs": [
        {
          "internalType": "bool",
          "name": "",
          "type": "bool"
        }
      ],
      "stateMutability": "nonpayable",
      "type": "function"
    },
    {
      "inputs": [
        {
          "internalType": "address",
          "name": "account",
          "type": "address"
        }
      ],
      "name": "balanceOf",
      "outputs": [
        {
          "internalType": "uint256",
          "name": "",
          "type": "uint256"
        }
      ],
      "stateMutability": "view",
      "type": "function"
    },
    {
      "inputs": [
        {
          "internalType": "address",
          "name": "account",
          "type": "address"
        },
        {
          "internalType": "uint256",
          "name": "amount",
          "type": "uint256"
        }
      ],
      "name": "burn",
      "outputs": [],
      "stateMutability": "nonpayable",
      "type": "function"
    },
    {
      "inputs": [],
      "name": "decimals",
      "outputs": [
        {
          "internalType": "uint8",
          "name": "",
          "type": "uint8"
        }
      ],
      "stateMutability": "pure",
      "type": "function"
    },
    {
      "inputs": [
        {
          "internalType": "address",
          "name": "spender",
          "type": "address"
        },
        {
          "internalType": "uint256",
          "name": "subtractedValue",
          "type": "uint256"
        }
      ],
      "name": "decreaseAllowance",
      "outputs": [
        {
          "internalType": "bool",
          "name": "",
          "type": "bool"
        }
      ],
      "stateMutability": "nonpayable",
      "type": "function"
    },
    {
      "inputs": [
        {
          "internalType": "address",
          "name": "spender",
          "type": "address"
        },
        {
          "internalType": "uint256",
          "name": "addedValue",
          "type": "uint256"
        }
      ],
      "name": "increaseAllowance",
      "outputs": [
        {
          "internalType": "bool",
          "name": "",
          "type": "bool"
        }
      ],
      "stateMutability": "nonpayable",
      "type": "function"
    },
    {
      "inputs": [
        {
          "internalType": "address",
          "name": "to",
          "type": "address"
        },
        {
          "internalType": "uint256",
          "name": "amount",
          "type": "uint256"
        }
      ],
      "name": "mint",
      "outputs": [],
      "stateMutability": "nonpayable",
      "type": "function"
    },
    {
      "inputs": [],
      "name": "name",
      "outputs": [
        {
          "internalType": "string",
          "name": "",
          "type": "string"
        }
      ],
      "stateMutability": "view",
      "type": "function"
    },
    {
      "inputs": [],
      "name": "owner",
      "outputs": [
        {
          "internalType": "address",
          "name": "",
          "type": "address"
        }
      ],
      "stateMutability": "view",
      "type": "function"
    },
    {
      "inputs": [],
      "name": "symbol",
      "outputs": [
        {
          "internalType": "string",
          "name": "",
          "type": "string"
        }
      ],
      "stateMutability": "view",
      "type": "function"
    },
    {
      "inputs": [],
      "name": "totalSupply",
      "outputs": [
        {
          "internalType": "uint256",
          "name": "",
          "type": "uint256"
        }
      ],
      "stateMutability": "view",
      "type": "function"
    },
    {
      "inputs": [
        {
          "internalType": "address",
          "name": "to",
          "type": "address"
        },
        {
          "internalType": "uint256",
          "name": "amount",
          "type": "uint256"
        }
      ],
      "name": "transfer",
      "outputs": [
        {
          "internalType": "bool",
          "name": "",
          "type": "bool"
        }
      ],
      "stateMutability": "nonpayable",
      "type": "function"
    },
    {
      "inputs": [
        {
          "internalType": "address",
          "name": "from",
          "type": "address"
        },
        {
          "internalType": "address",
          "name": "to",
          "type": "address"
        },
        {
          "internalType": "uint256",
          "name": "amount",
          "type": "uint256"
        }
      ],
      "name": "transferFrom",
      "outputs": [
        {
          "internalType": "bool",
          "name": "",
          "type": "bool"
        }
      ],
      "stateMutability": "nonpayable",
      "type": "function"
    }
  ],
  "bytecode": "0x60806040523480156200001157600080fd5b50604051620011d4380380620011d48339810160408190526200003491620001c0565b60408051808201909152600a8152692ba0a3a9102a37b5b2b760b11b6020820152816003620000648382620002fe565b506004620000738282620002fe565b5050600580546001600160a01b0319163317905550620003ce9050565b634e487b7160e01b600052604160045260246000fd5b601f19601f83011681018181106001600160401b0382111715620000ce57620000ce62000090565b6040525050565b6000620000e160405190565b9050620000ef8282620000a6565b919050565b60006001600160401b0382111562000110576200011062000090565b601f19601f83011660200192915050565b60005b838110156200013e57818101518382015260200162000124565b50506000910152565b60006200015e6200015884620000f4565b620000d5565b9050828152602081018484840111156200017b576200017b600080fd5b6200018884828562000121565b509392505050565b600082601f830112620001a657620001a6600080fd5b8151620001b884826020860162000147565b949350505050565b600060208284031215620001d757620001d7600080fd5b81516001600160401b03811115620001f257620001f2600080fd5b620001b88482850162000190565b634e487b7160e01b600052602260045260246000fd5b6002810460018216806200022b57607f821691505b60208210810362000240576200024062000200565b50919050565b600062000257620002548381565b90565b92915050565b620002688362000246565b815460001960089490940293841b1916921b91909117905550565b6000620002928184846200025d565b505050565b81811015620002b657620002ad60008262000283565b60010162000297565b5050565b601f82111562000292576000818152602090206020601f85010481016020851015620002e35750805b620002f76020601f86010483018262000297565b5050505050565b81516001600160401b038111156200031a576200031a62000090565b62000326825462000216565b62000333828285620002ba565b6020601f8311600181146200036a5760008415620003515750858201515b600019600886021c1981166002860217865550620003c6565b600085815260208120601f198616915b828110156200039c57888501518255602094850194600190920191016200037a565b86831015620003b95784890151600019601f89166008021c191682555b6001600288020188555050505b505050505050565b610df680620003de6000396000f3fe608060405234801561001057600080fd5b50600436106100ea5760003560e01c806370a082311161008c5780639dc29fac116100665780639dc29fac146101d9578063a457c2d7146101ec578063a9059cbb146101ff578063dd62ed3e1461021257600080fd5b806370a08231146101885780638da5cb5b146101b157806395d89b41146101d157600080fd5b806323b872dd116100c857806323b872dd1461013e578063313ce56714610151578063395093511461016057806340c10f191461017357600080fd5b806306fdde03146100ef578063095ea7b31461010d57806318160ddd1461012d575b600080fd5b6100f7610225565b6040516101049190610846565b60405180910390f35b61012061011b3660046108a2565b6102b7565b60405161010491906108e9565b6002545b60405161010491906108fd565b61012061014c36600461090b565b6102d1565b60126040516101049190610964565b61012061016e3660046108a2565b6102f5565b6101866101813660046108a2565b610317565b005b610131610196366004610972565b6001600160a01b031660009081526020819052604090205490565b6005546101c4906001600160a01b031681565b60405161010491906109a4565b6100f76103a8565b6101866101e73660046108a2565b6103b7565b6101206101fa3660046108a2565b61043f565b61012061020d3660046108a2565b61047c565b6101316102203660046109b2565b61048a565b606060038054610234906109fb565b80601f0160208091040260200160405190810160405280929190818152602001828054610260906109fb565b80156102ad5780601f10610282576101008083540402835291602001916102ad565b820191906000526020600020905b81548152906001019060200180831161029057829003601f168201915b5050505050905090565b6000336102c58185856104b5565b60019150505b92915050565b6000336102df858285610569565b6102ea8585856105b3565b506001949350505050565b6000336102c5818585610308838361048a565b6103129190610a3d565b6104b5565b6005546001600160a01b0316331461034a5760405162461bcd60e51b815260040161034190610a73565b60405180910390fd5b61035482826106a3565b816001600160a01b031681610367610225565b6040516103749190610aa5565b604051908190038120907f4ea4bf17c5d37efa096557e3ee29e15f25874692825bbab99f91e024a582864690600090a45050565b606060048054610234906109fb565b6005546001600160a01b031633146103e15760405162461bcd60e51b815260040161034190610a73565b6103eb8282610739565b816001600160a01b0316816103fe610225565b60405161040b9190610aa5565b604051908190038120907feb236328ada1ed26bdd57999a13f2ec8173e3935919da1161f6bb7965d93931790600090a45050565b6000338161044d828661048a565b90508381101561046f5760405162461bcd60e51b815260040161034190610af6565b6102ea82868684036104b5565b6000336102c58185856105b3565b6001600160a01b03918216600090815260016020908152604080832093909416825291909152205490565b6001600160a01b0383166104db5760405162461bcd60e51b815260040161034190610b47565b6001600160a01b0382166105015760405162461bcd60e51b815260040161034190610b96565b6001600160a01b0380841660008181526001602090815260408083209487168084529490915290819020849055517f8c5be1e5ebec7d5bd14f71427d1e84f3dd0314c0f7b2291e5b200ac8c7c3b9259061055c9085906108fd565b60405180910390a3505050565b6000610575848461048a565b905060001981146105ad57818110156105a05760405162461bcd60e51b815260040161034190610bda565b6105ad84848484036104b5565b50505050565b6001600160a01b0383166105d95760405162461bcd60e51b815260040161034190610c2c565b6001600160a01b0382166105ff5760405162461bcd60e51b815260040161034190610c7c565b6001600160a01b038316600090815260208190526040902054818110156106385760405162461bcd60e51b815260040161034190610ccf565b6001600160a01b0380851660008181526020819052604080822086860390559286168082529083902080548601905591517fddf252ad1be2c89b69c2b068fc378daa952ba7f163c4a11628f55a4df523b3ef906106969086906108fd565b60405180910390a36105ad565b6001600160a01b0382166106c95760405162461bcd60e51b815260040161034190610d13565b80600260008282546106db9190610a3d565b90915550506001600160a01b038216600081815260208190526040808220805485019055517fddf252ad1be2c89b69c2b068fc378daa952ba7f163c4a11628f55a4df523b3ef9061072d9085906108fd565b60405180910390a35050565b6001600160a01b03821661075f5760405162461bcd60e51b815260040161034190610d61565b6001600160a01b038216600090815260208190526040902054818110156107985760405162461bcd60e51b815260040161034190610db0565b6001600160a01b0383166000818152602081905260408082208585039055600280548690039055519091907fddf252ad1be2c89b69c2b068fc378daa952ba7f163c4a11628f55a4df523b3ef9061055c9086906108fd565b60005b8381101561080b5781810151838201526020016107f3565b50506000910152565b600061081e825190565b8084526020840193506108358185602086016107f0565b601f01601f19169290920192915050565b602080825281016108578184610814565b9392505050565b60006001600160a01b0382166102cb565b6108788161085e565b811461088357600080fd5b50565b80356102cb8161086f565b80610878565b80356102cb81610891565b600080604083850312156108b8576108b8600080fd5b60006108c48585610886565b92505060206108d585828601610897565b9150509250929050565b8015155b82525050565b602081016102cb82846108df565b806108e3565b602081016102cb82846108f7565b60008060006060848603121561092357610923600080fd5b600061092f8686610886565b935050602061094086828701610886565b925050604061095186828701610897565b9150509250925092565b60ff81166108e3565b602081016102cb828461095b565b60006020828403121561098757610987600080fd5b60006109938484610886565b949350505050565b6108e38161085e565b602081016102cb828461099b565b600080604083850312156109c8576109c8600080fd5b60006109d48585610886565b92505060206108d585828601610886565b634e487b7160e01b600052602260045260246000fd5b600281046001821680610a0f57607f821691505b602082108103610a2157610a216109e5565b50919050565b634e487b7160e01b600052601160045260246000fd5b808201808211156102cb576102cb610a27565b600981526000602082016837b7363ca7bbb732b960b91b815291505b5060200190565b602080825281016102cb81610a50565b6000610a8d825190565b610a9b8185602086016107f0565b9290920192915050565b60006108578284610a83565b602581526000602082017f45524332303a2064656372656173656420616c6c6f77616e63652062656c6f77815264207a65726f60d81b602082015291505b5060400190565b602080825281016102cb81610ab1565b602481526000602082017f45524332303a20617070726f76652066726f6d20746865207a65726f206164648152637265737360e01b60208201529150610aef565b602080825281016102cb81610b06565b602281526000602082017f45524332303a20617070726f766520746f20746865207a65726f206164647265815261737360f01b60208201529150610aef565b602080825281016102cb81610b57565b601d81526000602082017f45524332303a20696e73756666696369656e7420616c6c6f77616e636500000081529150610a6c565b602080825281016102cb81610ba6565b602581526000602082017f45524332303a207472616e736665722066726f6d20746865207a65726f206164815264647265737360d81b60208201529150610aef565b602080825281016102cb81610bea565b602381526000602082017f45524332303a207472616e7366657220746f20746865207a65726f206164647281526265737360e81b60208201529150610aef565b602080825281016102cb81610c3c565b602681526000602082017f45524332303a207472616e7366657220616d6f756e7420657863656564732062815265616c616e636560d01b60208201529150610aef565b602080825281016102cb81610c8c565b601f81526000602082017f45524332303a206d696e7420746f20746865207a65726f20616464726573730081529150610a6c565b602080825281016102cb81610cdf565b602181526000602082017f45524332303a206275726e2066726f6d20746865207a65726f206164647265738152607360f81b60208201529150610aef565b602080825281016102cb81610d23565b602281526000602082017f45524332303a206275726e20616d6f756e7420657863656564732062616c616e815261636560f01b60208201529150610aef565b602080825281016102cb81610d7156fea26469706673582212201f30cc24f5f41dd980e71bae5cec86bc87805ac407b303c9b533521521fcab5764736f6c63430008140033",
  "linkReferences": {},
  "deployedLinkReferences": {}
}