{
  "_format": "hh-sol-artifact-1",
  "contractName": "SingleStake",
  "sourceName": "SingleStake.sol",
  "abi": [
    {
      "inputs": [
        {
          "internalType": "bytes32",
          "name": "gameID",
          "type": "bytes32"
        },
        {
          "internalType": "address",
          "name": "usdc",
          "type": "address"
        },
        {
          "internalType": "address",
          "name": "nfticket",
          "type": "address"
        },
        {
          "internalType": "address",
          "name": "treasury",
          "type": "address"
        },
        {
          "internalType": "uint256",
          "name": "_noOfOptions",
          "type": "uint256"
        }
      ],
      "stateMutability": "nonpayable",
      "type": "constructor"
    },
    {
      "inputs": [
        {
          "internalType": "address",
          "name": "sender",
          "type": "address"
        },
        {
          "internalType": "uint256",
          "name": "balance",
          "type": "uint256"
        },
        {
          "internalType": "uint256",
          "name": "needed",
          "type": "uint256"
        },
        {
          "internalType": "uint256",
          "name": "tokenId",
          "type": "uint256"
        }
      ],
      "name": "ERC1155InsufficientBalance",
      "type": "error"
    },
    {
      "inputs": [
        {
          "internalType": "address",
          "name": "approver",
          "type": "address"
        }
      ],
      "name": "ERC1155InvalidApprover",
      "type": "error"
    },
    {
      "inputs": [
        {
          "internalType": "uint256",
          "name": "idsLength",
          "type": "uint256"
        },
        {
          "internalType": "uint256",
          "name": "valuesLength",
          "type": "uint256"
        }
      ],
      "name": "ERC1155InvalidArrayLength",
      "type": "error"
    },
    {
      "inputs": [
        {
          "internalType": "address",
          "name": "operator",
          "type": "address"
        }
      ],
      "name": "ERC1155InvalidOperator",
      "type": "error"
    },
    {
      "inputs": [
        {
          "internalType": "address",
          "name": "receiver",
          "type": "address"
        }
      ],
      "name": "ERC1155InvalidReceiver",
      "type": "error"
    },
    {
      "inputs": [
        {
          "internalType": "address",
          "name": "sender",
          "type": "address"
        }
      ],
      "name": "ERC1155InvalidSender",
      "type": "error"
    },
    {
      "inputs": [
        {
          "internalType": "address",
          "name": "operator",
          "type": "address"
        },
        {
          "internalType": "address",
          "name": "owner",
          "type": "address"
        }
      ],
      "name": "ERC1155MissingApprovalForAll",
      "type": "error"
    },
    {
      "inputs": [],
      "name": "ReentrancyGuardReentrantCall",
      "type": "error"
    },
    {
      "anonymous": false,
      "inputs": [
        {
          "indexed": true,
          "internalType": "address",
          "name": "account",
          "type": "address"
        },
        {
          "indexed": true,
          "internalType": "address",
          "name": "operator",
          "type": "address"
        },
        {
          "indexed": false,
          "internalType": "bool",
          "name": "approved",
          "type": "bool"
        }
      ],
      "name": "ApprovalForAll",
      "type": "event"
    },
    {
      "anonymous": false,
      "inputs": [
        {
          "indexed": false,
          "internalType": "uint256",
          "name": "newFee",
          "type": "uint256"
        }
      ],
      "name": "DepositFeeChanged",
      "type": "event"
    },
    {
      "anonymous": false,
      "inputs": [
        {
          "indexed": true,
          "internalType": "address",
          "name": "manager",
          "type": "address"
        }
      ],
      "name": "ManagerAdded",
      "type": "event"
    },
    {
      "anonymous": false,
      "inputs": [
        {
          "indexed": true,
          "internalType": "address",
          "name": "manager",
          "type": "address"
        }
      ],
      "name": "ManagerRemoved",
      "type": "event"
    },
    {
      "anonymous": false,
      "inputs": [
        {
          "indexed": true,
          "internalType": "bytes32",
          "name": "_name",
          "type": "bytes32"
        },
        {
          "indexed": true,
          "internalType": "uint256",
          "name": "winningIndex",
          "type": "uint256"
        }
      ],
      "name": "StakeResolved",
      "type": "event"
    },
    {
      "anonymous": false,
      "inputs": [
        {
          "indexed": true,
          "internalType": "address",
          "name": "treasuryAddress",
          "type": "address"
        }
      ],
      "name": "StakeTreasuryCreated",
      "type": "event"
    },
    {
      "anonymous": false,
      "inputs": [
        {
          "indexed": true,
          "internalType": "address",
          "name": "tokenIn",
          "type": "address"
        },
        {
          "indexed": true,
          "internalType": "address",
          "name": "tokenOut",
          "type": "address"
        },
        {
          "indexed": true,
          "internalType": "uint256",
          "name": "amountIn",
          "type": "uint256"
        },
        {
          "indexed": false,
          "internalType": "uint256",
          "name": "amountOutMin",
          "type": "uint256"
        }
      ],
      "name": "SwapExactTokens",
      "type": "event"
    },
    {
      "anonymous": false,
      "inputs": [
        {
          "indexed": false,
          "internalType": "uint256",
          "name": "amountOut",
          "type": "uint256"
        }
      ],
      "name": "SwapExactTokensSuccess",
      "type": "event"
    },
    {
      "anonymous": false,
      "inputs": [
        {
          "indexed": true,
          "internalType": "address",
          "name": "recipient",
          "type": "address"
        },
        {
          "indexed": true,
          "internalType": "uint256",
          "name": "ticketID",
          "type": "uint256"
        },
        {
          "indexed": true,
          "internalType": "uint256",
          "name": "serviceDescriptor",
          "type": "uint256"
        }
      ],
      "name": "TicketIssued",
      "type": "event"
    },
    {
      "anonymous": false,
      "inputs": [
        {
          "indexed": true,
          "internalType": "address",
          "name": "token",
          "type": "address"
        }
      ],
      "name": "TokenAllowed",
      "type": "event"
    },
    {
      "anonymous": false,
      "inputs": [
        {
          "indexed": true,
          "internalType": "address",
          "name": "token",
          "type": "address"
        }
      ],
      "name": "TokenDisallowed",
      "type": "event"
    },
    {
      "anonymous": false,
      "inputs": [
        {
          "indexed": true,
          "internalType": "bytes32",
          "name": "_name",
          "type": "bytes32"
        },
        {
          "indexed": true,
          "internalType": "uint256",
          "name": "option",
          "type": "uint256"
        },
        {
          "indexed": true,
          "internalType": "uint256",
          "name": "totalLP",
          "type": "uint256"
        }
      ],
      "name": "TokensWagered",
      "type": "event"
    },
    {
      "anonymous": false,
      "inputs": [
        {
          "indexed": true,
          "internalType": "address",
          "name": "operator",
          "type": "address"
        },
        {
          "indexed": true,
          "internalType": "address",
          "name": "from",
          "type": "address"
        },
        {
          "indexed": true,
          "internalType": "address",
          "name": "to",
          "type": "address"
        },
        {
          "indexed": false,
          "internalType": "uint256[]",
          "name": "ids",
          "type": "uint256[]"
        },
        {
          "indexed": false,
          "internalType": "uint256[]",
          "name": "values",
          "type": "uint256[]"
        }
      ],
      "name": "TransferBatch",
      "type": "event"
    },
    {
      "anonymous": false,
      "inputs": [
        {
          "indexed": true,
          "internalType": "address",
          "name": "operator",
          "type": "address"
        },
        {
          "indexed": true,
          "internalType": "address",
          "name": "from",
          "type": "address"
        },
        {
          "indexed": true,
          "internalType": "address",
          "name": "to",
          "type": "address"
        },
        {
          "indexed": false,
          "internalType": "uint256",
          "name": "id",
          "type": "uint256"
        },
        {
          "indexed": false,
          "internalType": "uint256",
          "name": "value",
          "type": "uint256"
        }
      ],
      "name": "TransferSingle",
      "type": "event"
    },
    {
      "anonymous": false,
      "inputs": [
        {
          "indexed": false,
          "internalType": "string",
          "name": "value",
          "type": "string"
        },
        {
          "indexed": true,
          "internalType": "uint256",
          "name": "id",
          "type": "uint256"
        }
      ],
      "name": "URI",
      "type": "event"
    },
    {
      "anonymous": false,
      "inputs": [
        {
          "indexed": false,
          "internalType": "uint256",
          "name": "newFee",
          "type": "uint256"
        }
      ],
      "name": "WithdrawFeeChanged",
      "type": "event"
    },
    {
      "anonymous": false,
      "inputs": [
        {
          "indexed": true,
          "internalType": "address",
          "name": "user",
          "type": "address"
        },
        {
          "indexed": true,
          "internalType": "address",
          "name": "token",
          "type": "address"
        },
        {
          "indexed": true,
          "internalType": "uint256",
          "name": "amount",
          "type": "uint256"
        }
      ],
      "name": "WithdrawalApproved",
      "type": "event"
    },
    {
      "anonymous": false,
      "inputs": [
        {
          "indexed": true,
          "internalType": "address",
          "name": "user",
          "type": "address"
        },
        {
          "indexed": true,
          "internalType": "address",
          "name": "token",
          "type": "address"
        },
        {
          "indexed": true,
          "internalType": "uint256",
          "name": "amount",
          "type": "uint256"
        }
      ],
      "name": "WithdrawalRejected",
      "type": "event"
    },
    {
      "anonymous": false,
      "inputs": [
        {
          "indexed": true,
          "internalType": "address",
          "name": "user",
          "type": "address"
        },
        {
          "indexed": true,
          "internalType": "address",
          "name": "token",
          "type": "address"
        },
        {
          "indexed": true,
          "internalType": "uint256",
          "name": "amount",
          "type": "uint256"
        }
      ],
      "name": "WithdrawalRequested",
      "type": "event"
    },
    {
      "anonymous": false,
      "inputs": [
        {
          "indexed": true,
          "internalType": "address",
          "name": "user",
          "type": "address"
        },
        {
          "indexed": true,
          "internalType": "address",
          "name": "token",
          "type": "address"
        },
        {
          "indexed": true,
          "internalType": "uint256",
          "name": "amount",
          "type": "uint256"
        }
      ],
      "name": "Withdrawn",
      "type": "event"
    },
    {
      "inputs": [
        {
          "internalType": "address",
          "name": "account",
          "type": "address"
        },
        {
          "internalType": "uint256",
          "name": "id",
          "type": "uint256"
        }
      ],
      "name": "balanceOf",
      "outputs": [
        {
          "internalType": "uint256",
          "name": "",
          "type": "uint256"
        }
      ],
      "stateMutability": "view",
      "type": "function"
    },
    {
      "inputs": [
        {
          "internalType": "address[]",
          "name": "accounts",
          "type": "address[]"
        },
        {
          "internalType": "uint256[]",
          "name": "ids",
          "type": "uint256[]"
        }
      ],
      "name": "balanceOfBatch",
      "outputs": [
        {
          "internalType": "uint256[]",
          "name": "",
          "type": "uint256[]"
        }
      ],
      "stateMutability": "view",
      "type": "function"
    },
    {
      "inputs": [
        {
          "internalType": "address",
          "name": "sendTo",
          "type": "address"
        }
      ],
      "name": "cashOut",
      "outputs": [],
      "stateMutability": "nonpayable",
      "type": "function"
    },
    {
      "inputs": [],
      "name": "companyDescriptor",
      "outputs": [
        {
          "internalType": "uint256",
          "name": "",
          "type": "uint256"
        }
      ],
      "stateMutability": "view",
      "type": "function"
    },
    {
      "inputs": [
        {
          "internalType": "uint256",
          "name": "option",
          "type": "uint256"
        },
        {
          "internalType": "address",
          "name": "erc20Contract",
          "type": "address"
        },
        {
          "internalType": "uint256",
          "name": "stakedAmount",
          "type": "uint256"
        }
      ],
      "name": "create_stake",
      "outputs": [],
      "stateMutability": "nonpayable",
      "type": "function"
    },
    {
      "inputs": [
        {
          "internalType": "address",
          "name": "_wallet",
          "type": "address"
        },
        {
          "internalType": "address",
          "name": "erc20Contract",
          "type": "address"
        }
      ],
      "name": "deposits",
      "outputs": [
        {
          "internalType": "uint256",
          "name": "",
          "type": "uint256"
        }
      ],
      "stateMutability": "view",
      "type": "function"
    },
    {
      "inputs": [
        {
          "internalType": "uint256",
          "name": "id",
          "type": "uint256"
        }
      ],
      "name": "exists",
      "outputs": [
        {
          "internalType": "bool",
          "name": "",
          "type": "bool"
        }
      ],
      "stateMutability": "view",
      "type": "function"
    },
    {
      "inputs": [
        {
          "internalType": "uint256",
          "name": "_option",
          "type": "uint256"
        }
      ],
      "name": "getRatio",
      "outputs": [
        {
          "internalType": "uint256[2]",
          "name": "ratio",
          "type": "uint256[2]"
        }
      ],
      "stateMutability": "view",
      "type": "function"
    },
    {
      "inputs": [],
      "name": "getRatios",
      "outputs": [
        {
          "internalType": "uint256[]",
          "name": "",
          "type": "uint256[]"
        }
      ],
      "stateMutability": "view",
      "type": "function"
    },
    {
      "inputs": [],
      "name": "getUniswapRouter",
      "outputs": [
        {
          "internalType": "address",
          "name": "",
          "type": "address"
        }
      ],
      "stateMutability": "view",
      "type": "function"
    },
    {
      "inputs": [
        {
          "internalType": "address",
          "name": "account",
          "type": "address"
        },
        {
          "internalType": "address",
          "name": "operator",
          "type": "address"
        }
      ],
      "name": "isApprovedForAll",
      "outputs": [
        {
          "internalType": "bool",
          "name": "",
          "type": "bool"
        }
      ],
      "stateMutability": "view",
      "type": "function"
    },
    {
      "inputs": [],
      "name": "owner",
      "outputs": [
        {
          "internalType": "address",
          "name": "",
          "type": "address"
        }
      ],
      "stateMutability": "view",
      "type": "function"
    },
    {
      "inputs": [
        {
          "internalType": "address",
          "name": "from",
          "type": "address"
        },
        {
          "internalType": "address",
          "name": "to",
          "type": "address"
        },
        {
          "internalType": "uint256[]",
          "name": "ids",
          "type": "uint256[]"
        },
        {
          "internalType": "uint256[]",
          "name": "values",
          "type": "uint256[]"
        },
        {
          "internalType": "bytes",
          "name": "data",
          "type": "bytes"
        }
      ],
      "name": "safeBatchTransferFrom",
      "outputs": [],
      "stateMutability": "nonpayable",
      "type": "function"
    },
    {
      "inputs": [
        {
          "internalType": "address",
          "name": "from",
          "type": "address"
        },
        {
          "internalType": "address",
          "name": "to",
          "type": "address"
        },
        {
          "internalType": "uint256",
          "name": "id",
          "type": "uint256"
        },
        {
          "internalType": "uint256",
          "name": "value",
          "type": "uint256"
        },
        {
          "internalType": "bytes",
          "name": "data",
          "type": "bytes"
        }
      ],
      "name": "safeTransferFrom",
      "outputs": [],
      "stateMutability": "nonpayable",
      "type": "function"
    },
    {
      "inputs": [],
      "name": "serviceDescriptor",
      "outputs": [
        {
          "internalType": "uint256",
          "name": "",
          "type": "uint256"
        }
      ],
      "stateMutability": "view",
      "type": "function"
    },
    {
      "inputs": [
        {
          "internalType": "address",
          "name": "operator",
          "type": "address"
        },
        {
          "internalType": "bool",
          "name": "approved",
          "type": "bool"
        }
      ],
      "name": "setApprovalForAll",
      "outputs": [],
      "stateMutability": "nonpayable",
      "type": "function"
    },
    {
      "inputs": [
        {
          "internalType": "uint256",
          "name": "_fee",
          "type": "uint256"
        }
      ],
      "name": "setDepositFee",
      "outputs": [],
      "stateMutability": "nonpayable",
      "type": "function"
    },
    {
      "inputs": [
        {
          "internalType": "address",
          "name": "_manager",
          "type": "address"
        },
        {
          "internalType": "bool",
          "name": "_status",
          "type": "bool"
        }
      ],
      "name": "setManager",
      "outputs": [],
      "stateMutability": "nonpayable",
      "type": "function"
    },
    {
      "inputs": [
        {
          "internalType": "address",
          "name": "_usdc",
          "type": "address"
        }
      ],
      "name": "setUSDCAddress",
      "outputs": [],
      "stateMutability": "nonpayable",
      "type": "function"
    },
    {
      "inputs": [
        {
          "internalType": "uint256",
          "name": "winningIndex",
          "type": "uint256"
        }
      ],
      "name": "setWinner",
      "outputs": [],
      "stateMutability": "nonpayable",
      "type": "function"
    },
    {
      "inputs": [
        {
          "internalType": "uint256",
          "name": "_fee",
          "type": "uint256"
        }
      ],
      "name": "setWithdrawFee",
      "outputs": [],
      "stateMutability": "nonpayable",
      "type": "function"
    },
    {
      "inputs": [
        {
          "internalType": "bytes4",
          "name": "interfaceId",
          "type": "bytes4"
        }
      ],
      "name": "supportsInterface",
      "outputs": [
        {
          "internalType": "bool",
          "name": "",
          "type": "bool"
        }
      ],
      "stateMutability": "view",
      "type": "function"
    },
    {
      "inputs": [],
      "name": "totalSupply",
      "outputs": [
        {
          "internalType": "uint256",
          "name": "",
          "type": "uint256"
        }
      ],
      "stateMutability": "view",
      "type": "function"
    },
    {
      "inputs": [
        {
          "internalType": "uint256",
          "name": "id",
          "type": "uint256"
        }
      ],
      "name": "totalSupply",
      "outputs": [
        {
          "internalType": "uint256",
          "name": "",
          "type": "uint256"
        }
      ],
      "stateMutability": "view",
      "type": "function"
    },
    {
      "inputs": [
        {
          "internalType": "uint256",
          "name": "",
          "type": "uint256"
        }
      ],
      "name": "uri",
      "outputs": [
        {
          "internalType": "string",
          "name": "",
          "type": "string"
        }
      ],
      "stateMutability": "view",
      "type": "function"
    }
  ],
  "bytecode": "0x60e0604052602b6080818152906200362460a03960069062000022908262000403565b503480156200003057600080fd5b506040516200364f3803806200364f83398101604081905262000053916200051b565b6006805462000062906200031f565b80601f016020809104026020016040519081016040528092919081815260200182805462000090906200031f565b8015620000e15780601f10620000b557610100808354040283529160200191620000e1565b820191906000526020600020905b815481529060010190602001808311620000c357829003601f168201915b5050600160005550620000f891508290506200027a565b5060078054336001600160a01b031991821617909155600c805482166001600160a01b0386811691909117909155600d80548316858316179055600b80549092169086161790556000600e819055600f5561080360258190556200016190600160fb1b620005b5565b6026556021859055600060128190556005601355601481905560155560238190556200018f816002620005cb565b6001600160401b03811115620001a957620001a9620002f3565b604051908082528060200260200182016040528015620001d3578160200160208202803683370190505b508051620001ea916024916020909101906200028c565b5060005b602354620001fe906002620005cb565b8110156200026e5780602482815481106200021d576200021d620005ed565b600091825260208220019190915560246200023a836001620005b5565b815481106200024d576200024d620005ed565b60009182526020909120015562000266600282620005b5565b9050620001ee565b50505050505062000603565b600362000288828262000403565b5050565b828054828255906000526020600020908101928215620002ca579160200282015b82811115620002ca578251825591602001919060010190620002ad565b50620002d8929150620002dc565b5090565b5b80821115620002d85760008155600101620002dd565b634e487b7160e01b600052604160045260246000fd5b634e487b7160e01b600052602260045260246000fd5b6002810460018216806200033457607f821691505b60208210810362000349576200034962000309565b50919050565b6000620003606200035d8381565b90565b92915050565b62000371836200034f565b815460001960089490940293841b1916921b91909117905550565b60006200039b81848462000366565b505050565b818110156200028857620003b66000826200038c565b600101620003a0565b601f8211156200039b576000818152602090206020601f85010481016020851015620003e85750805b620003fc6020601f860104830182620003a0565b5050505050565b81516001600160401b038111156200041f576200041f620002f3565b6200042b82546200031f565b62000438828285620003bf565b6020601f8311600181146200046f5760008415620004565750858201515b600019600886021c1981166002860217865550620004cb565b600085815260208120601f198616915b82811015620004a157888501518255602094850194600190920191016200047f565b86831015620004be5784890151600019601f89166008021c191682555b6001600288020188555050505b505050505050565b805b8114620004e157600080fd5b50565b80516200036081620004d3565b60006001600160a01b03821662000360565b620004d581620004f1565b8051620003608162000503565b600080600080600060a08688031215620005385762000538600080fd5b6000620005468888620004e4565b955050602062000559888289016200050e565b94505060406200056c888289016200050e565b93505060606200057f888289016200050e565b92505060806200059288828901620004e4565b9150509295509295909350565b634e487b7160e01b600052601160045260246000fd5b808201808211156200036057620003606200059f565b818102808215838204851417620005e657620005e66200059f565b5092915050565b634e487b7160e01b600052603260045260246000fd5b61301180620006136000396000f3fe608060405234801561001057600080fd5b50600436106101725760003560e01c806375121321116100de578063b13c86a311610097578063d8a7136411610071578063d8a713641461037b578063e985e9c51461038e578063eb3ab433146103a1578063f242432a146103aa57600080fd5b8063b13c86a314610340578063b6ac642a14610348578063bd85b0391461035b57600080fd5b806375121321146102a85780638da5cb5b146102bb5780638f601f66146102ce578063a22cb46514610307578063a5e90eee1461031a578063aaf5bfc31461032d57600080fd5b80632eb2c2d6116101305780632eb2c2d61461020657806346a62eaf14610219578063490ae210146102395780634e1273f41461024c5780634f558e791461026c578063524900b51461028e57600080fd5b8062fdd58e1461017757806301ffc9a7146101a05780630df71602146101c05780630e89341c146101d557806318160ddd146101f5578063189c92b9146101fd575b600080fd5b61018a610185366004611f80565b6103bd565b6040516101979190611fc5565b60405180910390f35b6101b36101ae366004611fee565b6103e7565b6040516101979190612017565b6101d36101ce366004612025565b610437565b005b6101e86101e3366004612025565b6104f8565b604051610197919061209c565b60055461018a565b61018a60265481565b6101d361021436600461223e565b61058c565b61022c610227366004612025565b6105e4565b6040516101979190612347565b6101d3610247366004612025565b61066b565b61025f61025a3660046123ca565b610715565b604051610197919061247b565b6101b361027a366004612025565b600090815260046020526040902054151590565b6009546001600160a01b03165b6040516101979190612495565b6101d36102b63660046124a3565b6107e3565b60075461029b906001600160a01b031681565b61018a6102dc3660046124f3565b6001600160a01b03918216600090815260116020908152604080832093909416825291909152205490565b6101d3610315366004612539565b610ac6565b6101d3610328366004612539565b610ad5565b6101d361033b36600461256c565b610c18565b61025f610c83565b6101d3610356366004612025565b610cdb565b61018a610369366004612025565b60009081526004602052604090205490565b6101d361038936600461256c565b610d7a565b6101b361039c3660046124f3565b610ffd565b61018a60255481565b6101d36103b836600461258d565b61102b565b60008181526001602090815260408083206001600160a01b03861684529091529020545b92915050565b60006001600160e01b03198216636cdb3d1360e11b148061041857506001600160e01b031982166303a24d0760e21b145b806103e157506301ffc9a760e01b6001600160e01b03198316146103e1565b6007546001600160a01b031633148061046457503360009081526018602052604090205460ff1615156001145b6104895760405162461bcd60e51b815260040161048090612615565b60405180910390fd5b602254156104a95760405162461bcd60e51b815260040161048090612659565b6023546104b6908261267f565b90506104c38160646126a9565b6022556021546040518291907fca7b1fff94ccaaa3ed0d36fdb1d750075e1236e444d4e0b61a8396334cac928890600090a350565b606060038054610507906126d2565b80601f0160208091040260200160405190810160405280929190818152602001828054610533906126d2565b80156105805780601f1061055557610100808354040283529160200191610580565b820191906000526020600020905b81548152906001019060200180831161056357829003601f168201915b50505050509050919050565b336001600160a01b03861681148015906105ad57506105ab8682610ffd565b155b156105cf57808660405163711bec9160e11b81526004016104809291906126fe565b6105dc868686868661107b565b505050505050565b6105ec611f21565b61062b6040518060400160405280601d81526020017f66696e64696e6720726174696f20666f72206f7074696f6e203d202573000000815250836110e2565b600554815260008281526004602052604090205460208201819052815110156106665760405162461bcd60e51b815260040161048090612773565b919050565b6007546001600160a01b031633148061069857503360009081526018602052604090205460ff1615156001145b6106b45760405162461bcd60e51b815260040161048090612615565b60648111156106d55760405162461bcd60e51b8152600401610480906127a9565b60128190556040517f2a6f1084651542f3142c70f4c43c096d016a8b517c063660b146268f646ea43a9061070a908390611fc5565b60405180910390a150565b6060815183511461073f5781518351604051635b05999160e01b81526004016104809291906127b9565b6000835167ffffffffffffffff81111561075b5761075b6120ad565b604051908082528060200260200182016040528015610784578160200160208202803683370190505b50905060005b84518110156107db576020808202860101516107ae906020808402870101516103bd565b8282815181106107c0576107c0612719565b60209081029190910101526107d4816127d4565b905061078a565b509392505050565b61080760405180606001604052806000815260200160008152602001600081525090565b604051635eee785d60e11b815273__$744e6baa1f687d86a909216607c3c50c82$__9063bddcf0ba906108419060089087906004016127ee565b602060405180830381865af415801561085e573d6000803e3d6000fd5b505050506040513d601f19601f820116820180604052508101906108829190612805565b61089e5760405162461bcd60e51b81526004016104809061285a565b602254156108be5760405162461bcd60e51b815260040161048090612659565b6023546108cb908561267f565b6040516323b872dd60e01b81529094506001600160a01b038416906323b872dd906108fe9033903090879060040161286a565b6020604051808303816000875af115801561091d573d6000803e3d6000fd5b505050506040513d601f19601f820116820180604052508101906109419190612805565b61095d5760405162461bcd60e51b8152600401610480906128b8565b61096960088484611127565b600d546021548251604051632fe3df7360e01b81529394506001600160a01b0390921692632fe3df73926109a5923392909189916004016128c8565b6020604051808303816000875af11580156109c4573d6000803e3d6000fd5b505050506040513d601f19601f820116820180604052508101906109e89190612908565b5080516109f9906008908590611274565b600081602001519050610a1d338683604051806020016040528060008152506113af565b600085815260046020526040902054806024610a3a886002612929565b610a459060016126a9565b81548110610a5557610a55612719565b9060005260206000200181905550610a8a604051806060016040528060258152602001612fb76025913987856020015161140c565b60208301516021546040518891907fe79d0fce8d68f798b274c3a8025b84bf7ac69a004b1946384504d5d0819f080c90600090a4505050505050565b610ad1338383611458565b5050565b6007546001600160a01b03163314610aff5760405162461bcd60e51b815260040161048090612968565b8015610b43576001600160a01b03821660009081526018602052604090205460ff1615610b3e5760405162461bcd60e51b8152600401610480906129ac565b610b7b565b6001600160a01b03821660009081526018602052604090205460ff16610b7b5760405162461bcd60e51b8152600401610480906129f0565b6001600160a01b0382166000908152601860205260409020805460ff19168215801591909117909155610be0576040516001600160a01b038316907f3b4a40cccf2058c593542587329dd385be4f0b588db5471fbd9598e56dd7093a90600090a25050565b6040516001600160a01b038316907fef69f7d97228658c92417be1b16b19058315de71fecb435d07b7d23728b6bd3190600090a25050565b6007546001600160a01b0316331480610c4557503360009081526018602052604090205460ff1615156001145b610c615760405162461bcd60e51b815260040161048090612615565b600b80546001600160a01b0319166001600160a01b0392909216919091179055565b60606024805480602002602001604051908101604052809291908181526020018280548015610cd157602002820191906000526020600020905b815481526020019060010190808311610cbd575b5050505050905090565b6007546001600160a01b0316331480610d0857503360009081526018602052604090205460ff1615156001145b610d245760405162461bcd60e51b815260040161048090612615565b6064811115610d455760405162461bcd60e51b8152600401610480906127a9565b60138190556040517fef51b055f1ac1490e0c230364c65b0a9eca534656954023b56053b78461678e49061070a908390611fc5565b602254600003610d9c5760405162461bcd60e51b815260040161048090612a34565b60006064602254610dad9190612a44565b90506000610dbb33836103bd565b600d5460215460405163019cfda760e61b81529293506000926001600160a01b039092169163673f69c091610df291600401611fc5565b602060405180830381865afa158015610e0f573d6000803e3d6000fd5b505050506040513d601f19601f82011682018060405250810190610e339190612908565b600084815260046020526040812054919250819003610e645760405162461bcd60e51b815260040161048090612a8b565b600081610e718486612929565b610e7b9190612a9b565b905080600003610e9d5760405162461bcd60e51b815260040161048090612af3565b83821015610ebd5760405162461bcd60e51b815260040161048090612b2a565b6024610eca866002612929565b610ed59060016126a9565b81548110610ee557610ee5612719565b90600052602060002001548214610f0e5760405162461bcd60e51b815260040161048090612b64565b836024610f1c876002612929565b610f279060016126a9565b81548110610f3757610f37612719565b906000526020600020016000828254610f509190612a44565b90915550610f6190503386866114f2565b600b54610f799087906001600160a01b03168361155a565b600d5460215460405163377f548960e01b81526001600160a01b039092169163377f548991610fad91339190600401612b74565b6000604051808303816000875af1158015610fcc573d6000803e3d6000fd5b505050506040513d6000823e601f3d908101601f19168201604052610ff49190810190612bf7565b50505050505050565b6001600160a01b03918216600090815260026020908152604080832093909416825291909152205460ff1690565b336001600160a01b038616811480159061104c575061104a8682610ffd565b155b1561106e57808660405163711bec9160e11b81526004016104809291906126fe565b6105dc86868686866116f5565b6001600160a01b0384166110a5576000604051632bfa23e760e11b81526004016104809190612495565b6001600160a01b0385166110ce576000604051626a0d4560e21b81526004016104809190612495565b6110db8585858585611776565b5050505050565b610ad182826040516024016110f8929190612c32565b60408051601f198184030181529190526020810180516001600160e01b0316632d839cb360e21b1790526117c9565b61114b60405180606001604052806000815260200160008152602001600081525090565b60038401546001600160a01b0384811691161461117a5760405162461bcd60e51b815260040161048090612c7a565b611189848386600a01546117d5565b6040820181905261119a9083612a44565b8082526111aa90859085906117f5565b602082018190526006850180546000906111c59084906126a9565b90915550506040808201516001600160a01b0385166000908152601387016020529182208054919290916111fa9084906126a9565b9091555050805133600090815260098601602090815260408083206001600160a01b0388168452909152812080549091906112369084906126a9565b909155505080516001600160a01b0384166000908152600e86016020526040812080549091906112679084906126a9565b90915550505b9392505050565b60038301546001600160a01b038381169116146112a35760405162461bcd60e51b815260040161048090612cb4565b6040516370a0823160e01b815281906001600160a01b038416906370a08231906112d1903090600401612495565b602060405180830381865afa1580156112ee573d6000803e3d6000fd5b505050506040513d601f19601f820116820180604052508101906113129190612908565b10156113305760405162461bcd60e51b815260040161048090612d09565b600583015460405163a9059cbb60e01b81526001600160a01b038481169263a9059cbb9261136692909116908590600401612b74565b6020604051808303816000875af1158015611385573d6000803e3d6000fd5b505050506040513d601f19601f820116820180604052508101906113a99190612805565b50505050565b6001600160a01b0384166113d9576000604051632bfa23e760e11b81526004016104809190612495565b604080516001808252602082018690528183019081526060820185905260808201909252906105dc600087848487611776565b61145383838360405160240161142493929190612d19565b60408051601f198184030181529190526020810180516001600160e01b031663ca47c4eb60e01b1790526117c9565b505050565b6001600160a01b03821661148157600060405162ced3e160e81b81526004016104809190612495565b6001600160a01b0383811660008181526002602090815260408083209487168084529490915290819020805460ff1916851515179055517f17307eab39ab6107e8899845ad3d59bd9653f200f220920489ca2b5937696c31906114e5908590612017565b60405180910390a3505050565b6001600160a01b03831661151b576000604051626a0d4560e21b81526004016104809190612495565b604080516001808252602082018590528183019081526060820184905260a082019092526000608082018181529192916110db91879185908590611776565b61156261184b565b600b5482906001600160a01b038083169116146115915760405162461bcd60e51b815260040161048090612c7a565b600d5460215460405163019cfda760e61b815284926001600160a01b03169163673f69c0916115c39190600401611fc5565b602060405180830381865afa1580156115e0573d6000803e3d6000fd5b505050506040513d601f19601f820116820180604052508101906116049190612908565b10156116225760405162461bcd60e51b815260040161048090612d79565b6013546000906116369060089085906117d5565b905060006116448285612a44565b600d546021546040516378ce040160e01b81529293506001600160a01b03909116916378ce04019161167e91899086908c90600401612d89565b600060405180830381600087803b15801561169857600080fd5b505af11580156116ac573d6000803e3d6000fd5b50506040518392506001600160a01b038816915033907fd1c19fbcd4551a5edfb66d43d2e337c04837afda3482b42bdf569a8fccdae5fb90600090a45050506114536001600055565b6001600160a01b03841661171f576000604051632bfa23e760e11b81526004016104809190612495565b6001600160a01b038516611748576000604051626a0d4560e21b81526004016104809190612495565b60408051600180825260208201869052818301908152606082018590526080820190925290610ff487878484875b61178285858585611875565b6001600160a01b038416156110db57825133906001036117bb57602084810151908401516117b48389898585896119cf565b50506105dc565b6105dc818787878787611ae1565b6117d281611bc1565b50565b600060646117e38385612929565b6117ed9190612a9b565b949350505050565b60038301546000906001600160a01b039081169084160361181757508061126d565b60006118238585611be2565b60208101518151919250906118389085612929565b6118429190612a9b565b95945050505050565b60026000540361186e57604051633ee5aeb560e01b815260040160405180910390fd5b6002600055565b61188184848484611d26565b6001600160a01b038416611934576000805b835181101561191a5760008382815181106118b0576118b0612719565b6020026020010151905080600460008785815181106118d1576118d1612719565b6020026020010151815260200190815260200160002060008282546118f691906126a9565b90915550611906905081846126a9565b92505080611913906127d4565b9050611893565b50806005600082825461192d91906126a9565b9091555050505b6001600160a01b0383166113a9576000805b83518110156119be57600083828151811061196357611963612719565b60200260200101519050806004600087858151811061198457611984612719565b6020026020010151815260200190815260200160002060008282540392505081905550808301925050806119b7906127d4565b9050611946565b506005805491909103905550505050565b6001600160a01b0384163b156105dc5760405163f23a6e6160e01b81526001600160a01b0385169063f23a6e6190611a139089908990889088908890600401612dbe565b6020604051808303816000875af1925050508015611a4e575060408051601f3d908101601f19168201909252611a4b91810190612e1b565b60015b611aae573d808015611a7c576040519150601f19603f3d011682016040523d82523d6000602084013e611a81565b606091505b508051600003611aa65784604051632bfa23e760e11b81526004016104809190612495565b805181602001fd5b6001600160e01b0319811663f23a6e6160e01b14610ff45784604051632bfa23e760e11b81526004016104809190612495565b6001600160a01b0384163b156105dc5760405163bc197c8160e01b81526001600160a01b0385169063bc197c8190611b259089908990889088908890600401612e3c565b6020604051808303816000875af1925050508015611b60575060408051601f3d908101601f19168201909252611b5d91810190612e1b565b60015b611b8e573d808015611a7c576040519150601f19603f3d011682016040523d82523d6000602084013e611a81565b6001600160e01b0319811663bc197c8160e01b14610ff45784604051632bfa23e760e11b81526004016104809190612495565b60006a636f6e736f6c652e6c6f679050600080835160208501845afa505050565b611bea611f21565b6002830154600384015460405163e6a4390560e01b81526001600160a01b0392831692600092849263e6a4390592611c2892169088906004016126fe565b602060405180830381865afa158015611c45573d6000803e3d6000fd5b505050506040513d601f19601f82011682018060405250810190611c699190612e9c565b90506001600160a01b038116611c915760405162461bcd60e51b815260040161048090612ee2565b6000819050600080826001600160a01b0316630902f1ac6040518163ffffffff1660e01b8152600401606060405180830381865afa158015611cd7573d6000803e3d6000fd5b505050506040513d601f19601f82011682018060405250810190611cfb9190612f23565b50604080518082019091526001600160701b0392831681529116602082015298975050505050505050565b8051825114611d4e5781518151604051635b05999160e01b81526004016104809291906127b9565b3360005b8351811015611e4b576020818102858101820151908501909101516001600160a01b03881615611df15760008281526001602090815260408083206001600160a01b038c16845290915290205481811015611dc857888183856040516303dee4c560e01b81526004016104809493929190612f69565b60008381526001602090815260408083206001600160a01b038d16845290915290209082900390555b6001600160a01b03871615611e385760008281526001602090815260408083206001600160a01b038b16845290915281208054839290611e329084906126a9565b90915550505b505080611e44906127d4565b9050611d52565b508251600103611ec35760208301516000906020840151909150856001600160a01b0316876001600160a01b0316846001600160a01b03167fc3d58168c5ae7397731d063d5bbf3d657854427343f4c083240f7aacaa2d0f628585604051611eb49291906127b9565b60405180910390a450506110db565b836001600160a01b0316856001600160a01b0316826001600160a01b03167f4a39dc06d4c0dbc64b70af90fd698a233a518aa5d07e595d983b8c0526c8f7fb8686604051611f12929190612f91565b60405180910390a45050505050565b60405180604001604052806002906020820280368337509192915050565b60006001600160a01b0382166103e1565b611f5981611f3f565b81146117d257600080fd5b80356103e181611f50565b80611f59565b80356103e181611f6f565b60008060408385031215611f9657611f96600080fd5b6000611fa28585611f64565b9250506020611fb385828601611f75565b9150509250929050565b805b82525050565b602081016103e18284611fbd565b6001600160e01b03198116611f59565b80356103e181611fd3565b60006020828403121561200357612003600080fd5b60006117ed8484611fe3565b801515611fbf565b602081016103e1828461200f565b60006020828403121561203a5761203a600080fd5b60006117ed8484611f75565b60005b83811015612061578181015183820152602001612049565b50506000910152565b6000612074825190565b80845260208401935061208b818560208601612046565b601f01601f19169290920192915050565b6020808252810161126d818461206a565b634e487b7160e01b600052604160045260246000fd5b601f19601f830116810181811067ffffffffffffffff821117156120e9576120e96120ad565b6040525050565b60006120fb60405190565b905061066682826120c3565b600067ffffffffffffffff821115612121576121216120ad565b5060209081020190565b600061213e61213984612107565b6120f0565b8381529050602080820190840283018581111561215d5761215d600080fd5b835b8181101561218157806121728882611f75565b8452506020928301920161215f565b5050509392505050565b600082601f83011261219f5761219f600080fd5b81356117ed84826020860161212b565b600067ffffffffffffffff8211156121c9576121c96120ad565b601f19601f83011660200192915050565b82818337506000910152565b60006121f4612139846121af565b90508281526020810184848401111561220f5761220f600080fd5b6107db8482856121da565b600082601f83011261222e5761222e600080fd5b81356117ed8482602086016121e6565b600080600080600060a0868803121561225957612259600080fd5b60006122658888611f64565b955050602061227688828901611f64565b945050604086013567ffffffffffffffff81111561229657612296600080fd5b6122a28882890161218b565b935050606086013567ffffffffffffffff8111156122c2576122c2600080fd5b6122ce8882890161218b565b925050608086013567ffffffffffffffff8111156122ee576122ee600080fd5b6122fa8882890161221a565b9150509295509295909350565b60006123138383611fbd565b505060200190565b6002818060005b838110156105dc5781516123368782612307565b965060208301925050600101612322565b604081016103e1828461231b565b600061236361213984612107565b8381529050602080820190840283018581111561238257612382600080fd5b835b8181101561218157806123978882611f64565b84525060209283019201612384565b600082601f8301126123ba576123ba600080fd5b81356117ed848260208601612355565b600080604083850312156123e0576123e0600080fd5b823567ffffffffffffffff8111156123fa576123fa600080fd5b612406858286016123a6565b925050602083013567ffffffffffffffff81111561242657612426600080fd5b611fb38582860161218b565b600061243c825190565b80845260209384019383018060005b8381101561247057815161245f8882612307565b97506020830192505060010161244b565b509495945050505050565b6020808252810161126d8184612432565b611fbf81611f3f565b602081016103e1828461248c565b6000806000606084860312156124bb576124bb600080fd5b60006124c78686611f75565b93505060206124d886828701611f64565b92505060406124e986828701611f75565b9150509250925092565b6000806040838503121561250957612509600080fd5b60006125158585611f64565b9250506020611fb385828601611f64565b801515611f59565b80356103e181612526565b6000806040838503121561254f5761254f600080fd5b600061255b8585611f64565b9250506020611fb38582860161252e565b60006020828403121561258157612581600080fd5b60006117ed8484611f64565b600080600080600060a086880312156125a8576125a8600080fd5b60006125b48888611f64565b95505060206125c588828901611f64565b94505060406125d688828901611f75565b93505060606122ce88828901611f75565b60148152600060208201732737ba1037bbb732b91037b91036b0b730b3b2b960611b815291505b5060200190565b602080825281016103e1816125e7565b601981526000602082017f77696e6e657220616c72656164792064657465726d696e6564000000000000008152915061260e565b602080825281016103e181612625565b634e487b7160e01b600052601260045260246000fd5b60008261268e5761268e612669565b500690565b634e487b7160e01b600052601160045260246000fd5b808201808211156103e1576103e1612693565b634e487b7160e01b600052602260045260246000fd5b6002810460018216806126e657607f821691505b6020821081036126f8576126f86126bc565b50919050565b6040810161270c828561248c565b61126d602083018461248c565b634e487b7160e01b600052603260045260246000fd5b602481526000602082017f676574526174696f3a20746f74616c537570706c79206e6f74207375666669638152631a595b9d60e21b602082015291505b5060400190565b602080825281016103e18161272f565b600f81526000602082016e08ccaca40d2e640e8dede40d0d2ced608b1b8152915061260e565b602080825281016103e181612783565b604081016127c78285611fbd565b61126d6020830184611fbd565b600060001982036127e7576127e7612693565b5060010190565b8281526040810161270c565b80516103e181612526565b60006020828403121561281a5761281a600080fd5b60006117ed84846127fa565b601f81526000602082017f7468697320746f6b656e206973206e6f742061636365707465642068657265008152915061260e565b602080825281016103e181612826565b60608101612878828661248c565b612885602083018561248c565b6117ed6040830184611fbd565b600f81526000602082016e151c985b9cd9995c8819985a5b1959608a1b8152915061260e565b602080825281016103e181612892565b608081016128d6828761248c565b6128e36020830186611fbd565b6128f0604083018561248c565b6118426060830184611fbd565b80516103e181611f6f565b60006020828403121561291d5761291d600080fd5b60006117ed84846128fd565b81810280821583820485141761294157612941612693565b5092915050565b600981526000602082016837b7363ca7bbb732b960b91b8152915061260e565b602080825281016103e181612948565b601c81526000602082017f4164647265737320697320616c72656164792061206d616e61676572000000008152915061260e565b602080825281016103e181612978565b601881526000602082017f41646472657373206973206e6f742061206d616e6167657200000000000000008152915061260e565b602080825281016103e1816129bc565b601981526000602082017f77696e6e6572206e6f74207965742064657465726d696e6564000000000000008152915061260e565b602080825281016103e181612a00565b818103818111156103e1576103e1612693565b601881526000602082017f746f6b656e206e6f7420696e2063697263756c6174696f6e00000000000000008152915061260e565b602080825281016103e181612a57565b600082612aaa57612aaa612669565b500490565b602781526000602082017f796f752068617665206e6f207374616b6520696e207468652077696e6e696e678152661037b83a34b7b760c91b6020820152915061276c565b602080825281016103e181612aaf565b601081526000602082016f636173684f7574206f766572666c6f7760801b8152915061260e565b602080825281016103e181612b03565b601381526000602082017218d85cda13dd5d081c985d1a5bc8191c9a599d606a1b8152915061260e565b602080825281016103e181612b3a565b604081016127c7828561248c565b6000612b9061213984612107565b83815290506020808201908402830185811115612baf57612baf600080fd5b835b818110156121815780612bc488826128fd565b84525060209283019201612bb1565b600082601f830112612be757612be7600080fd5b81516117ed848260208601612b82565b600060208284031215612c0c57612c0c600080fd5b815167ffffffffffffffff811115612c2657612c26600080fd5b6117ed84828501612bd3565b60408082528101612c43818561206a565b905061126d6020830184611fbd565b6011815260006020820170151bdad95b881b9bdd08185b1b1bddd959607a1b8152915061260e565b602080825281016103e181612c52565b60138152600060208201722ab735b737bbb71039ba30b136329031b7b4b760691b8152915061260e565b602080825281016103e181612c8a565b602881526000602082017f4d616e6167657220646f6573206e6f7420686176652073756666696369656e748152672062616c616e636560c01b6020820152915061276c565b602080825281016103e181612cc4565b60608082528101612d2a818661206a565b90506128856020830185611fbd565b602381526000602082017f496e73756666696369656e742062616c616e636520696e2054726561737572798152622634b160e91b6020820152915061276c565b602080825281016103e181612d39565b60808101612d978287611fbd565b612da4602083018661248c565b612db16040830185611fbd565b611842606083018461248c565b60a08101612dcc828861248c565b612dd9602083018761248c565b612de66040830186611fbd565b612df36060830185611fbd565b8181036080830152612e05818461206a565b979650505050505050565b80516103e181611fd3565b600060208284031215612e3057612e30600080fd5b60006117ed8484612e10565b60a08101612e4a828861248c565b612e57602083018761248c565b8181036040830152612e698186612432565b90508181036060830152612e7d8185612432565b90508181036080830152612e05818461206a565b80516103e181611f50565b600060208284031215612eb157612eb1600080fd5b60006117ed8484612e91565b600e81526000602082016d14185a5c881b9bdd08199bdd5b9960921b8152915061260e565b602080825281016103e181612ebd565b6001600160701b038116611f59565b80516103e181612ef2565b63ffffffff8116611f59565b80516103e181612f0c565b600080600060608486031215612f3b57612f3b600080fd5b6000612f478686612f01565b9350506020612f5886828701612f01565b92505060406124e986828701612f18565b60808101612f77828761248c565b612f846020830186611fbd565b6128f06040830185611fbd565b60408082528101612fa28185612432565b905081810360208301526117ed818461243256fe546f6b656e7357616765726564286f7074696f6e3a2025642c206166746572466565202573a2646970667358221220d87734125c87d4e2bed504b9eeb26a1d5030a8af6c1fec28633ad8cf9ec46e3464736f6c6343000814003368747470733a2f2f73706f7274732e6c616462726f6b65732e636f6d2f73706f72742f666f6f7462616c6c",
  "linkReferences": {
    "libs/ManagerLib.sol": {
      "ManagerLib": [
        {
          "length": 20,
          "start": 3625
        }
      ]
    }
  },
  "deployedLinkReferences": {
    "libs/ManagerLib.sol": {
      "ManagerLib": [
        {
          "length": 20,
          "start": 2070
        }
      ]
    }
  }
}