{
  "_format": "hh-sol-artifact-1",
  "contractName": "SingleStake",
  "sourceName": "SingleStake.sol",
  "abi": [
    {
      "inputs": [
        {
          "internalType": "bytes32",
          "name": "gameID",
          "type": "bytes32"
        },
        {
          "internalType": "address",
          "name": "usdc",
          "type": "address"
        },
        {
          "internalType": "address",
          "name": "nfticket",
          "type": "address"
        },
        {
          "internalType": "address",
          "name": "treasury",
          "type": "address"
        },
        {
          "internalType": "uint256",
          "name": "noOfOptions",
          "type": "uint256"
        }
      ],
      "stateMutability": "nonpayable",
      "type": "constructor"
    },
    {
      "anonymous": false,
      "inputs": [
        {
          "indexed": false,
          "internalType": "uint256",
          "name": "newFee",
          "type": "uint256"
        }
      ],
      "name": "DepositFeeChanged",
      "type": "event"
    },
    {
      "anonymous": false,
      "inputs": [
        {
          "indexed": true,
          "internalType": "address",
          "name": "manager",
          "type": "address"
        }
      ],
      "name": "ManagerAdded",
      "type": "event"
    },
    {
      "anonymous": false,
      "inputs": [
        {
          "indexed": true,
          "internalType": "address",
          "name": "manager",
          "type": "address"
        }
      ],
      "name": "ManagerRemoved",
      "type": "event"
    },
    {
      "anonymous": false,
      "inputs": [
        {
          "indexed": true,
          "internalType": "bytes32",
          "name": "_name",
          "type": "bytes32"
        },
        {
          "indexed": true,
          "internalType": "uint256",
          "name": "winningIndex",
          "type": "uint256"
        },
        {
          "indexed": true,
          "internalType": "address",
          "name": "winingERC20",
          "type": "address"
        }
      ],
      "name": "StakeResolved",
      "type": "event"
    },
    {
      "anonymous": false,
      "inputs": [
        {
          "indexed": true,
          "internalType": "address",
          "name": "treasuryAddress",
          "type": "address"
        }
      ],
      "name": "StakeTreasuryCreated",
      "type": "event"
    },
    {
      "anonymous": false,
      "inputs": [
        {
          "indexed": true,
          "internalType": "address",
          "name": "tokenIn",
          "type": "address"
        },
        {
          "indexed": true,
          "internalType": "address",
          "name": "tokenOut",
          "type": "address"
        },
        {
          "indexed": true,
          "internalType": "uint256",
          "name": "amountIn",
          "type": "uint256"
        },
        {
          "indexed": false,
          "internalType": "uint256",
          "name": "amountOutMin",
          "type": "uint256"
        }
      ],
      "name": "SwapExactTokens",
      "type": "event"
    },
    {
      "anonymous": false,
      "inputs": [
        {
          "indexed": false,
          "internalType": "uint256",
          "name": "amountOut",
          "type": "uint256"
        }
      ],
      "name": "SwapExactTokensSuccess",
      "type": "event"
    },
    {
      "anonymous": false,
      "inputs": [
        {
          "indexed": true,
          "internalType": "address",
          "name": "recipient",
          "type": "address"
        },
        {
          "indexed": true,
          "internalType": "uint256",
          "name": "ticketID",
          "type": "uint256"
        },
        {
          "indexed": true,
          "internalType": "uint256",
          "name": "serviceDescriptor",
          "type": "uint256"
        }
      ],
      "name": "TicketIssued",
      "type": "event"
    },
    {
      "anonymous": false,
      "inputs": [
        {
          "indexed": true,
          "internalType": "address",
          "name": "token",
          "type": "address"
        }
      ],
      "name": "TokenAllowed",
      "type": "event"
    },
    {
      "anonymous": false,
      "inputs": [
        {
          "indexed": true,
          "internalType": "address",
          "name": "token",
          "type": "address"
        }
      ],
      "name": "TokenDisallowed",
      "type": "event"
    },
    {
      "anonymous": false,
      "inputs": [
        {
          "indexed": true,
          "internalType": "bytes32",
          "name": "_name",
          "type": "bytes32"
        },
        {
          "indexed": false,
          "internalType": "uint256",
          "name": "option",
          "type": "uint256"
        },
        {
          "indexed": true,
          "internalType": "address",
          "name": "lpToken",
          "type": "address"
        },
        {
          "indexed": true,
          "internalType": "uint256",
          "name": "totalLP",
          "type": "uint256"
        }
      ],
      "name": "TokensWagered",
      "type": "event"
    },
    {
      "anonymous": false,
      "inputs": [
        {
          "indexed": false,
          "internalType": "uint256",
          "name": "newFee",
          "type": "uint256"
        }
      ],
      "name": "WithdrawFeeChanged",
      "type": "event"
    },
    {
      "anonymous": false,
      "inputs": [
        {
          "indexed": true,
          "internalType": "address",
          "name": "user",
          "type": "address"
        },
        {
          "indexed": true,
          "internalType": "address",
          "name": "token",
          "type": "address"
        },
        {
          "indexed": true,
          "internalType": "uint256",
          "name": "amount",
          "type": "uint256"
        }
      ],
      "name": "WithdrawalApproved",
      "type": "event"
    },
    {
      "anonymous": false,
      "inputs": [
        {
          "indexed": true,
          "internalType": "address",
          "name": "user",
          "type": "address"
        },
        {
          "indexed": true,
          "internalType": "address",
          "name": "token",
          "type": "address"
        },
        {
          "indexed": true,
          "internalType": "uint256",
          "name": "amount",
          "type": "uint256"
        }
      ],
      "name": "WithdrawalRejected",
      "type": "event"
    },
    {
      "anonymous": false,
      "inputs": [
        {
          "indexed": true,
          "internalType": "address",
          "name": "user",
          "type": "address"
        },
        {
          "indexed": true,
          "internalType": "address",
          "name": "token",
          "type": "address"
        },
        {
          "indexed": true,
          "internalType": "uint256",
          "name": "amount",
          "type": "uint256"
        }
      ],
      "name": "WithdrawalRequested",
      "type": "event"
    },
    {
      "anonymous": false,
      "inputs": [
        {
          "indexed": true,
          "internalType": "address",
          "name": "user",
          "type": "address"
        },
        {
          "indexed": true,
          "internalType": "address",
          "name": "token",
          "type": "address"
        },
        {
          "indexed": true,
          "internalType": "uint256",
          "name": "amount",
          "type": "uint256"
        }
      ],
      "name": "Withdrawn",
      "type": "event"
    },
    {
      "inputs": [
        {
          "internalType": "address",
          "name": "sendTo",
          "type": "address"
        }
      ],
      "name": "cashOut",
      "outputs": [],
      "stateMutability": "nonpayable",
      "type": "function"
    },
    {
      "inputs": [],
      "name": "companyDescriptor",
      "outputs": [
        {
          "internalType": "uint256",
          "name": "",
          "type": "uint256"
        }
      ],
      "stateMutability": "view",
      "type": "function"
    },
    {
      "inputs": [
        {
          "internalType": "uint256",
          "name": "option",
          "type": "uint256"
        },
        {
          "internalType": "address",
          "name": "erc20Contract",
          "type": "address"
        },
        {
          "internalType": "uint256",
          "name": "stakedAmount",
          "type": "uint256"
        }
      ],
      "name": "create_stake",
      "outputs": [],
      "stateMutability": "nonpayable",
      "type": "function"
    },
    {
      "inputs": [
        {
          "internalType": "address",
          "name": "_wallet",
          "type": "address"
        },
        {
          "internalType": "address",
          "name": "erc20Contract",
          "type": "address"
        }
      ],
      "name": "deposits",
      "outputs": [
        {
          "internalType": "uint256",
          "name": "",
          "type": "uint256"
        }
      ],
      "stateMutability": "view",
      "type": "function"
    },
    {
      "inputs": [
        {
          "internalType": "address",
          "name": "_token",
          "type": "address"
        }
      ],
      "name": "getAssetsValue",
      "outputs": [
        {
          "internalType": "uint256",
          "name": "",
          "type": "uint256"
        }
      ],
      "stateMutability": "view",
      "type": "function"
    },
    {
      "inputs": [
        {
          "internalType": "address",
          "name": "_token",
          "type": "address"
        }
      ],
      "name": "getUSDCRateFromPoolByExternal",
      "outputs": [
        {
          "internalType": "uint256[2]",
          "name": "",
          "type": "uint256[2]"
        }
      ],
      "stateMutability": "view",
      "type": "function"
    },
    {
      "inputs": [],
      "name": "getUniswapRouter",
      "outputs": [
        {
          "internalType": "address",
          "name": "",
          "type": "address"
        }
      ],
      "stateMutability": "view",
      "type": "function"
    },
    {
      "inputs": [],
      "name": "owner",
      "outputs": [
        {
          "internalType": "address",
          "name": "",
          "type": "address"
        }
      ],
      "stateMutability": "view",
      "type": "function"
    },
    {
      "inputs": [
        {
          "internalType": "address",
          "name": "_token",
          "type": "address"
        },
        {
          "internalType": "uint256",
          "name": "_amount",
          "type": "uint256"
        }
      ],
      "name": "requestWithdraw",
      "outputs": [],
      "stateMutability": "nonpayable",
      "type": "function"
    },
    {
      "inputs": [],
      "name": "serviceDescriptor",
      "outputs": [
        {
          "internalType": "uint256",
          "name": "",
          "type": "uint256"
        }
      ],
      "stateMutability": "view",
      "type": "function"
    },
    {
      "inputs": [
        {
          "internalType": "uint256",
          "name": "_fee",
          "type": "uint256"
        }
      ],
      "name": "setDepositFee",
      "outputs": [],
      "stateMutability": "nonpayable",
      "type": "function"
    },
    {
      "inputs": [
        {
          "internalType": "address",
          "name": "_manager",
          "type": "address"
        },
        {
          "internalType": "bool",
          "name": "_status",
          "type": "bool"
        }
      ],
      "name": "setManager",
      "outputs": [],
      "stateMutability": "nonpayable",
      "type": "function"
    },
    {
      "inputs": [
        {
          "internalType": "address",
          "name": "_usdc",
          "type": "address"
        }
      ],
      "name": "setUSDCAddress",
      "outputs": [],
      "stateMutability": "nonpayable",
      "type": "function"
    },
    {
      "inputs": [
        {
          "internalType": "uint256",
          "name": "winningIndex",
          "type": "uint256"
        }
      ],
      "name": "setWinner",
      "outputs": [],
      "stateMutability": "nonpayable",
      "type": "function"
    },
    {
      "inputs": [
        {
          "internalType": "uint256",
          "name": "_fee",
          "type": "uint256"
        }
      ],
      "name": "setWithdrawFee",
      "outputs": [],
      "stateMutability": "nonpayable",
      "type": "function"
    },
    {
      "inputs": [],
      "name": "winningERC20",
      "outputs": [
        {
          "internalType": "address",
          "name": "",
          "type": "address"
        }
      ],
      "stateMutability": "view",
      "type": "function"
    }
  ],
  "bytecode": "0x60806040523480156200001157600080fd5b5060405162003cb838038062003cb883398101604081905262000034916200043b565b600160008181558154336001600160a01b0319918216179092556006805483166001600160a01b038781169190911790915560078054841686831617905560058054909316908716179091556008819055600955610803601e819055620000a090600160fb1b620004d5565b601f55601c8590556000600c8190556005600d55600e819055600f8190555b81811015620001cb576000620000d582620001d7565b604051602001620000e7919062000536565b60405160208183030381529060405290506000816040516200010990620003e8565b6200011591906200058c565b604051809103906000f08015801562000132573d6000803e3d6000fd5b50601b80546001810182556000919091527f3ad8aa4f87544323a9d1e5dd902f40c356527a7955687113db5f9a85ad579dc10180546001600160a01b0319166001600160a01b03831617905560408051808201909152600e81526d574147525b25735d20697320257360901b6020820152909150620001b390848362000270565b50508080620001c2906200059f565b915050620000bf565b50505050505062000620565b60606000620001e683620002c4565b60010190506000816001600160401b03811115620002085762000208620005bc565b6040519080825280601f01601f19166020018201604052801562000233576020820181803683370190505b5090508181016020015b600019016f181899199a1a9b1b9c1cb0b131b232b360811b600a86061a8153600a85049450846200023d57509392505050565b620002bf8383836040516024016200028b93929190620005e5565b60408051601f198184030181529190526020810180516001600160e01b0390811663038fd88960e31b17909152620003ae16565b505050565b6000807a184f03e93ff9f4daa797ed6e38ed64bf6a1f01000000000000000083106200030e577a184f03e93ff9f4daa797ed6e38ed64bf6a1f010000000000000000830492506040015b6d04ee2d6d415b85acef810000000083106200033b576d04ee2d6d415b85acef8100000000830492506020015b662386f26fc1000083106200035a57662386f26fc10000830492506010015b6305f5e100831062000373576305f5e100830492506008015b61271083106200038857612710830492506004015b606483106200039b576064830492506002015b600a8310620003a8576001015b92915050565b620003c481620003c760201b62000e391760201c565b50565b60006a636f6e736f6c652e6c6f679050600080835160208501845afa505050565b6113dd80620028db83390190565b805b8114620003c457600080fd5b8051620003a881620003f6565b60006001600160a01b038216620003a8565b620003f88162000411565b8051620003a88162000423565b600080600080600060a08688031215620004585762000458600080fd5b600062000466888862000404565b955050602062000479888289016200042e565b94505060406200048c888289016200042e565b93505060606200049f888289016200042e565b9250506080620004b28882890162000404565b9150509295509295909350565b634e487b7160e01b600052601160045260246000fd5b80820180821115620003a857620003a8620004bf565b60005b8381101562000508578181015183820152602001620004ee565b50506000910152565b60006200051c825190565b6200052c818560208601620004eb565b9290920192915050565b622ba3a960e91b8152600301600062000550828462000511565b9392505050565b600062000562825190565b8084526020840193506200057b818560208601620004eb565b601f01601f19169290920192915050565b6020808252810162000550818462000557565b60006000198203620005b557620005b5620004bf565b5060010190565b634e487b7160e01b600052604160045260246000fd5b805b82525050565b620005d48162000411565b60608082528101620005f8818662000557565b9050620006096020830185620005d2565b620006186040830184620005da565b949350505050565b6122ab80620006306000396000f3fe608060405234801561001057600080fd5b50600436106101005760003560e01c80638f601f6611610097578063d56dbf8f11610066578063d56dbf8f14610231578063d8a7136414610244578063eb3ab43314610257578063f84bb8491461026057600080fd5b80638f601f66146101bf578063a5e90eee146101f8578063aaf5bfc31461020b578063b6ac642a1461021e57600080fd5b8063490ae210116100d3578063490ae2101461016c578063524900b51461017f57806375121321146101995780638da5cb5b146101ac57600080fd5b80630df7160214610105578063189c92b91461011a5780632eeaca5c14610139578063397a1b2814610159575b600080fd5b61011861011336600461165b565b610273565b005b610123601f5481565b6040516101309190611684565b60405180910390f35b61014c6101473660046116b7565b6103f0565b6040516101309190611720565b61011861016736600461172e565b610409565b61011861017a36600461165b565b610568565b6003546001600160a01b03165b6040516101309190611774565b6101186101a7366004611782565b610612565b60015461018c906001600160a01b031681565b6101236101cd3660046117d2565b6001600160a01b039182166000908152600b6020908152604080832093909416825291909152205490565b610118610206366004611818565b610978565b6101186102193660046116b7565b610abb565b61011861022c36600461165b565b610b26565b61012361023f3660046116b7565b610bc5565b6101186102523660046116b7565b610c43565b610123601e5481565b60205461018c906001600160a01b031681565b6001546001600160a01b03163314806102a057503360009081526012602052604090205460ff1615156001145b6102c55760405162461bcd60e51b81526004016102bc90611879565b60405180910390fd5b601d54156102e55760405162461bcd60e51b81526004016102bc906118bd565b60006001600160a01b0316601b8281548110610303576103036118cd565b6000918252602090912001546001600160a01b0316036103355760405162461bcd60e51b81526004016102bc90611917565b601b8181548110610348576103486118cd565b6000918252602091829020015481546001600160a01b0319166001600160a01b0390911617905561037a81606461193d565b601d819055506103af6040518060600160405280602281526020016122546022913960205483906001600160a01b0316610e5a565b602054601c546040516001600160a01b03909216918391907f834b47baa23e5c7950911d6acd70b127b15d807ee548e2db70d8415efbdf29f390600090a450565b6103f8611625565b610403600283610ea6565b92915050565b60055482906001600160a01b038083169116146104385760405162461bcd60e51b81526004016102bc90611978565b336000908152600b602090815260408083206001600160a01b038716845290915290205482111561047b5760405162461bcd60e51b81526004016102bc906119b3565b336000908152600b602090815260408083206001600160a01b0387168452909152812080548492906104ae9084906119c3565b9091555050604080516060810182528381524260208083019182526000838501818152338252600a83528582206001600160a01b038a16835290925293909320825181559051600180830191909155925160028083018054949593949293909260ff1916918490811115610524576105246119d6565b0217905550506040518391506001600160a01b0385169033907f04c56a409d50971e45c5a2d96e5d557d2b0f1d66d40f14b141e4c958b0f39b3290600090a4505050565b6001546001600160a01b031633148061059557503360009081526012602052604090205460ff1615156001145b6105b15760405162461bcd60e51b81526004016102bc90611879565b60648111156105d25760405162461bcd60e51b81526004016102bc90611a12565b600c8190556040517f2a6f1084651542f3142c70f4c43c096d016a8b517c063660b146268f646ea43a90610607908390611684565b60405180910390a150565b61063660405180606001604052806000815260200160008152602001600081525090565b6005546001600160a01b038481169116146106635760405162461bcd60e51b81526004016102bc90611a56565b6040516323b872dd60e01b81526001600160a01b038416906323b872dd9061069390339030908790600401611a66565b6020604051808303816000875af11580156106b2573d6000803e3d6000fd5b505050506040513d601f19601f820116820180604052508101906106d69190611a99565b6106f25760405162461bcd60e51b81526004016102bc90611ae0565b6106fe60028484610fea565b600754601c5482516040516340b0e18560e01b81529394506001600160a01b03909216926340b0e185926107389291889190600401611af0565b6020604051808303816000875af1158015610757573d6000803e3d6000fd5b505050506040513d601f19601f8201168201806040525081019061077b9190611b09565b50805161078c906002908590611137565b60006107c5601b86815481106107a4576107a46118cd565b6000918252602090912001546005546001600160a01b039182169116611272565b905060006107d482600a611c38565b83602001516107e39190611c4d565b90506108336040518060600160405280602681526020016121fe6026913982601b8981548110610815576108156118cd565b6000918252602090912001546001600160a01b031660ff861661138a565b601b8681548110610846576108466118cd565b6000918252602090912001546040516340c10f1960e01b81526001600160a01b03909116906340c10f19906108819033908590600401611c6c565b600060405180830381600087803b15801561089b57600080fd5b505af11580156108af573d6000803e3d6000fd5b505050506109056040518060600160405280603081526020016122246030913987601b89815481106108e3576108e36118cd565b60009182526020918290200154908701516001600160a01b039091169061138a565b8260200151601b878154811061091d5761091d6118cd565b600091825260209091200154601c546040516001600160a01b03909216917fcfd574d494b356a2fcc316cd46853105cc64f840435a22422853ef7ee192952290610968908b90611684565b60405180910390a4505050505050565b6001546001600160a01b031633146109a25760405162461bcd60e51b81526004016102bc90611ca7565b80156109e6576001600160a01b03821660009081526012602052604090205460ff16156109e15760405162461bcd60e51b81526004016102bc90611ceb565b610a1e565b6001600160a01b03821660009081526012602052604090205460ff16610a1e5760405162461bcd60e51b81526004016102bc90611d2f565b6001600160a01b0382166000908152601260205260409020805460ff19168215801591909117909155610a83576040516001600160a01b038316907f3b4a40cccf2058c593542587329dd385be4f0b588db5471fbd9598e56dd7093a90600090a25050565b6040516001600160a01b038316907fef69f7d97228658c92417be1b16b19058315de71fecb435d07b7d23728b6bd3190600090a25050565b6001546001600160a01b0316331480610ae857503360009081526012602052604090205460ff1615156001145b610b045760405162461bcd60e51b81526004016102bc90611879565b600580546001600160a01b0319166001600160a01b0392909216919091179055565b6001546001600160a01b0316331480610b5357503360009081526012602052604090205460ff1615156001145b610b6f5760405162461bcd60e51b81526004016102bc90611879565b6064811115610b905760405162461bcd60e51b81526004016102bc90611a12565b600d8190556040517fef51b055f1ac1490e0c230364c65b0a9eca534656954023b56053b78461678e490610607908390611684565b604051638379281d60e01b815260009073__$744e6baa1f687d86a909216607c3c50c82$__90638379281d90610c02906002908690600401611d3f565b602060405180830381865af4158015610c1f573d6000803e3d6000fd5b505050506040513d601f19601f820116820180604052508101906104039190611b09565b601d54600003610c655760405162461bcd60e51b81526004016102bc90611d88565b600754602054601c54604051631c5543eb60e31b815260009384936001600160a01b039182169363e2aa1f5893610ca3933393169190600401611a66565b6040805180830381865afa158015610cbf573d6000803e3d6000fd5b505050506040513d601f19601f82011682018060405250810190610ce39190611d98565b9150915060008111610d075760405162461bcd60e51b81526004016102bc90611df2565b602054600554600091610d26916001600160a01b039182169116611272565b90506000610d3582600a611c38565b610d3f9084611c4d565b60205460405163095ea7b360e01b81529192506001600160a01b03169063095ea7b390610d729030908890600401611c6c565b6020604051808303816000875af1158015610d91573d6000803e3d6000fd5b505050506040513d601f19601f82011682018060405250810190610db59190611a99565b50602054604051632770a7eb60e21b81526001600160a01b0390911690639dc29fac90610de89033908890600401611c6c565b600060405180830381600087803b158015610e0257600080fd5b505af1158015610e16573d6000803e3d6000fd5b5050600554610e3292508791506001600160a01b0316856113d3565b5050505050565b60006a636f6e736f6c652e6c6f679050600080835160208501845afa505050565b610ea1838383604051602401610e7293929190611e58565b60408051601f198184030181529190526020810180516001600160e01b031663038fd88960e31b179052611570565b505050565b610eae611625565b6002830154600384015460405163e6a4390560e01b81526001600160a01b0392831692600092849263e6a4390592610eec9216908890600401611e85565b602060405180830381865afa158015610f09573d6000803e3d6000fd5b505050506040513d601f19601f82011682018060405250810190610f2d9190611e9e565b90506001600160a01b038116610f555760405162461bcd60e51b81526004016102bc90611ee4565b6000819050600080826001600160a01b0316630902f1ac6040518163ffffffff1660e01b8152600401606060405180830381865afa158015610f9b573d6000803e3d6000fd5b505050506040513d601f19601f82011682018060405250810190610fbf9190611f25565b50604080518082019091526001600160701b0392831681529116602082015298975050505050505050565b61100e60405180606001604052806000815260200160008152602001600081525090565b60038401546001600160a01b0384811691161461103d5760405162461bcd60e51b81526004016102bc90611978565b61104c848386600a015461157c565b6040820181905261105d90836119c3565b80825261106d908590859061159c565b6020820181905260068501805460009061108890849061193d565b90915550506040808201516001600160a01b0385166000908152601387016020529182208054919290916110bd90849061193d565b9091555050805133600090815260098601602090815260408083206001600160a01b0388168452909152812080549091906110f990849061193d565b909155505080516001600160a01b0384166000908152600e860160205260408120805490919061112a90849061193d565b90915550505b9392505050565b60038301546001600160a01b038381169116146111665760405162461bcd60e51b81526004016102bc90611f95565b6040516370a0823160e01b815281906001600160a01b038416906370a0823190611194903090600401611774565b602060405180830381865afa1580156111b1573d6000803e3d6000fd5b505050506040513d601f19601f820116820180604052508101906111d59190611b09565b10156111f35760405162461bcd60e51b81526004016102bc90611fed565b600583015460405163a9059cbb60e01b81526001600160a01b038481169263a9059cbb9261122992909116908590600401611c6c565b6020604051808303816000875af1158015611248573d6000803e3d6000fd5b505050506040513d601f19601f8201168201806040525081019061126c9190611a99565b50505050565b600080836001600160a01b031663313ce5676040518163ffffffff1660e01b8152600401602060405180830381865afa1580156112b3573d6000803e3d6000fd5b505050506040513d601f19601f820116820180604052508101906112d79190612011565b90506000836001600160a01b031663313ce5676040518163ffffffff1660e01b8152600401602060405180830381865afa158015611319573d6000803e3d6000fd5b505050506040513d601f19601f8201168201806040525081019061133d9190612011565b9050600092508060ff168260ff1614611382578060ff168260ff16116113755760405162461bcd60e51b81526004016102bc9061207f565b61137f818361208f565b92505b505092915050565b61126c848484846040516024016113a494939291906120ac565b60408051601f198184030181529190526020810180516001600160e01b03166327827ee360e11b179052611570565b6113db6115f2565b60055482906001600160a01b0380831691161461140a5760405162461bcd60e51b81526004016102bc90611978565b600754601c54604051637e13d27d60e11b815284926001600160a01b03169163fc27a4fa9161143e919088906004016120e6565b602060405180830381865afa15801561145b573d6000803e3d6000fd5b505050506040513d601f19601f8201168201806040525081019061147f9190611b09565b101561149d5760405162461bcd60e51b81526004016102bc90612134565b600d546000906114b190600290859061157c565b905060006114bf82856119c3565b600754601c546040516378ce040160e01b81529293506001600160a01b03909116916378ce0401916114f991899086908c90600401612144565b600060405180830381600087803b15801561151357600080fd5b505af1158015611527573d6000803e3d6000fd5b50506040518392506001600160a01b038816915033907fd1c19fbcd4551a5edfb66d43d2e337c04837afda3482b42bdf569a8fccdae5fb90600090a4505050610ea16001600055565b61157981610e39565b50565b6000606461158a8385611c4d565b611594919061218f565b949350505050565b60038301546000906001600160a01b03908116908416036115be575080611130565b60006115ca8585610ea6565b60208101518151919250906115df9085611c4d565b6115e9919061218f565b95945050505050565b6002600054036116145760405162461bcd60e51b81526004016102bc906121d7565b6002600055565b6116236121e7565b565b60405180604001604052806002906020820280368337509192915050565b805b811461157957600080fd5b803561040381611643565b60006020828403121561167057611670600080fd5b60006115948484611650565b805b82525050565b60208101610403828461167c565b60006001600160a01b038216610403565b61164581611692565b8035610403816116a3565b6000602082840312156116cc576116cc600080fd5b600061159484846116ac565b60006116e4838361167c565b505060200190565b6002818060005b8381101561171857815161170787826116d8565b9650602083019250506001016116f3565b505050505050565b6040810161040382846116ec565b6000806040838503121561174457611744600080fd5b600061175085856116ac565b925050602061176185828601611650565b9150509250929050565b61167e81611692565b60208101610403828461176b565b60008060006060848603121561179a5761179a600080fd5b60006117a68686611650565b93505060206117b7868287016116ac565b92505060406117c886828701611650565b9150509250925092565b600080604083850312156117e8576117e8600080fd5b60006117f485856116ac565b9250506020611761858286016116ac565b801515611645565b803561040381611805565b6000806040838503121561182e5761182e600080fd5b600061183a85856116ac565b92505060206117618582860161180d565b60148152600060208201732737ba1037bbb732b91037b91036b0b730b3b2b960611b815291505b5060200190565b602080825281016104038161184b565b601981526000602082017f77696e6e657220616c72656164792064657465726d696e65640000000000000081529150611872565b6020808252810161040381611889565b634e487b7160e01b600052603260045260246000fd5b601981526000602082017f6e6f74206120746f6b656e2d6261636b6564206f7074696f6e0000000000000081529150611872565b60208082528101610403816118e3565b634e487b7160e01b600052601160045260246000fd5b8082018082111561040357610403611927565b6011815260006020820170151bdad95b881b9bdd08185b1b1bddd959607a1b81529150611872565b6020808252810161040381611950565b6014815260006020820173496e73756666696369656e742062616c616e636560601b81529150611872565b6020808252810161040381611988565b8181038181111561040357610403611927565b634e487b7160e01b600052602160045260246000fd5b600f81526000602082016e08ccaca40d2e640e8dede40d0d2ced608b1b81529150611872565b60208082528101610403816119ec565b601f81526000602082017f7468697320746f6b656e206973206e6f7420616363657074656420686572650081529150611872565b6020808252810161040381611a22565b60608101611a74828661176b565b611a81602083018561176b565b611594604083018461167c565b805161040381611805565b600060208284031215611aae57611aae600080fd5b60006115948484611a8e565b600f81526000602082016e151c985b9cd9995c8819985a5b1959608a1b81529150611872565b6020808252810161040381611aba565b60608101611a74828661167c565b805161040381611643565b600060208284031215611b1e57611b1e600080fd5b60006115948484611afe565b80825b6001851115611b6957808604811115611b4857611b48611927565b6001851615611b5657908102905b8002611b628560011c90565b9450611b2d565b94509492505050565b600082611b8157506001611130565b81611b8e57506000611130565b8160018114611ba45760028114611bae57611bdb565b6001915050611130565b60ff841115611bbf57611bbf611927565b8360020a915084821115611bd557611bd5611927565b50611130565b5060208310610133831016604e8410600b8410161715611c0e575081810a83811115611c0957611c09611927565b611130565b611c1b8484846001611b2a565b92509050818404811115611c3157611c31611927565b0292915050565b600060ff831692506111306000198484611b72565b818102808215838204851417611c6557611c65611927565b5092915050565b60408101611c7a828561176b565b611130602083018461167c565b600981526000602082016837b7363ca7bbb732b960b91b81529150611872565b6020808252810161040381611c87565b601c81526000602082017f4164647265737320697320616c72656164792061206d616e616765720000000081529150611872565b6020808252810161040381611cb7565b601881526000602082017f41646472657373206973206e6f742061206d616e61676572000000000000000081529150611872565b6020808252810161040381611cfb565b828152604081015b611130602083018461176b565b601981526000602082017f77696e6e6572206e6f74207965742064657465726d696e65640000000000000081529150611872565b6020808252810161040381611d54565b60008060408385031215611dae57611dae600080fd5b6000611dba8585611afe565b925050602061176185828601611afe565b601081526000602082016f7061796f757420756e646572666c6f7760801b81529150611872565b6020808252810161040381611dcb565b60005b83811015611e1d578181015183820152602001611e05565b50506000910152565b6000611e30825190565b808452602084019350611e47818560208601611e02565b601f01601f19169290920192915050565b60608082528101611e698186611e26565b9050611e78602083018561167c565b611594604083018461176b565b60408101611d47828561176b565b8051610403816116a3565b600060208284031215611eb357611eb3600080fd5b60006115948484611e93565b600e81526000602082016d14185a5c881b9bdd08199bdd5b9960921b81529150611872565b6020808252810161040381611ebf565b6001600160701b038116611645565b805161040381611ef4565b63ffffffff8116611645565b805161040381611f0e565b600080600060608486031215611f3d57611f3d600080fd5b6000611f498686611f03565b9350506020611f5a86828701611f03565b92505060406117c886828701611f1a565b60138152600060208201722ab735b737bbb71039ba30b136329031b7b4b760691b81529150611872565b6020808252810161040381611f6b565b602881526000602082017f4d616e6167657220646f6573206e6f7420686176652073756666696369656e748152672062616c616e636560c01b602082015291505b5060400190565b6020808252810161040381611fa5565b60ff8116611645565b805161040381611ffd565b60006020828403121561202657612026600080fd5b60006115948484612006565b603081526000602082017f7765207265717569726520737461626c6520646563696d616c7320746f20626581526f203c3d206f757220646563696d616c7360801b60208201529150611fe6565b6020808252810161040381612032565b60ff91821691908116908282039081111561040357610403611927565b608080825281016120bd8187611e26565b90506120cc602083018661167c565b6120d9604083018561176b565b6115e9606083018461167c565b60408101611d47828561167c565b602381526000602082017f496e73756666696369656e742062616c616e636520696e2054726561737572798152622634b160e91b60208201529150611fe6565b60208082528101610403816120f4565b60808101612152828761167c565b61215f602083018661176b565b61216c604083018561167c565b6115e9606083018461176b565b634e487b7160e01b600052601260045260246000fd5b60008261219e5761219e612179565b500490565b601f81526000602082017f5265656e7472616e637947756172643a207265656e7472616e742063616c6c0081529150611872565b60208082528101610403816121a3565b634e487b7160e01b600052605160045260246000fdfe6d696e74696e67202573206f66202573207769746820636f6e76657273696f6e206f66202573546f6b656e7357616765726564286f7074696f6e3a2025642c20746f6b656e3a2025732c20616674657246656520257377696e6e696e67496e646578203d2025732077696e6e696e67455243206973202573a2646970667358221220c7086184b9c0545e5b35dbdc3e0c68306b836d1fb98305746ec5efa86d270e4a64736f6c6343000814003360806040523480156200001157600080fd5b50604051620013dd380380620013dd83398101604081905262000034916200022f565b60408051808201909152600a8152692ba0a3a9102a37b5b2b760b11b60208201528160036200006483826200036d565b5060046200007382826200036d565b505050620000906200008a620000a960201b60201c565b620000ad565b50600680546001600160a01b031916331790556200043d565b3390565b600580546001600160a01b038381166001600160a01b0319831681179093556040519116919082907f8be0079c531659141344cd1fd0a4f28419497f9722a3daafe3b4186f6b6457e090600090a35050565b634e487b7160e01b600052604160045260246000fd5b601f19601f83011681018181106001600160401b03821117156200013d576200013d620000ff565b6040525050565b60006200015060405190565b90506200015e828262000115565b919050565b60006001600160401b038211156200017f576200017f620000ff565b601f19601f83011660200192915050565b60005b83811015620001ad57818101518382015260200162000193565b50506000910152565b6000620001cd620001c78462000163565b62000144565b905082815260208101848484011115620001ea57620001ea600080fd5b620001f784828562000190565b509392505050565b600082601f830112620002155762000215600080fd5b815162000227848260208601620001b6565b949350505050565b600060208284031215620002465762000246600080fd5b81516001600160401b03811115620002615762000261600080fd5b6200022784828501620001ff565b634e487b7160e01b600052602260045260246000fd5b6002810460018216806200029a57607f821691505b602082108103620002af57620002af6200026f565b50919050565b6000620002c6620002c38381565b90565b92915050565b620002d783620002b5565b815460001960089490940293841b1916921b91909117905550565b600062000301818484620002cc565b505050565b8181101562000325576200031c600082620002f2565b60010162000306565b5050565b601f82111562000301576000818152602090206020601f85010481016020851015620003525750805b620003666020601f86010483018262000306565b5050505050565b81516001600160401b03811115620003895762000389620000ff565b62000395825462000285565b620003a282828562000329565b6020601f831160018114620003d95760008415620003c05750858201515b600019600886021c198116600286021786555062000435565b600085815260208120601f198616915b828110156200040b5788850151825560209485019460019092019101620003e9565b86831015620004285784890151600019601f89166008021c191682555b6001600288020188555050505b505050505050565b610f90806200044d6000396000f3fe608060405234801561001057600080fd5b50600436106101005760003560e01c8063715018a611610097578063a457c2d711610066578063a457c2d714610203578063a9059cbb14610216578063dd62ed3e14610229578063f2fde38b1461023c57600080fd5b8063715018a6146101c75780638da5cb5b146101cf57806395d89b41146101e85780639dc29fac146101f057600080fd5b8063313ce567116100d3578063313ce56714610167578063395093511461017657806340c10f191461018957806370a082311461019e57600080fd5b806306fdde0314610105578063095ea7b31461012357806318160ddd1461014357806323b872dd14610154575b600080fd5b61010d61024f565b60405161011a919061093a565b60405180910390f35b610136610131366004610993565b6102e1565b60405161011a91906109da565b6002545b60405161011a91906109ee565b6101366101623660046109fc565b6102fb565b601260405161011a9190610a55565b610136610184366004610993565b61031f565b61019c610197366004610993565b610341565b005b6101476101ac366004610a63565b6001600160a01b031660009081526020819052604090205490565b61019c6103d2565b6005546001600160a01b031660405161011a9190610a95565b61010d6103e6565b61019c6101fe366004610993565b6103f5565b610136610211366004610993565b61047d565b610136610224366004610993565b6104ba565b610147610237366004610aa3565b6104c8565b61019c61024a366004610a63565b6104f3565b60606003805461025e90610aec565b80601f016020809104026020016040519081016040528092919081815260200182805461028a90610aec565b80156102d75780601f106102ac576101008083540402835291602001916102d7565b820191906000526020600020905b8154815290600101906020018083116102ba57829003601f168201915b5050505050905090565b6000336102ef81858561052d565b60019150505b92915050565b6000336103098582856105e1565b61031485858561062b565b506001949350505050565b6000336102ef81858561033283836104c8565b61033c9190610b2e565b61052d565b6006546001600160a01b031633146103745760405162461bcd60e51b815260040161036b90610b78565b60405180910390fd5b61037e828261071b565b816001600160a01b03168161039161024f565b60405161039e9190610baa565b604051908190038120907f4ea4bf17c5d37efa096557e3ee29e15f25874692825bbab99f91e024a582864690600090a45050565b6103da6107b1565b6103e460006107db565b565b60606004805461025e90610aec565b6006546001600160a01b0316331461041f5760405162461bcd60e51b815260040161036b90610b78565b610429828261082d565b816001600160a01b03168161043c61024f565b6040516104499190610baa565b604051908190038120907feb236328ada1ed26bdd57999a13f2ec8173e3935919da1161f6bb7965d93931790600090a45050565b6000338161048b82866104c8565b9050838110156104ad5760405162461bcd60e51b815260040161036b90610bfb565b610314828686840361052d565b6000336102ef81858561062b565b6001600160a01b03918216600090815260016020908152604080832093909416825291909152205490565b6104fb6107b1565b6001600160a01b0381166105215760405162461bcd60e51b815260040161036b90610c4e565b61052a816107db565b50565b6001600160a01b0383166105535760405162461bcd60e51b815260040161036b90610c9f565b6001600160a01b0382166105795760405162461bcd60e51b815260040161036b90610cee565b6001600160a01b0380841660008181526001602090815260408083209487168084529490915290819020849055517f8c5be1e5ebec7d5bd14f71427d1e84f3dd0314c0f7b2291e5b200ac8c7c3b925906105d49085906109ee565b60405180910390a3505050565b60006105ed84846104c8565b9050600019811461062557818110156106185760405162461bcd60e51b815260040161036b90610d32565b610625848484840361052d565b50505050565b6001600160a01b0383166106515760405162461bcd60e51b815260040161036b90610d84565b6001600160a01b0382166106775760405162461bcd60e51b815260040161036b90610dd4565b6001600160a01b038316600090815260208190526040902054818110156106b05760405162461bcd60e51b815260040161036b90610e27565b6001600160a01b0380851660008181526020819052604080822086860390559286168082529083902080548601905591517fddf252ad1be2c89b69c2b068fc378daa952ba7f163c4a11628f55a4df523b3ef9061070e9086906109ee565b60405180910390a3610625565b6001600160a01b0382166107415760405162461bcd60e51b815260040161036b90610e6b565b80600260008282546107539190610b2e565b90915550506001600160a01b038216600081815260208190526040808220805485019055517fddf252ad1be2c89b69c2b068fc378daa952ba7f163c4a11628f55a4df523b3ef906107a59085906109ee565b60405180910390a35050565b6005546001600160a01b031633146103e45760405162461bcd60e51b815260040161036b90610ead565b600580546001600160a01b038381166001600160a01b0319831681179093556040519116919082907f8be0079c531659141344cd1fd0a4f28419497f9722a3daafe3b4186f6b6457e090600090a35050565b6001600160a01b0382166108535760405162461bcd60e51b815260040161036b90610efb565b6001600160a01b0382166000908152602081905260409020548181101561088c5760405162461bcd60e51b815260040161036b90610f4a565b6001600160a01b0383166000818152602081905260408082208585039055600280548690039055519091907fddf252ad1be2c89b69c2b068fc378daa952ba7f163c4a11628f55a4df523b3ef906105d49086906109ee565b60005b838110156108ff5781810151838201526020016108e7565b50506000910152565b6000610912825190565b8084526020840193506109298185602086016108e4565b601f01601f19169290920192915050565b6020808252810161094b8184610908565b9392505050565b60006001600160a01b0382166102f5565b61096c81610952565b811461052a57600080fd5b80356102f581610963565b8061096c565b80356102f581610982565b600080604083850312156109a9576109a9600080fd5b60006109b58585610977565b92505060206109c685828601610988565b9150509250929050565b8015155b82525050565b602081016102f582846109d0565b806109d4565b602081016102f582846109e8565b600080600060608486031215610a1457610a14600080fd5b6000610a208686610977565b9350506020610a3186828701610977565b9250506040610a4286828701610988565b9150509250925092565b60ff81166109d4565b602081016102f58284610a4c565b600060208284031215610a7857610a78600080fd5b6000610a848484610977565b949350505050565b6109d481610952565b602081016102f58284610a8c565b60008060408385031215610ab957610ab9600080fd5b6000610ac58585610977565b92505060206109c685828601610977565b634e487b7160e01b600052602260045260246000fd5b600281046001821680610b0057607f821691505b602082108103610b1257610b12610ad6565b50919050565b634e487b7160e01b600052601160045260246000fd5b808201808211156102f5576102f5610b18565b601781526000602082017f6f6e6c79204d41535445522063616e20646f2074686973000000000000000000815291505b5060200190565b602080825281016102f581610b41565b6000610b92825190565b610ba08185602086016108e4565b9290920192915050565b600061094b8284610b88565b602581526000602082017f45524332303a2064656372656173656420616c6c6f77616e63652062656c6f77815264207a65726f60d81b602082015291505b5060400190565b602080825281016102f581610bb6565b602681526000602082017f4f776e61626c653a206e6577206f776e657220697320746865207a65726f206181526564647265737360d01b60208201529150610bf4565b602080825281016102f581610c0b565b602481526000602082017f45524332303a20617070726f76652066726f6d20746865207a65726f206164648152637265737360e01b60208201529150610bf4565b602080825281016102f581610c5e565b602281526000602082017f45524332303a20617070726f766520746f20746865207a65726f206164647265815261737360f01b60208201529150610bf4565b602080825281016102f581610caf565b601d81526000602082017f45524332303a20696e73756666696369656e7420616c6c6f77616e636500000081529150610b71565b602080825281016102f581610cfe565b602581526000602082017f45524332303a207472616e736665722066726f6d20746865207a65726f206164815264647265737360d81b60208201529150610bf4565b602080825281016102f581610d42565b602381526000602082017f45524332303a207472616e7366657220746f20746865207a65726f206164647281526265737360e81b60208201529150610bf4565b602080825281016102f581610d94565b602681526000602082017f45524332303a207472616e7366657220616d6f756e7420657863656564732062815265616c616e636560d01b60208201529150610bf4565b602080825281016102f581610de4565b601f81526000602082017f45524332303a206d696e7420746f20746865207a65726f20616464726573730081529150610b71565b602080825281016102f581610e37565b60208082527f4f776e61626c653a2063616c6c6572206973206e6f7420746865206f776e657291019081526000610b71565b602080825281016102f581610e7b565b602181526000602082017f45524332303a206275726e2066726f6d20746865207a65726f206164647265738152607360f81b60208201529150610bf4565b602080825281016102f581610ebd565b602281526000602082017f45524332303a206275726e20616d6f756e7420657863656564732062616c616e815261636560f01b60208201529150610bf4565b602080825281016102f581610f0b56fea26469706673582212203c975eee577fec999d15f77d88389d9220ec641d65459a482272b9170cbb504264736f6c63430008140033",
  "linkReferences": {
    "libs/ManagerLib.sol": {
      "ManagerLib": [
        {
          "length": 20,
          "start": 4615
        }
      ]
    }
  },
  "deployedLinkReferences": {
    "libs/ManagerLib.sol": {
      "ManagerLib": [
        {
          "length": 20,
          "start": 3031
        }
      ]
    }
  }
}