{
  "_format": "hh-sol-artifact-1",
  "contractName": "SingleStake",
  "sourceName": "SingleStake.sol",
  "abi": [
    {
      "inputs": [
        {
          "internalType": "bytes32",
          "name": "gameID",
          "type": "bytes32"
        },
        {
          "internalType": "address",
          "name": "usdc",
          "type": "address"
        },
        {
          "internalType": "address",
          "name": "nfticket",
          "type": "address"
        },
        {
          "internalType": "address",
          "name": "treasury",
          "type": "address"
        },
        {
          "internalType": "uint256",
          "name": "noOfOptions",
          "type": "uint256"
        }
      ],
      "stateMutability": "nonpayable",
      "type": "constructor"
    },
    {
      "anonymous": false,
      "inputs": [
        {
          "indexed": false,
          "internalType": "uint256",
          "name": "newFee",
          "type": "uint256"
        }
      ],
      "name": "DepositFeeChanged",
      "type": "event"
    },
    {
      "anonymous": false,
      "inputs": [
        {
          "indexed": true,
          "internalType": "address",
          "name": "manager",
          "type": "address"
        }
      ],
      "name": "ManagerAdded",
      "type": "event"
    },
    {
      "anonymous": false,
      "inputs": [
        {
          "indexed": true,
          "internalType": "address",
          "name": "manager",
          "type": "address"
        }
      ],
      "name": "ManagerRemoved",
      "type": "event"
    },
    {
      "anonymous": false,
      "inputs": [
        {
          "indexed": true,
          "internalType": "bytes32",
          "name": "_name",
          "type": "bytes32"
        },
        {
          "indexed": true,
          "internalType": "uint256",
          "name": "winningIndex",
          "type": "uint256"
        },
        {
          "indexed": true,
          "internalType": "address",
          "name": "winingERC20",
          "type": "address"
        }
      ],
      "name": "StakeResolved",
      "type": "event"
    },
    {
      "anonymous": false,
      "inputs": [
        {
          "indexed": true,
          "internalType": "address",
          "name": "treasuryAddress",
          "type": "address"
        }
      ],
      "name": "StakeTreasuryCreated",
      "type": "event"
    },
    {
      "anonymous": false,
      "inputs": [
        {
          "indexed": true,
          "internalType": "address",
          "name": "tokenIn",
          "type": "address"
        },
        {
          "indexed": true,
          "internalType": "address",
          "name": "tokenOut",
          "type": "address"
        },
        {
          "indexed": true,
          "internalType": "uint256",
          "name": "amountIn",
          "type": "uint256"
        },
        {
          "indexed": false,
          "internalType": "uint256",
          "name": "amountOutMin",
          "type": "uint256"
        }
      ],
      "name": "SwapExactTokens",
      "type": "event"
    },
    {
      "anonymous": false,
      "inputs": [
        {
          "indexed": false,
          "internalType": "uint256",
          "name": "amountOut",
          "type": "uint256"
        }
      ],
      "name": "SwapExactTokensSuccess",
      "type": "event"
    },
    {
      "anonymous": false,
      "inputs": [
        {
          "indexed": true,
          "internalType": "address",
          "name": "recipient",
          "type": "address"
        },
        {
          "indexed": true,
          "internalType": "uint256",
          "name": "ticketID",
          "type": "uint256"
        },
        {
          "indexed": true,
          "internalType": "uint256",
          "name": "serviceDescriptor",
          "type": "uint256"
        }
      ],
      "name": "TicketIssued",
      "type": "event"
    },
    {
      "anonymous": false,
      "inputs": [
        {
          "indexed": true,
          "internalType": "address",
          "name": "token",
          "type": "address"
        }
      ],
      "name": "TokenAllowed",
      "type": "event"
    },
    {
      "anonymous": false,
      "inputs": [
        {
          "indexed": true,
          "internalType": "address",
          "name": "token",
          "type": "address"
        }
      ],
      "name": "TokenDisallowed",
      "type": "event"
    },
    {
      "anonymous": false,
      "inputs": [
        {
          "indexed": true,
          "internalType": "bytes32",
          "name": "_name",
          "type": "bytes32"
        },
        {
          "indexed": false,
          "internalType": "uint256",
          "name": "option",
          "type": "uint256"
        },
        {
          "indexed": true,
          "internalType": "address",
          "name": "lpToken",
          "type": "address"
        },
        {
          "indexed": true,
          "internalType": "uint256",
          "name": "totalLP",
          "type": "uint256"
        }
      ],
      "name": "TokensWagered",
      "type": "event"
    },
    {
      "anonymous": false,
      "inputs": [
        {
          "indexed": false,
          "internalType": "uint256",
          "name": "newFee",
          "type": "uint256"
        }
      ],
      "name": "WithdrawFeeChanged",
      "type": "event"
    },
    {
      "anonymous": false,
      "inputs": [
        {
          "indexed": true,
          "internalType": "address",
          "name": "user",
          "type": "address"
        },
        {
          "indexed": true,
          "internalType": "address",
          "name": "token",
          "type": "address"
        },
        {
          "indexed": true,
          "internalType": "uint256",
          "name": "amount",
          "type": "uint256"
        }
      ],
      "name": "WithdrawalApproved",
      "type": "event"
    },
    {
      "anonymous": false,
      "inputs": [
        {
          "indexed": true,
          "internalType": "address",
          "name": "user",
          "type": "address"
        },
        {
          "indexed": true,
          "internalType": "address",
          "name": "token",
          "type": "address"
        },
        {
          "indexed": true,
          "internalType": "uint256",
          "name": "amount",
          "type": "uint256"
        }
      ],
      "name": "WithdrawalRejected",
      "type": "event"
    },
    {
      "anonymous": false,
      "inputs": [
        {
          "indexed": true,
          "internalType": "address",
          "name": "user",
          "type": "address"
        },
        {
          "indexed": true,
          "internalType": "address",
          "name": "token",
          "type": "address"
        },
        {
          "indexed": true,
          "internalType": "uint256",
          "name": "amount",
          "type": "uint256"
        }
      ],
      "name": "WithdrawalRequested",
      "type": "event"
    },
    {
      "anonymous": false,
      "inputs": [
        {
          "indexed": true,
          "internalType": "address",
          "name": "user",
          "type": "address"
        },
        {
          "indexed": true,
          "internalType": "address",
          "name": "token",
          "type": "address"
        },
        {
          "indexed": true,
          "internalType": "uint256",
          "name": "amount",
          "type": "uint256"
        }
      ],
      "name": "Withdrawn",
      "type": "event"
    },
    {
      "inputs": [
        {
          "internalType": "address",
          "name": "sendTo",
          "type": "address"
        }
      ],
      "name": "cashOut",
      "outputs": [],
      "stateMutability": "nonpayable",
      "type": "function"
    },
    {
      "inputs": [],
      "name": "companyDescriptor",
      "outputs": [
        {
          "internalType": "uint256",
          "name": "",
          "type": "uint256"
        }
      ],
      "stateMutability": "view",
      "type": "function"
    },
    {
      "inputs": [
        {
          "internalType": "uint256",
          "name": "option",
          "type": "uint256"
        },
        {
          "internalType": "address",
          "name": "erc20Contract",
          "type": "address"
        },
        {
          "internalType": "uint256",
          "name": "stakedAmount",
          "type": "uint256"
        }
      ],
      "name": "create_stake",
      "outputs": [],
      "stateMutability": "nonpayable",
      "type": "function"
    },
    {
      "inputs": [
        {
          "internalType": "address",
          "name": "_wallet",
          "type": "address"
        },
        {
          "internalType": "address",
          "name": "erc20Contract",
          "type": "address"
        }
      ],
      "name": "deposits",
      "outputs": [
        {
          "internalType": "uint256",
          "name": "",
          "type": "uint256"
        }
      ],
      "stateMutability": "view",
      "type": "function"
    },
    {
      "inputs": [
        {
          "internalType": "address",
          "name": "_token",
          "type": "address"
        }
      ],
      "name": "getAssetsValue",
      "outputs": [
        {
          "internalType": "uint256",
          "name": "",
          "type": "uint256"
        }
      ],
      "stateMutability": "view",
      "type": "function"
    },
    {
      "inputs": [
        {
          "internalType": "address",
          "name": "_token",
          "type": "address"
        }
      ],
      "name": "getUSDCRateFromPoolByExternal",
      "outputs": [
        {
          "internalType": "uint256[2]",
          "name": "",
          "type": "uint256[2]"
        }
      ],
      "stateMutability": "view",
      "type": "function"
    },
    {
      "inputs": [],
      "name": "getUniswapRouter",
      "outputs": [
        {
          "internalType": "address",
          "name": "",
          "type": "address"
        }
      ],
      "stateMutability": "view",
      "type": "function"
    },
    {
      "inputs": [],
      "name": "owner",
      "outputs": [
        {
          "internalType": "address",
          "name": "",
          "type": "address"
        }
      ],
      "stateMutability": "view",
      "type": "function"
    },
    {
      "inputs": [
        {
          "internalType": "address",
          "name": "_token",
          "type": "address"
        },
        {
          "internalType": "uint256",
          "name": "_amount",
          "type": "uint256"
        }
      ],
      "name": "requestWithdraw",
      "outputs": [],
      "stateMutability": "nonpayable",
      "type": "function"
    },
    {
      "inputs": [],
      "name": "serviceDescriptor",
      "outputs": [
        {
          "internalType": "uint256",
          "name": "",
          "type": "uint256"
        }
      ],
      "stateMutability": "view",
      "type": "function"
    },
    {
      "inputs": [
        {
          "internalType": "uint256",
          "name": "_fee",
          "type": "uint256"
        }
      ],
      "name": "setDepositFee",
      "outputs": [],
      "stateMutability": "nonpayable",
      "type": "function"
    },
    {
      "inputs": [
        {
          "internalType": "address",
          "name": "_manager",
          "type": "address"
        },
        {
          "internalType": "bool",
          "name": "_status",
          "type": "bool"
        }
      ],
      "name": "setManager",
      "outputs": [],
      "stateMutability": "nonpayable",
      "type": "function"
    },
    {
      "inputs": [
        {
          "internalType": "address",
          "name": "_usdc",
          "type": "address"
        }
      ],
      "name": "setUSDCAddress",
      "outputs": [],
      "stateMutability": "nonpayable",
      "type": "function"
    },
    {
      "inputs": [
        {
          "internalType": "uint256",
          "name": "winningIndex",
          "type": "uint256"
        }
      ],
      "name": "setWinner",
      "outputs": [],
      "stateMutability": "nonpayable",
      "type": "function"
    },
    {
      "inputs": [
        {
          "internalType": "uint256",
          "name": "_fee",
          "type": "uint256"
        }
      ],
      "name": "setWithdrawFee",
      "outputs": [],
      "stateMutability": "nonpayable",
      "type": "function"
    },
    {
      "inputs": [],
      "name": "winningERC20",
      "outputs": [
        {
          "internalType": "address",
          "name": "",
          "type": "address"
        }
      ],
      "stateMutability": "view",
      "type": "function"
    }
  ],
  "bytecode": "0x60806040523480156200001157600080fd5b5060405162003ae238038062003ae283398101604081905262000034916200043b565b600160008181558154336001600160a01b0319918216179092556006805483166001600160a01b038781169190911790915560078054841686831617905560058054909316908716179091556008819055600955610803601e819055620000a090600160fb1b620004d5565b601f55601c8590556000600c8190556005600d55600e819055600f8190555b81811015620001cb576000620000d582620001d7565b604051602001620000e7919062000536565b60405160208183030381529060405290506000816040516200010990620003e8565b6200011591906200058c565b604051809103906000f08015801562000132573d6000803e3d6000fd5b50601b80546001810182556000919091527f3ad8aa4f87544323a9d1e5dd902f40c356527a7955687113db5f9a85ad579dc10180546001600160a01b0319166001600160a01b03831617905560408051808201909152600e81526d574147525b25735d20697320257360901b6020820152909150620001b390848362000270565b50508080620001c2906200059f565b915050620000bf565b50505050505062000620565b60606000620001e683620002c4565b60010190506000816001600160401b03811115620002085762000208620005bc565b6040519080825280601f01601f19166020018201604052801562000233576020820181803683370190505b5090508181016020015b600019016f181899199a1a9b1b9c1cb0b131b232b360811b600a86061a8153600a85049450846200023d57509392505050565b620002bf8383836040516024016200028b93929190620005e5565b60408051601f198184030181529190526020810180516001600160e01b0390811663038fd88960e31b17909152620003ae16565b505050565b6000807a184f03e93ff9f4daa797ed6e38ed64bf6a1f01000000000000000083106200030e577a184f03e93ff9f4daa797ed6e38ed64bf6a1f010000000000000000830492506040015b6d04ee2d6d415b85acef810000000083106200033b576d04ee2d6d415b85acef8100000000830492506020015b662386f26fc1000083106200035a57662386f26fc10000830492506010015b6305f5e100831062000373576305f5e100830492506008015b61271083106200038857612710830492506004015b606483106200039b576064830492506002015b600a8310620003a8576001015b92915050565b620003c481620003c760201b62000e581760201c565b50565b60006a636f6e736f6c652e6c6f679050600080835160208501845afa505050565b6111d4806200290e83390190565b805b8114620003c457600080fd5b8051620003a881620003f6565b60006001600160a01b038216620003a8565b620003f88162000411565b8051620003a88162000423565b600080600080600060a08688031215620004585762000458600080fd5b600062000466888862000404565b955050602062000479888289016200042e565b94505060406200048c888289016200042e565b93505060606200049f888289016200042e565b9250506080620004b28882890162000404565b9150509295509295909350565b634e487b7160e01b600052601160045260246000fd5b80820180821115620003a857620003a8620004bf565b60005b8381101562000508578181015183820152602001620004ee565b50506000910152565b60006200051c825190565b6200052c818560208601620004eb565b9290920192915050565b622ba3a960e91b8152600301600062000550828462000511565b9392505050565b600062000562825190565b8084526020840193506200057b818560208601620004eb565b601f01601f19169290920192915050565b6020808252810162000550818462000557565b60006000198203620005b557620005b5620004bf565b5060010190565b634e487b7160e01b600052604160045260246000fd5b805b82525050565b620005d48162000411565b60608082528101620005f8818662000557565b9050620006096020830185620005d2565b620006186040830184620005da565b949350505050565b6122de80620006306000396000f3fe608060405234801561001057600080fd5b50600436106101005760003560e01c80638f601f6611610097578063d56dbf8f11610066578063d56dbf8f14610231578063d8a7136414610244578063eb3ab43314610257578063f84bb8491461026057600080fd5b80638f601f66146101bf578063a5e90eee146101f8578063aaf5bfc31461020b578063b6ac642a1461021e57600080fd5b8063490ae210116100d3578063490ae2101461016c578063524900b51461017f57806375121321146101995780638da5cb5b146101ac57600080fd5b80630df7160214610105578063189c92b91461011a5780632eeaca5c14610139578063397a1b2814610159575b600080fd5b61011861011336600461167a565b610273565b005b610123601f5481565b60405161013091906116a3565b60405180910390f35b61014c6101473660046116d6565b6103ff565b604051610130919061173f565b61011861016736600461174d565b610418565b61011861017a36600461167a565b610577565b6003546001600160a01b03165b6040516101309190611793565b6101186101a73660046117a1565b610621565b60015461018c906001600160a01b031681565b6101236101cd3660046117f1565b6001600160a01b039182166000908152600b6020908152604080832093909416825291909152205490565b610118610206366004611837565b610997565b6101186102193660046116d6565b610ada565b61011861022c36600461167a565b610b45565b61012361023f3660046116d6565b610be4565b6101186102523660046116d6565b610c62565b610123601e5481565b60205461018c906001600160a01b031681565b6001546001600160a01b03163314806102a057503360009081526012602052604090205460ff1615156001145b6102c55760405162461bcd60e51b81526004016102bc90611898565b60405180910390fd5b601d54156102e55760405162461bcd60e51b81526004016102bc906118dc565b601b546102f29082611902565b905060006001600160a01b0316601b828154811061031257610312611916565b6000918252602090912001546001600160a01b0316036103445760405162461bcd60e51b81526004016102bc90611960565b601b818154811061035757610357611916565b6000918252602091829020015481546001600160a01b0319166001600160a01b03909116179055610389816064611986565b601d819055506103be6040518060600160405280602281526020016122876022913960205483906001600160a01b0316610e79565b602054601c546040516001600160a01b03909216918391907f834b47baa23e5c7950911d6acd70b127b15d807ee548e2db70d8415efbdf29f390600090a450565b610407611644565b610412600283610ec5565b92915050565b60055482906001600160a01b038083169116146104475760405162461bcd60e51b81526004016102bc906119c1565b336000908152600b602090815260408083206001600160a01b038716845290915290205482111561048a5760405162461bcd60e51b81526004016102bc906119fc565b336000908152600b602090815260408083206001600160a01b0387168452909152812080548492906104bd908490611a0c565b9091555050604080516060810182528381524260208083019182526000838501818152338252600a83528582206001600160a01b038a16835290925293909320825181559051600180830191909155925160028083018054949593949293909260ff191691849081111561053357610533611a1f565b0217905550506040518391506001600160a01b0385169033907f04c56a409d50971e45c5a2d96e5d557d2b0f1d66d40f14b141e4c958b0f39b3290600090a4505050565b6001546001600160a01b03163314806105a457503360009081526012602052604090205460ff1615156001145b6105c05760405162461bcd60e51b81526004016102bc90611898565b60648111156105e15760405162461bcd60e51b81526004016102bc90611a5b565b600c8190556040517f2a6f1084651542f3142c70f4c43c096d016a8b517c063660b146268f646ea43a906106169083906116a3565b60405180910390a150565b61064560405180606001604052806000815260200160008152602001600081525090565b601b546106529085611902565b6005549094506001600160a01b038481169116146106825760405162461bcd60e51b81526004016102bc90611a9f565b6040516323b872dd60e01b81526001600160a01b038416906323b872dd906106b290339030908790600401611aaf565b6020604051808303816000875af11580156106d1573d6000803e3d6000fd5b505050506040513d601f19601f820116820180604052508101906106f59190611ae2565b6107115760405162461bcd60e51b81526004016102bc90611b29565b61071d60028484611009565b600754601c5482516040516340b0e18560e01b81529394506001600160a01b03909216926340b0e185926107579291889190600401611b39565b6020604051808303816000875af1158015610776573d6000803e3d6000fd5b505050506040513d601f19601f8201168201806040525081019061079a9190611b52565b5080516107ab906002908590611156565b60006107e4601b86815481106107c3576107c3611916565b6000918252602090912001546005546001600160a01b039182169116611291565b905060006107f382600a611c81565b83602001516108029190611c96565b90506108526040518060600160405280602681526020016122316026913982601b898154811061083457610834611916565b6000918252602090912001546001600160a01b031660ff86166113a9565b601b868154811061086557610865611916565b6000918252602090912001546040516340c10f1960e01b81526001600160a01b03909116906340c10f19906108a09033908590600401611cb5565b600060405180830381600087803b1580156108ba57600080fd5b505af11580156108ce573d6000803e3d6000fd5b505050506109246040518060600160405280603081526020016122576030913987601b898154811061090257610902611916565b60009182526020918290200154908701516001600160a01b03909116906113a9565b8260200151601b878154811061093c5761093c611916565b600091825260209091200154601c546040516001600160a01b03909216917fcfd574d494b356a2fcc316cd46853105cc64f840435a22422853ef7ee192952290610987908b906116a3565b60405180910390a4505050505050565b6001546001600160a01b031633146109c15760405162461bcd60e51b81526004016102bc90611cf0565b8015610a05576001600160a01b03821660009081526012602052604090205460ff1615610a005760405162461bcd60e51b81526004016102bc90611d34565b610a3d565b6001600160a01b03821660009081526012602052604090205460ff16610a3d5760405162461bcd60e51b81526004016102bc90611d78565b6001600160a01b0382166000908152601260205260409020805460ff19168215801591909117909155610aa2576040516001600160a01b038316907f3b4a40cccf2058c593542587329dd385be4f0b588db5471fbd9598e56dd7093a90600090a25050565b6040516001600160a01b038316907fef69f7d97228658c92417be1b16b19058315de71fecb435d07b7d23728b6bd3190600090a25050565b6001546001600160a01b0316331480610b0757503360009081526012602052604090205460ff1615156001145b610b235760405162461bcd60e51b81526004016102bc90611898565b600580546001600160a01b0319166001600160a01b0392909216919091179055565b6001546001600160a01b0316331480610b7257503360009081526012602052604090205460ff1615156001145b610b8e5760405162461bcd60e51b81526004016102bc90611898565b6064811115610baf5760405162461bcd60e51b81526004016102bc90611a5b565b600d8190556040517fef51b055f1ac1490e0c230364c65b0a9eca534656954023b56053b78461678e4906106169083906116a3565b604051638379281d60e01b815260009073__$744e6baa1f687d86a909216607c3c50c82$__90638379281d90610c21906002908690600401611d88565b602060405180830381865af4158015610c3e573d6000803e3d6000fd5b505050506040513d601f19601f820116820180604052508101906104129190611b52565b601d54600003610c845760405162461bcd60e51b81526004016102bc90611dd1565b600754602054601c54604051631c5543eb60e31b815260009384936001600160a01b039182169363e2aa1f5893610cc2933393169190600401611aaf565b6040805180830381865afa158015610cde573d6000803e3d6000fd5b505050506040513d601f19601f82011682018060405250810190610d029190611de1565b9150915060008111610d265760405162461bcd60e51b81526004016102bc90611e3b565b602054600554600091610d45916001600160a01b039182169116611291565b90506000610d5482600a611c81565b610d5e9084611c96565b60205460405163095ea7b360e01b81529192506001600160a01b03169063095ea7b390610d919030908890600401611cb5565b6020604051808303816000875af1158015610db0573d6000803e3d6000fd5b505050506040513d601f19601f82011682018060405250810190610dd49190611ae2565b50602054604051632770a7eb60e21b81526001600160a01b0390911690639dc29fac90610e079033908890600401611cb5565b600060405180830381600087803b158015610e2157600080fd5b505af1158015610e35573d6000803e3d6000fd5b5050600554610e5192508791506001600160a01b0316856113f2565b5050505050565b60006a636f6e736f6c652e6c6f679050600080835160208501845afa505050565b610ec0838383604051602401610e9193929190611ea1565b60408051601f198184030181529190526020810180516001600160e01b031663038fd88960e31b17905261158f565b505050565b610ecd611644565b6002830154600384015460405163e6a4390560e01b81526001600160a01b0392831692600092849263e6a4390592610f0b9216908890600401611ece565b602060405180830381865afa158015610f28573d6000803e3d6000fd5b505050506040513d601f19601f82011682018060405250810190610f4c9190611ee7565b90506001600160a01b038116610f745760405162461bcd60e51b81526004016102bc90611f2d565b6000819050600080826001600160a01b0316630902f1ac6040518163ffffffff1660e01b8152600401606060405180830381865afa158015610fba573d6000803e3d6000fd5b505050506040513d601f19601f82011682018060405250810190610fde9190611f6e565b50604080518082019091526001600160701b0392831681529116602082015298975050505050505050565b61102d60405180606001604052806000815260200160008152602001600081525090565b60038401546001600160a01b0384811691161461105c5760405162461bcd60e51b81526004016102bc906119c1565b61106b848386600a015461159b565b6040820181905261107c9083611a0c565b80825261108c90859085906115bb565b602082018190526006850180546000906110a7908490611986565b90915550506040808201516001600160a01b0385166000908152601387016020529182208054919290916110dc908490611986565b9091555050805133600090815260098601602090815260408083206001600160a01b038816845290915281208054909190611118908490611986565b909155505080516001600160a01b0384166000908152600e8601602052604081208054909190611149908490611986565b90915550505b9392505050565b60038301546001600160a01b038381169116146111855760405162461bcd60e51b81526004016102bc90611fde565b6040516370a0823160e01b815281906001600160a01b038416906370a08231906111b3903090600401611793565b602060405180830381865afa1580156111d0573d6000803e3d6000fd5b505050506040513d601f19601f820116820180604052508101906111f49190611b52565b10156112125760405162461bcd60e51b81526004016102bc90612036565b600583015460405163a9059cbb60e01b81526001600160a01b038481169263a9059cbb9261124892909116908590600401611cb5565b6020604051808303816000875af1158015611267573d6000803e3d6000fd5b505050506040513d601f19601f8201168201806040525081019061128b9190611ae2565b50505050565b600080836001600160a01b031663313ce5676040518163ffffffff1660e01b8152600401602060405180830381865afa1580156112d2573d6000803e3d6000fd5b505050506040513d601f19601f820116820180604052508101906112f6919061205a565b90506000836001600160a01b031663313ce5676040518163ffffffff1660e01b8152600401602060405180830381865afa158015611338573d6000803e3d6000fd5b505050506040513d601f19601f8201168201806040525081019061135c919061205a565b9050600092508060ff168260ff16146113a1578060ff168260ff16116113945760405162461bcd60e51b81526004016102bc906120c8565b61139e81836120d8565b92505b505092915050565b61128b848484846040516024016113c394939291906120f5565b60408051601f198184030181529190526020810180516001600160e01b03166327827ee360e11b17905261158f565b6113fa611611565b60055482906001600160a01b038083169116146114295760405162461bcd60e51b81526004016102bc906119c1565b600754601c54604051637e13d27d60e11b815284926001600160a01b03169163fc27a4fa9161145d9190889060040161212f565b602060405180830381865afa15801561147a573d6000803e3d6000fd5b505050506040513d601f19601f8201168201806040525081019061149e9190611b52565b10156114bc5760405162461bcd60e51b81526004016102bc9061217d565b600d546000906114d090600290859061159b565b905060006114de8285611a0c565b600754601c546040516378ce040160e01b81529293506001600160a01b03909116916378ce04019161151891899086908c9060040161218d565b600060405180830381600087803b15801561153257600080fd5b505af1158015611546573d6000803e3d6000fd5b50506040518392506001600160a01b038816915033907fd1c19fbcd4551a5edfb66d43d2e337c04837afda3482b42bdf569a8fccdae5fb90600090a4505050610ec06001600055565b61159881610e58565b50565b600060646115a98385611c96565b6115b391906121c2565b949350505050565b60038301546000906001600160a01b03908116908416036115dd57508061114f565b60006115e98585610ec5565b60208101518151919250906115fe9085611c96565b61160891906121c2565b95945050505050565b6002600054036116335760405162461bcd60e51b81526004016102bc9061220a565b6002600055565b61164261221a565b565b60405180604001604052806002906020820280368337509192915050565b805b811461159857600080fd5b803561041281611662565b60006020828403121561168f5761168f600080fd5b60006115b3848461166f565b805b82525050565b60208101610412828461169b565b60006001600160a01b038216610412565b611664816116b1565b8035610412816116c2565b6000602082840312156116eb576116eb600080fd5b60006115b384846116cb565b6000611703838361169b565b505060200190565b6002818060005b8381101561173757815161172687826116f7565b965060208301925050600101611712565b505050505050565b60408101610412828461170b565b6000806040838503121561176357611763600080fd5b600061176f85856116cb565b92505060206117808582860161166f565b9150509250929050565b61169d816116b1565b60208101610412828461178a565b6000806000606084860312156117b9576117b9600080fd5b60006117c5868661166f565b93505060206117d6868287016116cb565b92505060406117e78682870161166f565b9150509250925092565b6000806040838503121561180757611807600080fd5b600061181385856116cb565b9250506020611780858286016116cb565b801515611664565b803561041281611824565b6000806040838503121561184d5761184d600080fd5b600061185985856116cb565b92505060206117808582860161182c565b60148152600060208201732737ba1037bbb732b91037b91036b0b730b3b2b960611b815291505b5060200190565b602080825281016104128161186a565b601981526000602082017f77696e6e657220616c72656164792064657465726d696e65640000000000000081529150611891565b60208082528101610412816118a8565b634e487b7160e01b600052601260045260246000fd5b600082611911576119116118ec565b500690565b634e487b7160e01b600052603260045260246000fd5b601981526000602082017f6e6f74206120746f6b656e2d6261636b6564206f7074696f6e0000000000000081529150611891565b602080825281016104128161192c565b634e487b7160e01b600052601160045260246000fd5b8082018082111561041257610412611970565b6011815260006020820170151bdad95b881b9bdd08185b1b1bddd959607a1b81529150611891565b6020808252810161041281611999565b6014815260006020820173496e73756666696369656e742062616c616e636560601b81529150611891565b60208082528101610412816119d1565b8181038181111561041257610412611970565b634e487b7160e01b600052602160045260246000fd5b600f81526000602082016e08ccaca40d2e640e8dede40d0d2ced608b1b81529150611891565b6020808252810161041281611a35565b601f81526000602082017f7468697320746f6b656e206973206e6f7420616363657074656420686572650081529150611891565b6020808252810161041281611a6b565b60608101611abd828661178a565b611aca602083018561178a565b6115b3604083018461169b565b805161041281611824565b600060208284031215611af757611af7600080fd5b60006115b38484611ad7565b600f81526000602082016e151c985b9cd9995c8819985a5b1959608a1b81529150611891565b6020808252810161041281611b03565b60608101611abd828661169b565b805161041281611662565b600060208284031215611b6757611b67600080fd5b60006115b38484611b47565b80825b6001851115611bb257808604811115611b9157611b91611970565b6001851615611b9f57908102905b8002611bab8560011c90565b9450611b76565b94509492505050565b600082611bca5750600161114f565b81611bd75750600061114f565b8160018114611bed5760028114611bf757611c24565b600191505061114f565b60ff841115611c0857611c08611970565b8360020a915084821115611c1e57611c1e611970565b5061114f565b5060208310610133831016604e8410600b8410161715611c57575081810a83811115611c5257611c52611970565b61114f565b611c648484846001611b73565b92509050818404811115611c7a57611c7a611970565b0292915050565b600060ff8316925061114f6000198484611bbb565b818102808215838204851417611cae57611cae611970565b5092915050565b60408101611cc3828561178a565b61114f602083018461169b565b600981526000602082016837b7363ca7bbb732b960b91b81529150611891565b6020808252810161041281611cd0565b601c81526000602082017f4164647265737320697320616c72656164792061206d616e616765720000000081529150611891565b6020808252810161041281611d00565b601881526000602082017f41646472657373206973206e6f742061206d616e61676572000000000000000081529150611891565b6020808252810161041281611d44565b828152604081015b61114f602083018461178a565b601981526000602082017f77696e6e6572206e6f74207965742064657465726d696e65640000000000000081529150611891565b6020808252810161041281611d9d565b60008060408385031215611df757611df7600080fd5b6000611e038585611b47565b925050602061178085828601611b47565b601081526000602082016f7061796f757420756e646572666c6f7760801b81529150611891565b6020808252810161041281611e14565b60005b83811015611e66578181015183820152602001611e4e565b50506000910152565b6000611e79825190565b808452602084019350611e90818560208601611e4b565b601f01601f19169290920192915050565b60608082528101611eb28186611e6f565b9050611ec1602083018561169b565b6115b3604083018461178a565b60408101611d90828561178a565b8051610412816116c2565b600060208284031215611efc57611efc600080fd5b60006115b38484611edc565b600e81526000602082016d14185a5c881b9bdd08199bdd5b9960921b81529150611891565b6020808252810161041281611f08565b6001600160701b038116611664565b805161041281611f3d565b63ffffffff8116611664565b805161041281611f57565b600080600060608486031215611f8657611f86600080fd5b6000611f928686611f4c565b9350506020611fa386828701611f4c565b92505060406117e786828701611f63565b60138152600060208201722ab735b737bbb71039ba30b136329031b7b4b760691b81529150611891565b6020808252810161041281611fb4565b602881526000602082017f4d616e6167657220646f6573206e6f7420686176652073756666696369656e748152672062616c616e636560c01b602082015291505b5060400190565b6020808252810161041281611fee565b60ff8116611664565b805161041281612046565b60006020828403121561206f5761206f600080fd5b60006115b3848461204f565b603081526000602082017f7765207265717569726520737461626c6520646563696d616c7320746f20626581526f203c3d206f757220646563696d616c7360801b6020820152915061202f565b602080825281016104128161207b565b60ff91821691908116908282039081111561041257610412611970565b608080825281016121068187611e6f565b9050612115602083018661169b565b612122604083018561178a565b611608606083018461169b565b60408101611d90828561169b565b602381526000602082017f496e73756666696369656e742062616c616e636520696e2054726561737572798152622634b160e91b6020820152915061202f565b602080825281016104128161213d565b6080810161219b828761169b565b6121a8602083018661178a565b6121b5604083018561169b565b611608606083018461178a565b6000826121d1576121d16118ec565b500490565b601f81526000602082017f5265656e7472616e637947756172643a207265656e7472616e742063616c6c0081529150611891565b60208082528101610412816121d6565b634e487b7160e01b600052605160045260246000fdfe6d696e74696e67202573206f66202573207769746820636f6e76657273696f6e206f66202573546f6b656e7357616765726564286f7074696f6e3a2025642c20746f6b656e3a2025732c20616674657246656520257377696e6e696e67496e646578203d2025732077696e6e696e67455243206973202573a2646970667358221220a4a65f74e0b5ee5ab22247ded827c518d7c0299620547aac71e790f66fa4328c64736f6c6343000814003360806040523480156200001157600080fd5b50604051620011d4380380620011d48339810160408190526200003491620001c0565b60408051808201909152600a8152692ba0a3a9102a37b5b2b760b11b6020820152816003620000648382620002fe565b506004620000738282620002fe565b5050600580546001600160a01b0319163317905550620003ce9050565b634e487b7160e01b600052604160045260246000fd5b601f19601f83011681018181106001600160401b0382111715620000ce57620000ce62000090565b6040525050565b6000620000e160405190565b9050620000ef8282620000a6565b919050565b60006001600160401b0382111562000110576200011062000090565b601f19601f83011660200192915050565b60005b838110156200013e57818101518382015260200162000124565b50506000910152565b60006200015e6200015884620000f4565b620000d5565b9050828152602081018484840111156200017b576200017b600080fd5b6200018884828562000121565b509392505050565b600082601f830112620001a657620001a6600080fd5b8151620001b884826020860162000147565b949350505050565b600060208284031215620001d757620001d7600080fd5b81516001600160401b03811115620001f257620001f2600080fd5b620001b88482850162000190565b634e487b7160e01b600052602260045260246000fd5b6002810460018216806200022b57607f821691505b60208210810362000240576200024062000200565b50919050565b600062000257620002548381565b90565b92915050565b620002688362000246565b815460001960089490940293841b1916921b91909117905550565b6000620002928184846200025d565b505050565b81811015620002b657620002ad60008262000283565b60010162000297565b5050565b601f82111562000292576000818152602090206020601f85010481016020851015620002e35750805b620002f76020601f86010483018262000297565b5050505050565b81516001600160401b038111156200031a576200031a62000090565b62000326825462000216565b62000333828285620002ba565b6020601f8311600181146200036a5760008415620003515750858201515b600019600886021c1981166002860217865550620003c6565b600085815260208120601f198616915b828110156200039c57888501518255602094850194600190920191016200037a565b86831015620003b95784890151600019601f89166008021c191682555b6001600288020188555050505b505050505050565b610df680620003de6000396000f3fe608060405234801561001057600080fd5b50600436106100ea5760003560e01c806370a082311161008c5780639dc29fac116100665780639dc29fac146101d9578063a457c2d7146101ec578063a9059cbb146101ff578063dd62ed3e1461021257600080fd5b806370a08231146101885780638da5cb5b146101b157806395d89b41146101d157600080fd5b806323b872dd116100c857806323b872dd1461013e578063313ce56714610151578063395093511461016057806340c10f191461017357600080fd5b806306fdde03146100ef578063095ea7b31461010d57806318160ddd1461012d575b600080fd5b6100f7610225565b6040516101049190610846565b60405180910390f35b61012061011b3660046108a2565b6102b7565b60405161010491906108e9565b6002545b60405161010491906108fd565b61012061014c36600461090b565b6102d1565b60126040516101049190610964565b61012061016e3660046108a2565b6102f5565b6101866101813660046108a2565b610317565b005b610131610196366004610972565b6001600160a01b031660009081526020819052604090205490565b6005546101c4906001600160a01b031681565b60405161010491906109a4565b6100f76103a8565b6101866101e73660046108a2565b6103b7565b6101206101fa3660046108a2565b61043f565b61012061020d3660046108a2565b61047c565b6101316102203660046109b2565b61048a565b606060038054610234906109fb565b80601f0160208091040260200160405190810160405280929190818152602001828054610260906109fb565b80156102ad5780601f10610282576101008083540402835291602001916102ad565b820191906000526020600020905b81548152906001019060200180831161029057829003601f168201915b5050505050905090565b6000336102c58185856104b5565b60019150505b92915050565b6000336102df858285610569565b6102ea8585856105b3565b506001949350505050565b6000336102c5818585610308838361048a565b6103129190610a3d565b6104b5565b6005546001600160a01b0316331461034a5760405162461bcd60e51b815260040161034190610a73565b60405180910390fd5b61035482826106a3565b816001600160a01b031681610367610225565b6040516103749190610aa5565b604051908190038120907f4ea4bf17c5d37efa096557e3ee29e15f25874692825bbab99f91e024a582864690600090a45050565b606060048054610234906109fb565b6005546001600160a01b031633146103e15760405162461bcd60e51b815260040161034190610a73565b6103eb8282610739565b816001600160a01b0316816103fe610225565b60405161040b9190610aa5565b604051908190038120907feb236328ada1ed26bdd57999a13f2ec8173e3935919da1161f6bb7965d93931790600090a45050565b6000338161044d828661048a565b90508381101561046f5760405162461bcd60e51b815260040161034190610af6565b6102ea82868684036104b5565b6000336102c58185856105b3565b6001600160a01b03918216600090815260016020908152604080832093909416825291909152205490565b6001600160a01b0383166104db5760405162461bcd60e51b815260040161034190610b47565b6001600160a01b0382166105015760405162461bcd60e51b815260040161034190610b96565b6001600160a01b0380841660008181526001602090815260408083209487168084529490915290819020849055517f8c5be1e5ebec7d5bd14f71427d1e84f3dd0314c0f7b2291e5b200ac8c7c3b9259061055c9085906108fd565b60405180910390a3505050565b6000610575848461048a565b905060001981146105ad57818110156105a05760405162461bcd60e51b815260040161034190610bda565b6105ad84848484036104b5565b50505050565b6001600160a01b0383166105d95760405162461bcd60e51b815260040161034190610c2c565b6001600160a01b0382166105ff5760405162461bcd60e51b815260040161034190610c7c565b6001600160a01b038316600090815260208190526040902054818110156106385760405162461bcd60e51b815260040161034190610ccf565b6001600160a01b0380851660008181526020819052604080822086860390559286168082529083902080548601905591517fddf252ad1be2c89b69c2b068fc378daa952ba7f163c4a11628f55a4df523b3ef906106969086906108fd565b60405180910390a36105ad565b6001600160a01b0382166106c95760405162461bcd60e51b815260040161034190610d13565b80600260008282546106db9190610a3d565b90915550506001600160a01b038216600081815260208190526040808220805485019055517fddf252ad1be2c89b69c2b068fc378daa952ba7f163c4a11628f55a4df523b3ef9061072d9085906108fd565b60405180910390a35050565b6001600160a01b03821661075f5760405162461bcd60e51b815260040161034190610d61565b6001600160a01b038216600090815260208190526040902054818110156107985760405162461bcd60e51b815260040161034190610db0565b6001600160a01b0383166000818152602081905260408082208585039055600280548690039055519091907fddf252ad1be2c89b69c2b068fc378daa952ba7f163c4a11628f55a4df523b3ef9061055c9086906108fd565b60005b8381101561080b5781810151838201526020016107f3565b50506000910152565b600061081e825190565b8084526020840193506108358185602086016107f0565b601f01601f19169290920192915050565b602080825281016108578184610814565b9392505050565b60006001600160a01b0382166102cb565b6108788161085e565b811461088357600080fd5b50565b80356102cb8161086f565b80610878565b80356102cb81610891565b600080604083850312156108b8576108b8600080fd5b60006108c48585610886565b92505060206108d585828601610897565b9150509250929050565b8015155b82525050565b602081016102cb82846108df565b806108e3565b602081016102cb82846108f7565b60008060006060848603121561092357610923600080fd5b600061092f8686610886565b935050602061094086828701610886565b925050604061095186828701610897565b9150509250925092565b60ff81166108e3565b602081016102cb828461095b565b60006020828403121561098757610987600080fd5b60006109938484610886565b949350505050565b6108e38161085e565b602081016102cb828461099b565b600080604083850312156109c8576109c8600080fd5b60006109d48585610886565b92505060206108d585828601610886565b634e487b7160e01b600052602260045260246000fd5b600281046001821680610a0f57607f821691505b602082108103610a2157610a216109e5565b50919050565b634e487b7160e01b600052601160045260246000fd5b808201808211156102cb576102cb610a27565b600981526000602082016837b7363ca7bbb732b960b91b815291505b5060200190565b602080825281016102cb81610a50565b6000610a8d825190565b610a9b8185602086016107f0565b9290920192915050565b60006108578284610a83565b602581526000602082017f45524332303a2064656372656173656420616c6c6f77616e63652062656c6f77815264207a65726f60d81b602082015291505b5060400190565b602080825281016102cb81610ab1565b602481526000602082017f45524332303a20617070726f76652066726f6d20746865207a65726f206164648152637265737360e01b60208201529150610aef565b602080825281016102cb81610b06565b602281526000602082017f45524332303a20617070726f766520746f20746865207a65726f206164647265815261737360f01b60208201529150610aef565b602080825281016102cb81610b57565b601d81526000602082017f45524332303a20696e73756666696369656e7420616c6c6f77616e636500000081529150610a6c565b602080825281016102cb81610ba6565b602581526000602082017f45524332303a207472616e736665722066726f6d20746865207a65726f206164815264647265737360d81b60208201529150610aef565b602080825281016102cb81610bea565b602381526000602082017f45524332303a207472616e7366657220746f20746865207a65726f206164647281526265737360e81b60208201529150610aef565b602080825281016102cb81610c3c565b602681526000602082017f45524332303a207472616e7366657220616d6f756e7420657863656564732062815265616c616e636560d01b60208201529150610aef565b602080825281016102cb81610c8c565b601f81526000602082017f45524332303a206d696e7420746f20746865207a65726f20616464726573730081529150610a6c565b602080825281016102cb81610cdf565b602181526000602082017f45524332303a206275726e2066726f6d20746865207a65726f206164647265738152607360f81b60208201529150610aef565b602080825281016102cb81610d23565b602281526000602082017f45524332303a206275726e20616d6f756e7420657863656564732062616c616e815261636560f01b60208201529150610aef565b602080825281016102cb81610d7156fea26469706673582212201f30cc24f5f41dd980e71bae5cec86bc87805ac407b303c9b533521521fcab5764736f6c63430008140033",
  "linkReferences": {
    "libs/ManagerLib.sol": {
      "ManagerLib": [
        {
          "length": 20,
          "start": 4646
        }
      ]
    }
  },
  "deployedLinkReferences": {
    "libs/ManagerLib.sol": {
      "ManagerLib": [
        {
          "length": 20,
          "start": 3062
        }
      ]
    }
  }
}