{
  "_format": "hh-sol-artifact-1",
  "contractName": "SingleStake",
  "sourceName": "SingleStake.sol",
  "abi": [
    {
      "inputs": [
        {
          "internalType": "bytes32",
          "name": "gameID",
          "type": "bytes32"
        },
        {
          "internalType": "address",
          "name": "usdc",
          "type": "address"
        },
        {
          "internalType": "address",
          "name": "nfticket",
          "type": "address"
        },
        {
          "internalType": "address",
          "name": "treasury",
          "type": "address"
        },
        {
          "internalType": "uint256",
          "name": "_noOfOptions",
          "type": "uint256"
        }
      ],
      "stateMutability": "nonpayable",
      "type": "constructor"
    },
    {
      "inputs": [
        {
          "internalType": "address",
          "name": "sender",
          "type": "address"
        },
        {
          "internalType": "uint256",
          "name": "balance",
          "type": "uint256"
        },
        {
          "internalType": "uint256",
          "name": "needed",
          "type": "uint256"
        },
        {
          "internalType": "uint256",
          "name": "tokenId",
          "type": "uint256"
        }
      ],
      "name": "ERC1155InsufficientBalance",
      "type": "error"
    },
    {
      "inputs": [
        {
          "internalType": "address",
          "name": "approver",
          "type": "address"
        }
      ],
      "name": "ERC1155InvalidApprover",
      "type": "error"
    },
    {
      "inputs": [
        {
          "internalType": "uint256",
          "name": "idsLength",
          "type": "uint256"
        },
        {
          "internalType": "uint256",
          "name": "valuesLength",
          "type": "uint256"
        }
      ],
      "name": "ERC1155InvalidArrayLength",
      "type": "error"
    },
    {
      "inputs": [
        {
          "internalType": "address",
          "name": "operator",
          "type": "address"
        }
      ],
      "name": "ERC1155InvalidOperator",
      "type": "error"
    },
    {
      "inputs": [
        {
          "internalType": "address",
          "name": "receiver",
          "type": "address"
        }
      ],
      "name": "ERC1155InvalidReceiver",
      "type": "error"
    },
    {
      "inputs": [
        {
          "internalType": "address",
          "name": "sender",
          "type": "address"
        }
      ],
      "name": "ERC1155InvalidSender",
      "type": "error"
    },
    {
      "inputs": [
        {
          "internalType": "address",
          "name": "operator",
          "type": "address"
        },
        {
          "internalType": "address",
          "name": "owner",
          "type": "address"
        }
      ],
      "name": "ERC1155MissingApprovalForAll",
      "type": "error"
    },
    {
      "inputs": [],
      "name": "ReentrancyGuardReentrantCall",
      "type": "error"
    },
    {
      "anonymous": false,
      "inputs": [
        {
          "indexed": true,
          "internalType": "address",
          "name": "account",
          "type": "address"
        },
        {
          "indexed": true,
          "internalType": "address",
          "name": "operator",
          "type": "address"
        },
        {
          "indexed": false,
          "internalType": "bool",
          "name": "approved",
          "type": "bool"
        }
      ],
      "name": "ApprovalForAll",
      "type": "event"
    },
    {
      "anonymous": false,
      "inputs": [
        {
          "indexed": false,
          "internalType": "uint256",
          "name": "newFee",
          "type": "uint256"
        }
      ],
      "name": "DepositFeeChanged",
      "type": "event"
    },
    {
      "anonymous": false,
      "inputs": [
        {
          "indexed": true,
          "internalType": "address",
          "name": "manager",
          "type": "address"
        }
      ],
      "name": "ManagerAdded",
      "type": "event"
    },
    {
      "anonymous": false,
      "inputs": [
        {
          "indexed": true,
          "internalType": "address",
          "name": "manager",
          "type": "address"
        }
      ],
      "name": "ManagerRemoved",
      "type": "event"
    },
    {
      "anonymous": false,
      "inputs": [
        {
          "indexed": true,
          "internalType": "bytes32",
          "name": "_name",
          "type": "bytes32"
        },
        {
          "indexed": true,
          "internalType": "uint256",
          "name": "winningIndex",
          "type": "uint256"
        }
      ],
      "name": "StakeResolved",
      "type": "event"
    },
    {
      "anonymous": false,
      "inputs": [
        {
          "indexed": true,
          "internalType": "address",
          "name": "treasuryAddress",
          "type": "address"
        }
      ],
      "name": "StakeTreasuryCreated",
      "type": "event"
    },
    {
      "anonymous": false,
      "inputs": [
        {
          "indexed": true,
          "internalType": "address",
          "name": "tokenIn",
          "type": "address"
        },
        {
          "indexed": true,
          "internalType": "address",
          "name": "tokenOut",
          "type": "address"
        },
        {
          "indexed": true,
          "internalType": "uint256",
          "name": "amountIn",
          "type": "uint256"
        },
        {
          "indexed": false,
          "internalType": "uint256",
          "name": "amountOutMin",
          "type": "uint256"
        }
      ],
      "name": "SwapExactTokens",
      "type": "event"
    },
    {
      "anonymous": false,
      "inputs": [
        {
          "indexed": false,
          "internalType": "uint256",
          "name": "amountOut",
          "type": "uint256"
        }
      ],
      "name": "SwapExactTokensSuccess",
      "type": "event"
    },
    {
      "anonymous": false,
      "inputs": [
        {
          "indexed": true,
          "internalType": "address",
          "name": "recipient",
          "type": "address"
        },
        {
          "indexed": true,
          "internalType": "uint256",
          "name": "ticketID",
          "type": "uint256"
        },
        {
          "indexed": true,
          "internalType": "uint256",
          "name": "serviceDescriptor",
          "type": "uint256"
        }
      ],
      "name": "TicketIssued",
      "type": "event"
    },
    {
      "anonymous": false,
      "inputs": [
        {
          "indexed": true,
          "internalType": "address",
          "name": "token",
          "type": "address"
        }
      ],
      "name": "TokenAllowed",
      "type": "event"
    },
    {
      "anonymous": false,
      "inputs": [
        {
          "indexed": true,
          "internalType": "address",
          "name": "token",
          "type": "address"
        }
      ],
      "name": "TokenDisallowed",
      "type": "event"
    },
    {
      "anonymous": false,
      "inputs": [
        {
          "indexed": true,
          "internalType": "bytes32",
          "name": "_name",
          "type": "bytes32"
        },
        {
          "indexed": true,
          "internalType": "uint256",
          "name": "option",
          "type": "uint256"
        },
        {
          "indexed": true,
          "internalType": "uint256",
          "name": "totalLP",
          "type": "uint256"
        }
      ],
      "name": "TokensWagered",
      "type": "event"
    },
    {
      "anonymous": false,
      "inputs": [
        {
          "indexed": true,
          "internalType": "address",
          "name": "operator",
          "type": "address"
        },
        {
          "indexed": true,
          "internalType": "address",
          "name": "from",
          "type": "address"
        },
        {
          "indexed": true,
          "internalType": "address",
          "name": "to",
          "type": "address"
        },
        {
          "indexed": false,
          "internalType": "uint256[]",
          "name": "ids",
          "type": "uint256[]"
        },
        {
          "indexed": false,
          "internalType": "uint256[]",
          "name": "values",
          "type": "uint256[]"
        }
      ],
      "name": "TransferBatch",
      "type": "event"
    },
    {
      "anonymous": false,
      "inputs": [
        {
          "indexed": true,
          "internalType": "address",
          "name": "operator",
          "type": "address"
        },
        {
          "indexed": true,
          "internalType": "address",
          "name": "from",
          "type": "address"
        },
        {
          "indexed": true,
          "internalType": "address",
          "name": "to",
          "type": "address"
        },
        {
          "indexed": false,
          "internalType": "uint256",
          "name": "id",
          "type": "uint256"
        },
        {
          "indexed": false,
          "internalType": "uint256",
          "name": "value",
          "type": "uint256"
        }
      ],
      "name": "TransferSingle",
      "type": "event"
    },
    {
      "anonymous": false,
      "inputs": [
        {
          "indexed": false,
          "internalType": "string",
          "name": "value",
          "type": "string"
        },
        {
          "indexed": true,
          "internalType": "uint256",
          "name": "id",
          "type": "uint256"
        }
      ],
      "name": "URI",
      "type": "event"
    },
    {
      "anonymous": false,
      "inputs": [
        {
          "indexed": false,
          "internalType": "uint256",
          "name": "newFee",
          "type": "uint256"
        }
      ],
      "name": "WithdrawFeeChanged",
      "type": "event"
    },
    {
      "anonymous": false,
      "inputs": [
        {
          "indexed": true,
          "internalType": "address",
          "name": "user",
          "type": "address"
        },
        {
          "indexed": true,
          "internalType": "address",
          "name": "token",
          "type": "address"
        },
        {
          "indexed": true,
          "internalType": "uint256",
          "name": "amount",
          "type": "uint256"
        }
      ],
      "name": "WithdrawalApproved",
      "type": "event"
    },
    {
      "anonymous": false,
      "inputs": [
        {
          "indexed": true,
          "internalType": "address",
          "name": "user",
          "type": "address"
        },
        {
          "indexed": true,
          "internalType": "address",
          "name": "token",
          "type": "address"
        },
        {
          "indexed": true,
          "internalType": "uint256",
          "name": "amount",
          "type": "uint256"
        }
      ],
      "name": "WithdrawalRejected",
      "type": "event"
    },
    {
      "anonymous": false,
      "inputs": [
        {
          "indexed": true,
          "internalType": "address",
          "name": "user",
          "type": "address"
        },
        {
          "indexed": true,
          "internalType": "address",
          "name": "token",
          "type": "address"
        },
        {
          "indexed": true,
          "internalType": "uint256",
          "name": "amount",
          "type": "uint256"
        }
      ],
      "name": "WithdrawalRequested",
      "type": "event"
    },
    {
      "anonymous": false,
      "inputs": [
        {
          "indexed": true,
          "internalType": "address",
          "name": "user",
          "type": "address"
        },
        {
          "indexed": true,
          "internalType": "address",
          "name": "token",
          "type": "address"
        },
        {
          "indexed": true,
          "internalType": "uint256",
          "name": "amount",
          "type": "uint256"
        }
      ],
      "name": "Withdrawn",
      "type": "event"
    },
    {
      "inputs": [
        {
          "internalType": "address",
          "name": "account",
          "type": "address"
        },
        {
          "internalType": "uint256",
          "name": "id",
          "type": "uint256"
        }
      ],
      "name": "balanceOf",
      "outputs": [
        {
          "internalType": "uint256",
          "name": "",
          "type": "uint256"
        }
      ],
      "stateMutability": "view",
      "type": "function"
    },
    {
      "inputs": [
        {
          "internalType": "address[]",
          "name": "accounts",
          "type": "address[]"
        },
        {
          "internalType": "uint256[]",
          "name": "ids",
          "type": "uint256[]"
        }
      ],
      "name": "balanceOfBatch",
      "outputs": [
        {
          "internalType": "uint256[]",
          "name": "",
          "type": "uint256[]"
        }
      ],
      "stateMutability": "view",
      "type": "function"
    },
    {
      "inputs": [
        {
          "internalType": "address",
          "name": "sendTo",
          "type": "address"
        }
      ],
      "name": "cashOut",
      "outputs": [],
      "stateMutability": "nonpayable",
      "type": "function"
    },
    {
      "inputs": [],
      "name": "companyDescriptor",
      "outputs": [
        {
          "internalType": "uint256",
          "name": "",
          "type": "uint256"
        }
      ],
      "stateMutability": "view",
      "type": "function"
    },
    {
      "inputs": [
        {
          "internalType": "uint256",
          "name": "option",
          "type": "uint256"
        },
        {
          "internalType": "address",
          "name": "erc20Contract",
          "type": "address"
        },
        {
          "internalType": "uint256",
          "name": "stakedAmount",
          "type": "uint256"
        }
      ],
      "name": "create_stake",
      "outputs": [],
      "stateMutability": "nonpayable",
      "type": "function"
    },
    {
      "inputs": [
        {
          "internalType": "address",
          "name": "_wallet",
          "type": "address"
        },
        {
          "internalType": "address",
          "name": "erc20Contract",
          "type": "address"
        }
      ],
      "name": "deposits",
      "outputs": [
        {
          "internalType": "uint256",
          "name": "",
          "type": "uint256"
        }
      ],
      "stateMutability": "view",
      "type": "function"
    },
    {
      "inputs": [
        {
          "internalType": "uint256",
          "name": "id",
          "type": "uint256"
        }
      ],
      "name": "exists",
      "outputs": [
        {
          "internalType": "bool",
          "name": "",
          "type": "bool"
        }
      ],
      "stateMutability": "view",
      "type": "function"
    },
    {
      "inputs": [
        {
          "internalType": "uint256",
          "name": "score",
          "type": "uint256"
        }
      ],
      "name": "getRatio",
      "outputs": [
        {
          "internalType": "uint256[2]",
          "name": "ratio",
          "type": "uint256[2]"
        }
      ],
      "stateMutability": "view",
      "type": "function"
    },
    {
      "inputs": [],
      "name": "getRatios",
      "outputs": [
        {
          "internalType": "uint256[]",
          "name": "",
          "type": "uint256[]"
        }
      ],
      "stateMutability": "view",
      "type": "function"
    },
    {
      "inputs": [
        {
          "internalType": "address",
          "name": "staker",
          "type": "address"
        }
      ],
      "name": "getStakes",
      "outputs": [
        {
          "internalType": "uint256[]",
          "name": "",
          "type": "uint256[]"
        }
      ],
      "stateMutability": "view",
      "type": "function"
    },
    {
      "inputs": [],
      "name": "getUniswapRouter",
      "outputs": [
        {
          "internalType": "address",
          "name": "",
          "type": "address"
        }
      ],
      "stateMutability": "view",
      "type": "function"
    },
    {
      "inputs": [
        {
          "internalType": "address",
          "name": "account",
          "type": "address"
        },
        {
          "internalType": "address",
          "name": "operator",
          "type": "address"
        }
      ],
      "name": "isApprovedForAll",
      "outputs": [
        {
          "internalType": "bool",
          "name": "",
          "type": "bool"
        }
      ],
      "stateMutability": "view",
      "type": "function"
    },
    {
      "inputs": [],
      "name": "owner",
      "outputs": [
        {
          "internalType": "address",
          "name": "",
          "type": "address"
        }
      ],
      "stateMutability": "view",
      "type": "function"
    },
    {
      "inputs": [
        {
          "internalType": "address",
          "name": "from",
          "type": "address"
        },
        {
          "internalType": "address",
          "name": "to",
          "type": "address"
        },
        {
          "internalType": "uint256[]",
          "name": "ids",
          "type": "uint256[]"
        },
        {
          "internalType": "uint256[]",
          "name": "values",
          "type": "uint256[]"
        },
        {
          "internalType": "bytes",
          "name": "data",
          "type": "bytes"
        }
      ],
      "name": "safeBatchTransferFrom",
      "outputs": [],
      "stateMutability": "nonpayable",
      "type": "function"
    },
    {
      "inputs": [
        {
          "internalType": "address",
          "name": "from",
          "type": "address"
        },
        {
          "internalType": "address",
          "name": "to",
          "type": "address"
        },
        {
          "internalType": "uint256",
          "name": "id",
          "type": "uint256"
        },
        {
          "internalType": "uint256",
          "name": "value",
          "type": "uint256"
        },
        {
          "internalType": "bytes",
          "name": "data",
          "type": "bytes"
        }
      ],
      "name": "safeTransferFrom",
      "outputs": [],
      "stateMutability": "nonpayable",
      "type": "function"
    },
    {
      "inputs": [],
      "name": "serviceDescriptor",
      "outputs": [
        {
          "internalType": "uint256",
          "name": "",
          "type": "uint256"
        }
      ],
      "stateMutability": "view",
      "type": "function"
    },
    {
      "inputs": [
        {
          "internalType": "address",
          "name": "operator",
          "type": "address"
        },
        {
          "internalType": "bool",
          "name": "approved",
          "type": "bool"
        }
      ],
      "name": "setApprovalForAll",
      "outputs": [],
      "stateMutability": "nonpayable",
      "type": "function"
    },
    {
      "inputs": [
        {
          "internalType": "uint256",
          "name": "_fee",
          "type": "uint256"
        }
      ],
      "name": "setDepositFee",
      "outputs": [],
      "stateMutability": "nonpayable",
      "type": "function"
    },
    {
      "inputs": [
        {
          "internalType": "address",
          "name": "_manager",
          "type": "address"
        },
        {
          "internalType": "bool",
          "name": "_status",
          "type": "bool"
        }
      ],
      "name": "setManager",
      "outputs": [],
      "stateMutability": "nonpayable",
      "type": "function"
    },
    {
      "inputs": [
        {
          "internalType": "address",
          "name": "_usdc",
          "type": "address"
        }
      ],
      "name": "setUSDCAddress",
      "outputs": [],
      "stateMutability": "nonpayable",
      "type": "function"
    },
    {
      "inputs": [
        {
          "internalType": "uint256",
          "name": "winningIndex",
          "type": "uint256"
        }
      ],
      "name": "setWinner",
      "outputs": [],
      "stateMutability": "nonpayable",
      "type": "function"
    },
    {
      "inputs": [
        {
          "internalType": "uint256",
          "name": "_fee",
          "type": "uint256"
        }
      ],
      "name": "setWithdrawFee",
      "outputs": [],
      "stateMutability": "nonpayable",
      "type": "function"
    },
    {
      "inputs": [
        {
          "internalType": "bytes4",
          "name": "interfaceId",
          "type": "bytes4"
        }
      ],
      "name": "supportsInterface",
      "outputs": [
        {
          "internalType": "bool",
          "name": "",
          "type": "bool"
        }
      ],
      "stateMutability": "view",
      "type": "function"
    },
    {
      "inputs": [],
      "name": "totalSupply",
      "outputs": [
        {
          "internalType": "uint256",
          "name": "",
          "type": "uint256"
        }
      ],
      "stateMutability": "view",
      "type": "function"
    },
    {
      "inputs": [
        {
          "internalType": "uint256",
          "name": "id",
          "type": "uint256"
        }
      ],
      "name": "totalSupply",
      "outputs": [
        {
          "internalType": "uint256",
          "name": "",
          "type": "uint256"
        }
      ],
      "stateMutability": "view",
      "type": "function"
    },
    {
      "inputs": [
        {
          "internalType": "uint256",
          "name": "",
          "type": "uint256"
        }
      ],
      "name": "uri",
      "outputs": [
        {
          "internalType": "string",
          "name": "",
          "type": "string"
        }
      ],
      "stateMutability": "view",
      "type": "function"
    }
  ],
  "bytecode": "0x60e0604052602b6080818152906200389560a0396006906200002290826200040f565b503480156200003057600080fd5b50604051620038c0380380620038c0833981016040819052620000539162000527565b6006805462000062906200032b565b80601f016020809104026020016040519081016040528092919081815260200182805462000090906200032b565b8015620000e15780601f10620000b557610100808354040283529160200191620000e1565b820191906000526020600020905b815481529060010190602001808311620000c357829003601f168201915b5050600160005550620000f8915082905062000286565b5060078054336001600160a01b031991821617909155600c805482166001600160a01b0386811691909117909155600d80548316858316179055600b80549092169086161790556000600e819055600f5561080360278190556200016190600160fb1b620005c1565b6028556021859055600060128190556005601355601481905560155560238190556200018f816002620005d7565b6001600160401b03811115620001a957620001a9620002ff565b604051908082528060200260200182016040528015620001d3578160200160208202803683370190505b508051620001ea9160249160209091019062000298565b5060005b602354620001fe906002620005d7565b8110156200027a57620002136002826200060f565b6024828154811062000229576200022962000626565b6000918252602082200191909155602462000246836001620005c1565b8154811062000259576200025962000626565b60009182526020909120015562000272600282620005c1565b9050620001ee565b5050505050506200063c565b60036200029482826200040f565b5050565b828054828255906000526020600020908101928215620002d6579160200282015b82811115620002d6578251825591602001919060010190620002b9565b50620002e4929150620002e8565b5090565b5b80821115620002e45760008155600101620002e9565b634e487b7160e01b600052604160045260246000fd5b634e487b7160e01b600052602260045260246000fd5b6002810460018216806200034057607f821691505b60208210810362000355576200035562000315565b50919050565b60006200036c620003698381565b90565b92915050565b6200037d836200035b565b815460001960089490940293841b1916921b91909117905550565b6000620003a781848462000372565b505050565b818110156200029457620003c260008262000398565b600101620003ac565b601f821115620003a7576000818152602090206020601f85010481016020851015620003f45750805b620004086020601f860104830182620003ac565b5050505050565b81516001600160401b038111156200042b576200042b620002ff565b6200043782546200032b565b62000444828285620003cb565b6020601f8311600181146200047b5760008415620004625750858201515b600019600886021c1981166002860217865550620004d7565b600085815260208120601f198616915b82811015620004ad57888501518255602094850194600190920191016200048b565b86831015620004ca5784890151600019601f89166008021c191682555b6001600288020188555050505b505050505050565b805b8114620004ed57600080fd5b50565b80516200036c81620004df565b60006001600160a01b0382166200036c565b620004e181620004fd565b80516200036c816200050f565b600080600080600060a08688031215620005445762000544600080fd5b6000620005528888620004f0565b955050602062000565888289016200051a565b945050604062000578888289016200051a565b93505060606200058b888289016200051a565b92505060806200059e88828901620004f0565b9150509295509295909350565b634e487b7160e01b600052601160045260246000fd5b808201808211156200036c576200036c620005ab565b818102808215838204851417620005f257620005f2620005ab565b5092915050565b634e487b7160e01b600052601260045260246000fd5b600082620006215762000621620005f9565b500490565b634e487b7160e01b600052603260045260246000fd5b613249806200064c6000396000f3fe608060405234801561001057600080fd5b506004361061018d5760003560e01c80637ba6f458116100de578063b13c86a311610097578063d8a7136411610071578063d8a71364146103a9578063e985e9c5146103bc578063eb3ab433146103cf578063f242432a146103d857600080fd5b8063b13c86a31461036e578063b6ac642a14610376578063bd85b0391461038957600080fd5b80637ba6f458146102d65780638da5cb5b146102e95780638f601f66146102fc578063a22cb46514610335578063a5e90eee14610348578063aaf5bfc31461035b57600080fd5b80632eb2c2d61161014b5780634e1273f4116101255780634e1273f4146102675780634f558e7914610287578063524900b5146102a957806375121321146102c357600080fd5b80632eb2c2d61461022157806346a62eaf14610234578063490ae2101461025457600080fd5b8062fdd58e1461019257806301ffc9a7146101bb5780630df71602146101db5780630e89341c146101f057806318160ddd14610210578063189c92b914610218575b600080fd5b6101a56101a03660046121b8565b6103eb565b6040516101b291906121fd565b60405180910390f35b6101ce6101c9366004612226565b610415565b6040516101b2919061224f565b6101ee6101e936600461225d565b610465565b005b6102036101fe36600461225d565b610526565b6040516101b291906122d4565b6005546101a5565b6101a560285481565b6101ee61022f366004612476565b6105ba565b61024761024236600461225d565b610612565b6040516101b2919061257f565b6101ee61026236600461225d565b610699565b61027a610275366004612602565b610743565b6040516101b291906126b3565b6101ce61029536600461225d565b600090815260046020526040902054151590565b6009546001600160a01b03165b6040516101b291906126cd565b6101ee6102d13660046126db565b610811565b61027a6102e436600461272b565b610ad1565b6007546102b6906001600160a01b031681565b6101a561030a36600461274c565b6001600160a01b03918216600090815260116020908152604080832093909416825291909152205490565b6101ee610343366004612792565b610b3c565b6101ee610356366004612792565b610b4b565b6101ee61036936600461272b565b610c8e565b61027a610cf9565b6101ee61038436600461225d565b610d51565b6101a561039736600461225d565b60009081526004602052604090205490565b6101ee6103b736600461272b565b610df0565b6101ce6103ca36600461274c565b611047565b6101a560275481565b6101ee6103e63660046127c5565b611075565b60008181526001602090815260408083206001600160a01b03861684529091529020545b92915050565b60006001600160e01b03198216636cdb3d1360e11b148061044657506001600160e01b031982166303a24d0760e21b145b8061040f57506301ffc9a760e01b6001600160e01b031983161461040f565b6007546001600160a01b031633148061049257503360009081526018602052604090205460ff1615156001145b6104b75760405162461bcd60e51b81526004016104ae9061284d565b60405180910390fd5b602254156104d75760405162461bcd60e51b81526004016104ae90612891565b6023546104e490826128b7565b90506104f18160646128e1565b6022556021546040518291907fca7b1fff94ccaaa3ed0d36fdb1d750075e1236e444d4e0b61a8396334cac928890600090a350565b6060600380546105359061290a565b80601f01602080910402602001604051908101604052809291908181526020018280546105619061290a565b80156105ae5780601f10610583576101008083540402835291602001916105ae565b820191906000526020600020905b81548152906001019060200180831161059157829003601f168201915b50505050509050919050565b336001600160a01b03861681148015906105db57506105d98682611047565b155b156105fd57808660405163711bec9160e11b81526004016104ae929190612936565b61060a86868686866110c5565b505050505050565b61061a612127565b6106596040518060400160405280601d81526020017f66696e64696e6720726174696f20666f72206f7074696f6e203d2025730000008152508361112c565b600554815260008281526004602052604090205460208201819052815110156106945760405162461bcd60e51b81526004016104ae906129ab565b919050565b6007546001600160a01b03163314806106c657503360009081526018602052604090205460ff1615156001145b6106e25760405162461bcd60e51b81526004016104ae9061284d565b60648111156107035760405162461bcd60e51b81526004016104ae906129e1565b60128190556040517f2a6f1084651542f3142c70f4c43c096d016a8b517c063660b146268f646ea43a906107389083906121fd565b60405180910390a150565b6060815183511461076d5781518351604051635b05999160e01b81526004016104ae9291906129f1565b6000835167ffffffffffffffff811115610789576107896122e5565b6040519080825280602002602001820160405280156107b2578160200160208202803683370190505b50905060005b8451811015610809576020808202860101516107dc906020808402870101516103eb565b8282815181106107ee576107ee612951565b602090810291909101015261080281612a0c565b90506107b8565b509392505050565b61083560405180606001604052806000815260200160008152602001600081525090565b604051635eee785d60e11b815273__$744e6baa1f687d86a909216607c3c50c82$__9063bddcf0ba9061086f906008908790600401612a26565b602060405180830381865af415801561088c573d6000803e3d6000fd5b505050506040513d601f19601f820116820180604052508101906108b09190612a3d565b6108cc5760405162461bcd60e51b81526004016104ae90612a92565b602254156108ec5760405162461bcd60e51b81526004016104ae90612891565b6023546108f990856128b7565b6040516323b872dd60e01b81529094506001600160a01b038416906323b872dd9061092c90339030908790600401612aa2565b6020604051808303816000875af115801561094b573d6000803e3d6000fd5b505050506040513d601f19601f8201168201806040525081019061096f9190612a3d565b61098b5760405162461bcd60e51b81526004016104ae90612af0565b61099760088484611171565b600d546021548251604051632fe3df7360e01b81529394506001600160a01b0390921692632fe3df73926109d392339290918991600401612b00565b6020604051808303816000875af11580156109f2573d6000803e3d6000fd5b505050506040513d601f19601f82011682018060405250810190610a169190612b40565b508051610a279060089085906112be565b600081602001519050610a4b338683604051806020016040528060008152506113f9565b610a553386611456565b600085815260046020526040902054610a6e86826114bd565b610a956040518060600160405280602581526020016131ef602591398785602001516114f6565b60208301516021546040518891907fe79d0fce8d68f798b274c3a8025b84bf7ac69a004b1946384504d5d0819f080c90600090a4505050505050565b6001600160a01b0381166000908152602660209081526040918290208054835181840281018401909452808452606093928301828280156105ae57602002820191906000526020600020905b815481526020019060010190808311610b1d5750505050509050919050565b610b47338383611542565b5050565b6007546001600160a01b03163314610b755760405162461bcd60e51b81526004016104ae90612b81565b8015610bb9576001600160a01b03821660009081526018602052604090205460ff1615610bb45760405162461bcd60e51b81526004016104ae90612bc5565b610bf1565b6001600160a01b03821660009081526018602052604090205460ff16610bf15760405162461bcd60e51b81526004016104ae90612c09565b6001600160a01b0382166000908152601860205260409020805460ff19168215801591909117909155610c56576040516001600160a01b038316907f3b4a40cccf2058c593542587329dd385be4f0b588db5471fbd9598e56dd7093a90600090a25050565b6040516001600160a01b038316907fef69f7d97228658c92417be1b16b19058315de71fecb435d07b7d23728b6bd3190600090a25050565b6007546001600160a01b0316331480610cbb57503360009081526018602052604090205460ff1615156001145b610cd75760405162461bcd60e51b81526004016104ae9061284d565b600b80546001600160a01b0319166001600160a01b0392909216919091179055565b60606024805480602002602001604051908101604052809291908181526020018280548015610d4757602002820191906000526020600020905b815481526020019060010190808311610d33575b5050505050905090565b6007546001600160a01b0316331480610d7e57503360009081526018602052604090205460ff1615156001145b610d9a5760405162461bcd60e51b81526004016104ae9061284d565b6064811115610dbb5760405162461bcd60e51b81526004016104ae906129e1565b60138190556040517fef51b055f1ac1490e0c230364c65b0a9eca534656954023b56053b78461678e4906107389083906121fd565b602254600003610e125760405162461bcd60e51b81526004016104ae90612c4d565b60006064602254610e239190612c5d565b90506000610e3133836103eb565b600d5460215460405163019cfda760e61b81529293506000926001600160a01b039092169163673f69c091610e68916004016121fd565b602060405180830381865afa158015610e85573d6000803e3d6000fd5b505050506040513d601f19601f82011682018060405250810190610ea99190612b40565b600084815260046020526040812054919250819003610eda5760405162461bcd60e51b81526004016104ae90612ca4565b600081610ee78486612cb4565b610ef19190612cd3565b905080600003610f135760405162461bcd60e51b81526004016104ae90612d2b565b83821015610f335760405162461bcd60e51b81526004016104ae90612d62565b6024610f40866002612cb4565b610f4b9060016128e1565b81548110610f5b57610f5b612951565b90600052602060002001548214610f845760405162461bcd60e51b81526004016104ae90612d9c565b610f8d336115dc565b610fa085610f9b8685612c5d565b6114bd565b610fab3386866116fb565b600b54610fc39087906001600160a01b031683611763565b600d5460215460405163377f548960e01b81526001600160a01b039092169163377f548991610ff791339190600401612dac565b6000604051808303816000875af1158015611016573d6000803e3d6000fd5b505050506040513d6000823e601f3d908101601f1916820160405261103e9190810190612e2f565b50505050505050565b6001600160a01b03918216600090815260026020908152604080832093909416825291909152205460ff1690565b336001600160a01b038616811480159061109657506110948682611047565b155b156110b857808660405163711bec9160e11b81526004016104ae929190612936565b61060a86868686866118fe565b6001600160a01b0384166110ef576000604051632bfa23e760e11b81526004016104ae91906126cd565b6001600160a01b038516611118576000604051626a0d4560e21b81526004016104ae91906126cd565b611125858585858561197f565b5050505050565b610b478282604051602401611142929190612e6a565b60408051601f198184030181529190526020810180516001600160e01b0316632d839cb360e21b1790526119d2565b61119560405180606001604052806000815260200160008152602001600081525090565b60038401546001600160a01b038481169116146111c45760405162461bcd60e51b81526004016104ae90612eb2565b6111d3848386600a01546119db565b604082018190526111e49083612c5d565b8082526111f490859085906119fb565b6020820181905260068501805460009061120f9084906128e1565b90915550506040808201516001600160a01b0385166000908152601387016020529182208054919290916112449084906128e1565b9091555050805133600090815260098601602090815260408083206001600160a01b0388168452909152812080549091906112809084906128e1565b909155505080516001600160a01b0384166000908152600e86016020526040812080549091906112b19084906128e1565b90915550505b9392505050565b60038301546001600160a01b038381169116146112ed5760405162461bcd60e51b81526004016104ae90612eec565b6040516370a0823160e01b815281906001600160a01b038416906370a082319061131b9030906004016126cd565b602060405180830381865afa158015611338573d6000803e3d6000fd5b505050506040513d601f19601f8201168201806040525081019061135c9190612b40565b101561137a5760405162461bcd60e51b81526004016104ae90612f41565b600583015460405163a9059cbb60e01b81526001600160a01b038481169263a9059cbb926113b092909116908590600401612dac565b6020604051808303816000875af11580156113cf573d6000803e3d6000fd5b505050506040513d601f19601f820116820180604052508101906113f39190612a3d565b50505050565b6001600160a01b038416611423576000604051632bfa23e760e11b81526004016104ae91906126cd565b6040805160018082526020820186905281830190815260608201859052608082019092529061060a60008784848761197f565b33600090815260256020908152604080832084845290915281205460ff1615159003610b47573360008181526025602090815260408083208584528252808320805460ff191660019081179091559383526026825282208054938401815582529020015550565b8060246114cb846002612cb4565b6114d69060016128e1565b815481106114e6576114e6612951565b6000918252602090912001555050565b61153d83838360405160240161150e93929190612f51565b60408051601f198184030181529190526020810180516001600160e01b031663ca47c4eb60e01b1790526119d2565b505050565b6001600160a01b03821661156b57600060405162ced3e160e81b81526004016104ae91906126cd565b6001600160a01b0383811660008181526002602090815260408083209487168084529490915290819020805460ff1916851515179055517f17307eab39ab6107e8899845ad3d59bd9653f200f220920489ca2b5937696c31906115cf90859061224f565b60405180910390a3505050565b60005b6001600160a01b0382166000908152602660205260409020548110156116d6576001600160a01b038216600090815260266020526040812080548390811061162957611629612951565b60009182526020808320909101546001600160a01b038616835260258252604080842082855290925291205490915060ff16156116c3576116976040518060400160405280601481526020017364656c6574655374616b655b25735d203d20257360601b81525083836114f6565b6001600160a01b03831660009081526025602090815260408083208484529091529020805460ff191690555b50806116ce81612a0c565b9150506115df565b506001600160a01b03811660009081526026602052604081206116f891612145565b50565b6001600160a01b038316611724576000604051626a0d4560e21b81526004016104ae91906126cd565b604080516001808252602082018590528183019081526060820184905260a082019092526000608082018181529192916111259187918590859061197f565b61176b611a51565b600b5482906001600160a01b0380831691161461179a5760405162461bcd60e51b81526004016104ae90612eb2565b600d5460215460405163019cfda760e61b815284926001600160a01b03169163673f69c0916117cc91906004016121fd565b602060405180830381865afa1580156117e9573d6000803e3d6000fd5b505050506040513d601f19601f8201168201806040525081019061180d9190612b40565b101561182b5760405162461bcd60e51b81526004016104ae90612fb1565b60135460009061183f9060089085906119db565b9050600061184d8285612c5d565b600d546021546040516378ce040160e01b81529293506001600160a01b03909116916378ce04019161188791899086908c90600401612fc1565b600060405180830381600087803b1580156118a157600080fd5b505af11580156118b5573d6000803e3d6000fd5b50506040518392506001600160a01b038816915033907fd1c19fbcd4551a5edfb66d43d2e337c04837afda3482b42bdf569a8fccdae5fb90600090a450505061153d6001600055565b6001600160a01b038416611928576000604051632bfa23e760e11b81526004016104ae91906126cd565b6001600160a01b038516611951576000604051626a0d4560e21b81526004016104ae91906126cd565b6040805160018082526020820186905281830190815260608201859052608082019092529061103e87878484875b61198b85858585611a7b565b6001600160a01b0384161561112557825133906001036119c457602084810151908401516119bd838989858589611bd5565b505061060a565b61060a818787878787611ce7565b6116f881611dc7565b600060646119e98385612cb4565b6119f39190612cd3565b949350505050565b60038301546000906001600160a01b0390811690841603611a1d5750806112b7565b6000611a298585611de8565b6020810151815191925090611a3e9085612cb4565b611a489190612cd3565b95945050505050565b600260005403611a7457604051633ee5aeb560e01b815260040160405180910390fd5b6002600055565b611a8784848484611f2c565b6001600160a01b038416611b3a576000805b8351811015611b20576000838281518110611ab657611ab6612951565b602002602001015190508060046000878581518110611ad757611ad7612951565b602002602001015181526020019081526020016000206000828254611afc91906128e1565b90915550611b0c905081846128e1565b92505080611b1990612a0c565b9050611a99565b508060056000828254611b3391906128e1565b9091555050505b6001600160a01b0383166113f3576000805b8351811015611bc4576000838281518110611b6957611b69612951565b602002602001015190508060046000878581518110611b8a57611b8a612951565b602002602001015181526020019081526020016000206000828254039250508190555080830192505080611bbd90612a0c565b9050611b4c565b506005805491909103905550505050565b6001600160a01b0384163b1561060a5760405163f23a6e6160e01b81526001600160a01b0385169063f23a6e6190611c199089908990889088908890600401612ff6565b6020604051808303816000875af1925050508015611c54575060408051601f3d908101601f19168201909252611c5191810190613053565b60015b611cb4573d808015611c82576040519150601f19603f3d011682016040523d82523d6000602084013e611c87565b606091505b508051600003611cac5784604051632bfa23e760e11b81526004016104ae91906126cd565b805181602001fd5b6001600160e01b0319811663f23a6e6160e01b1461103e5784604051632bfa23e760e11b81526004016104ae91906126cd565b6001600160a01b0384163b1561060a5760405163bc197c8160e01b81526001600160a01b0385169063bc197c8190611d2b9089908990889088908890600401613074565b6020604051808303816000875af1925050508015611d66575060408051601f3d908101601f19168201909252611d6391810190613053565b60015b611d94573d808015611c82576040519150601f19603f3d011682016040523d82523d6000602084013e611c87565b6001600160e01b0319811663bc197c8160e01b1461103e5784604051632bfa23e760e11b81526004016104ae91906126cd565b60006a636f6e736f6c652e6c6f679050600080835160208501845afa505050565b611df0612127565b6002830154600384015460405163e6a4390560e01b81526001600160a01b0392831692600092849263e6a4390592611e2e9216908890600401612936565b602060405180830381865afa158015611e4b573d6000803e3d6000fd5b505050506040513d601f19601f82011682018060405250810190611e6f91906130d4565b90506001600160a01b038116611e975760405162461bcd60e51b81526004016104ae9061311a565b6000819050600080826001600160a01b0316630902f1ac6040518163ffffffff1660e01b8152600401606060405180830381865afa158015611edd573d6000803e3d6000fd5b505050506040513d601f19601f82011682018060405250810190611f01919061315b565b50604080518082019091526001600160701b0392831681529116602082015298975050505050505050565b8051825114611f545781518151604051635b05999160e01b81526004016104ae9291906129f1565b3360005b8351811015612051576020818102858101820151908501909101516001600160a01b03881615611ff75760008281526001602090815260408083206001600160a01b038c16845290915290205481811015611fce57888183856040516303dee4c560e01b81526004016104ae94939291906131a1565b60008381526001602090815260408083206001600160a01b038d16845290915290209082900390555b6001600160a01b0387161561203e5760008281526001602090815260408083206001600160a01b038b168452909152812080548392906120389084906128e1565b90915550505b50508061204a90612a0c565b9050611f58565b5082516001036120c95760208301516000906020840151909150856001600160a01b0316876001600160a01b0316846001600160a01b03167fc3d58168c5ae7397731d063d5bbf3d657854427343f4c083240f7aacaa2d0f6285856040516120ba9291906129f1565b60405180910390a45050611125565b836001600160a01b0316856001600160a01b0316826001600160a01b03167f4a39dc06d4c0dbc64b70af90fd698a233a518aa5d07e595d983b8c0526c8f7fb86866040516121189291906131c9565b60405180910390a45050505050565b60405180604001604052806002906020820280368337509192915050565b50805460008255906000526020600020908101906116f891905b80821115612173576000815560010161215f565b5090565b60006001600160a01b03821661040f565b61219181612177565b81146116f857600080fd5b803561040f81612188565b80612191565b803561040f816121a7565b600080604083850312156121ce576121ce600080fd5b60006121da858561219c565b92505060206121eb858286016121ad565b9150509250929050565b805b82525050565b6020810161040f82846121f5565b6001600160e01b03198116612191565b803561040f8161220b565b60006020828403121561223b5761223b600080fd5b60006119f3848461221b565b8015156121f7565b6020810161040f8284612247565b60006020828403121561227257612272600080fd5b60006119f384846121ad565b60005b83811015612299578181015183820152602001612281565b50506000910152565b60006122ac825190565b8084526020840193506122c381856020860161227e565b601f01601f19169290920192915050565b602080825281016112b781846122a2565b634e487b7160e01b600052604160045260246000fd5b601f19601f830116810181811067ffffffffffffffff82111715612321576123216122e5565b6040525050565b600061233360405190565b905061069482826122fb565b600067ffffffffffffffff821115612359576123596122e5565b5060209081020190565b60006123766123718461233f565b612328565b8381529050602080820190840283018581111561239557612395600080fd5b835b818110156123b957806123aa88826121ad565b84525060209283019201612397565b5050509392505050565b600082601f8301126123d7576123d7600080fd5b81356119f3848260208601612363565b600067ffffffffffffffff821115612401576124016122e5565b601f19601f83011660200192915050565b82818337506000910152565b600061242c612371846123e7565b90508281526020810184848401111561244757612447600080fd5b610809848285612412565b600082601f83011261246657612466600080fd5b81356119f384826020860161241e565b600080600080600060a0868803121561249157612491600080fd5b600061249d888861219c565b95505060206124ae8882890161219c565b945050604086013567ffffffffffffffff8111156124ce576124ce600080fd5b6124da888289016123c3565b935050606086013567ffffffffffffffff8111156124fa576124fa600080fd5b612506888289016123c3565b925050608086013567ffffffffffffffff81111561252657612526600080fd5b61253288828901612452565b9150509295509295909350565b600061254b83836121f5565b505060200190565b6002818060005b8381101561060a57815161256e878261253f565b96506020830192505060010161255a565b6040810161040f8284612553565b600061259b6123718461233f565b838152905060208082019084028301858111156125ba576125ba600080fd5b835b818110156123b957806125cf888261219c565b845250602092830192016125bc565b600082601f8301126125f2576125f2600080fd5b81356119f384826020860161258d565b6000806040838503121561261857612618600080fd5b823567ffffffffffffffff81111561263257612632600080fd5b61263e858286016125de565b925050602083013567ffffffffffffffff81111561265e5761265e600080fd5b6121eb858286016123c3565b6000612674825190565b80845260209384019383018060005b838110156126a8578151612697888261253f565b975060208301925050600101612683565b509495945050505050565b602080825281016112b7818461266a565b6121f781612177565b6020810161040f82846126c4565b6000806000606084860312156126f3576126f3600080fd5b60006126ff86866121ad565b93505060206127108682870161219c565b9250506040612721868287016121ad565b9150509250925092565b60006020828403121561274057612740600080fd5b60006119f3848461219c565b6000806040838503121561276257612762600080fd5b600061276e858561219c565b92505060206121eb8582860161219c565b801515612191565b803561040f8161277f565b600080604083850312156127a8576127a8600080fd5b60006127b4858561219c565b92505060206121eb85828601612787565b600080600080600060a086880312156127e0576127e0600080fd5b60006127ec888861219c565b95505060206127fd8882890161219c565b945050604061280e888289016121ad565b9350506060612506888289016121ad565b60148152600060208201732737ba1037bbb732b91037b91036b0b730b3b2b960611b815291505b5060200190565b6020808252810161040f8161281f565b601981526000602082017f77696e6e657220616c72656164792064657465726d696e65640000000000000081529150612846565b6020808252810161040f8161285d565b634e487b7160e01b600052601260045260246000fd5b6000826128c6576128c66128a1565b500690565b634e487b7160e01b600052601160045260246000fd5b8082018082111561040f5761040f6128cb565b634e487b7160e01b600052602260045260246000fd5b60028104600182168061291e57607f821691505b602082108103612930576129306128f4565b50919050565b6040810161294482856126c4565b6112b760208301846126c4565b634e487b7160e01b600052603260045260246000fd5b602481526000602082017f676574526174696f3a20746f74616c537570706c79206e6f74207375666669638152631a595b9d60e21b602082015291505b5060400190565b6020808252810161040f81612967565b600f81526000602082016e08ccaca40d2e640e8dede40d0d2ced608b1b81529150612846565b6020808252810161040f816129bb565b604081016129ff82856121f5565b6112b760208301846121f5565b60006000198203612a1f57612a1f6128cb565b5060010190565b82815260408101612944565b805161040f8161277f565b600060208284031215612a5257612a52600080fd5b60006119f38484612a32565b601f81526000602082017f7468697320746f6b656e206973206e6f7420616363657074656420686572650081529150612846565b6020808252810161040f81612a5e565b60608101612ab082866126c4565b612abd60208301856126c4565b6119f360408301846121f5565b600f81526000602082016e151c985b9cd9995c8819985a5b1959608a1b81529150612846565b6020808252810161040f81612aca565b60808101612b0e82876126c4565b612b1b60208301866121f5565b612b2860408301856126c4565b611a4860608301846121f5565b805161040f816121a7565b600060208284031215612b5557612b55600080fd5b60006119f38484612b35565b600981526000602082016837b7363ca7bbb732b960b91b81529150612846565b6020808252810161040f81612b61565b601c81526000602082017f4164647265737320697320616c72656164792061206d616e616765720000000081529150612846565b6020808252810161040f81612b91565b601881526000602082017f41646472657373206973206e6f742061206d616e61676572000000000000000081529150612846565b6020808252810161040f81612bd5565b601981526000602082017f77696e6e6572206e6f74207965742064657465726d696e65640000000000000081529150612846565b6020808252810161040f81612c19565b8181038181111561040f5761040f6128cb565b601881526000602082017f746f6b656e206e6f7420696e2063697263756c6174696f6e000000000000000081529150612846565b6020808252810161040f81612c70565b818102808215838204851417612ccc57612ccc6128cb565b5092915050565b600082612ce257612ce26128a1565b500490565b602781526000602082017f796f752068617665206e6f207374616b6520696e207468652077696e6e696e678152661037b83a34b7b760c91b602082015291506129a4565b6020808252810161040f81612ce7565b601081526000602082016f636173684f7574206f766572666c6f7760801b81529150612846565b6020808252810161040f81612d3b565b601381526000602082017218d85cda13dd5d081c985d1a5bc8191c9a599d606a1b81529150612846565b6020808252810161040f81612d72565b604081016129ff82856126c4565b6000612dc86123718461233f565b83815290506020808201908402830185811115612de757612de7600080fd5b835b818110156123b95780612dfc8882612b35565b84525060209283019201612de9565b600082601f830112612e1f57612e1f600080fd5b81516119f3848260208601612dba565b600060208284031215612e4457612e44600080fd5b815167ffffffffffffffff811115612e5e57612e5e600080fd5b6119f384828501612e0b565b60408082528101612e7b81856122a2565b90506112b760208301846121f5565b6011815260006020820170151bdad95b881b9bdd08185b1b1bddd959607a1b81529150612846565b6020808252810161040f81612e8a565b60138152600060208201722ab735b737bbb71039ba30b136329031b7b4b760691b81529150612846565b6020808252810161040f81612ec2565b602881526000602082017f4d616e6167657220646f6573206e6f7420686176652073756666696369656e748152672062616c616e636560c01b602082015291506129a4565b6020808252810161040f81612efc565b60608082528101612f6281866122a2565b9050612abd60208301856121f5565b602381526000602082017f496e73756666696369656e742062616c616e636520696e2054726561737572798152622634b160e91b602082015291506129a4565b6020808252810161040f81612f71565b60808101612fcf82876121f5565b612fdc60208301866126c4565b612fe960408301856121f5565b611a4860608301846126c4565b60a0810161300482886126c4565b61301160208301876126c4565b61301e60408301866121f5565b61302b60608301856121f5565b818103608083015261303d81846122a2565b979650505050505050565b805161040f8161220b565b60006020828403121561306857613068600080fd5b60006119f38484613048565b60a0810161308282886126c4565b61308f60208301876126c4565b81810360408301526130a1818661266a565b905081810360608301526130b5818561266a565b9050818103608083015261303d81846122a2565b805161040f81612188565b6000602082840312156130e9576130e9600080fd5b60006119f384846130c9565b600e81526000602082016d14185a5c881b9bdd08199bdd5b9960921b81529150612846565b6020808252810161040f816130f5565b6001600160701b038116612191565b805161040f8161312a565b63ffffffff8116612191565b805161040f81613144565b60008060006060848603121561317357613173600080fd5b600061317f8686613139565b935050602061319086828701613139565b925050604061272186828701613150565b608081016131af82876126c4565b6131bc60208301866121f5565b612b2860408301856121f5565b604080825281016131da818561266a565b905081810360208301526119f3818461266a56fe546f6b656e7357616765726564286f7074696f6e3a2025642c206166746572466565202573a26469706673582212201b2e636b438171488b84804f714a787e2bdb5973466b9a958dc669e6a26fe40d64736f6c6343000814003368747470733a2f2f73706f7274732e6c616462726f6b65732e636f6d2f73706f72742f666f6f7462616c6c",
  "linkReferences": {
    "libs/ManagerLib.sol": {
      "ManagerLib": [
        {
          "length": 20,
          "start": 3728
        }
      ]
    }
  },
  "deployedLinkReferences": {
    "libs/ManagerLib.sol": {
      "ManagerLib": [
        {
          "length": 20,
          "start": 2116
        }
      ]
    }
  }
}