{
  "_format": "hh-sol-artifact-1",
  "contractName": "MyUSDC",
  "sourceName": "MyUSDC.sol",
  "abi": [
    {
      "inputs": [],
      "stateMutability": "nonpayable",
      "type": "constructor"
    },
    {
      "inputs": [],
      "name": "InvalidShortString",
      "type": "error"
    },
    {
      "inputs": [
        {
          "internalType": "string",
          "name": "str",
          "type": "string"
        }
      ],
      "name": "StringTooLong",
      "type": "error"
    },
    {
      "anonymous": false,
      "inputs": [
        {
          "indexed": true,
          "internalType": "address",
          "name": "owner",
          "type": "address"
        },
        {
          "indexed": true,
          "internalType": "address",
          "name": "spender",
          "type": "address"
        },
        {
          "indexed": false,
          "internalType": "uint256",
          "name": "value",
          "type": "uint256"
        }
      ],
      "name": "Approval",
      "type": "event"
    },
    {
      "anonymous": false,
      "inputs": [],
      "name": "EIP712DomainChanged",
      "type": "event"
    },
    {
      "anonymous": false,
      "inputs": [
        {
          "indexed": true,
          "internalType": "address",
          "name": "from",
          "type": "address"
        },
        {
          "indexed": true,
          "internalType": "address",
          "name": "to",
          "type": "address"
        },
        {
          "indexed": false,
          "internalType": "uint256",
          "name": "value",
          "type": "uint256"
        }
      ],
      "name": "Transfer",
      "type": "event"
    },
    {
      "inputs": [],
      "name": "DOMAIN_SEPARATOR",
      "outputs": [
        {
          "internalType": "bytes32",
          "name": "",
          "type": "bytes32"
        }
      ],
      "stateMutability": "view",
      "type": "function"
    },
    {
      "inputs": [
        {
          "internalType": "address",
          "name": "owner",
          "type": "address"
        },
        {
          "internalType": "address",
          "name": "spender",
          "type": "address"
        }
      ],
      "name": "allowance",
      "outputs": [
        {
          "internalType": "uint256",
          "name": "",
          "type": "uint256"
        }
      ],
      "stateMutability": "view",
      "type": "function"
    },
    {
      "inputs": [
        {
          "internalType": "address",
          "name": "spender",
          "type": "address"
        },
        {
          "internalType": "uint256",
          "name": "amount",
          "type": "uint256"
        }
      ],
      "name": "approve",
      "outputs": [
        {
          "internalType": "bool",
          "name": "",
          "type": "bool"
        }
      ],
      "stateMutability": "nonpayable",
      "type": "function"
    },
    {
      "inputs": [
        {
          "internalType": "address",
          "name": "account",
          "type": "address"
        }
      ],
      "name": "balanceOf",
      "outputs": [
        {
          "internalType": "uint256",
          "name": "",
          "type": "uint256"
        }
      ],
      "stateMutability": "view",
      "type": "function"
    },
    {
      "inputs": [],
      "name": "decimals",
      "outputs": [
        {
          "internalType": "uint8",
          "name": "",
          "type": "uint8"
        }
      ],
      "stateMutability": "view",
      "type": "function"
    },
    {
      "inputs": [
        {
          "internalType": "address",
          "name": "spender",
          "type": "address"
        },
        {
          "internalType": "uint256",
          "name": "subtractedValue",
          "type": "uint256"
        }
      ],
      "name": "decreaseAllowance",
      "outputs": [
        {
          "internalType": "bool",
          "name": "",
          "type": "bool"
        }
      ],
      "stateMutability": "nonpayable",
      "type": "function"
    },
    {
      "inputs": [],
      "name": "eip712Domain",
      "outputs": [
        {
          "internalType": "bytes1",
          "name": "fields",
          "type": "bytes1"
        },
        {
          "internalType": "string",
          "name": "name",
          "type": "string"
        },
        {
          "internalType": "string",
          "name": "version",
          "type": "string"
        },
        {
          "internalType": "uint256",
          "name": "chainId",
          "type": "uint256"
        },
        {
          "internalType": "address",
          "name": "verifyingContract",
          "type": "address"
        },
        {
          "internalType": "bytes32",
          "name": "salt",
          "type": "bytes32"
        },
        {
          "internalType": "uint256[]",
          "name": "extensions",
          "type": "uint256[]"
        }
      ],
      "stateMutability": "view",
      "type": "function"
    },
    {
      "inputs": [
        {
          "internalType": "address",
          "name": "spender",
          "type": "address"
        },
        {
          "internalType": "uint256",
          "name": "addedValue",
          "type": "uint256"
        }
      ],
      "name": "increaseAllowance",
      "outputs": [
        {
          "internalType": "bool",
          "name": "",
          "type": "bool"
        }
      ],
      "stateMutability": "nonpayable",
      "type": "function"
    },
    {
      "inputs": [
        {
          "internalType": "address",
          "name": "to",
          "type": "address"
        },
        {
          "internalType": "uint256",
          "name": "amount",
          "type": "uint256"
        }
      ],
      "name": "mint",
      "outputs": [],
      "stateMutability": "nonpayable",
      "type": "function"
    },
    {
      "inputs": [],
      "name": "name",
      "outputs": [
        {
          "internalType": "string",
          "name": "",
          "type": "string"
        }
      ],
      "stateMutability": "view",
      "type": "function"
    },
    {
      "inputs": [
        {
          "internalType": "address",
          "name": "owner",
          "type": "address"
        }
      ],
      "name": "nonces",
      "outputs": [
        {
          "internalType": "uint256",
          "name": "",
          "type": "uint256"
        }
      ],
      "stateMutability": "view",
      "type": "function"
    },
    {
      "inputs": [],
      "name": "owner",
      "outputs": [
        {
          "internalType": "address",
          "name": "",
          "type": "address"
        }
      ],
      "stateMutability": "view",
      "type": "function"
    },
    {
      "inputs": [
        {
          "internalType": "address",
          "name": "owner",
          "type": "address"
        },
        {
          "internalType": "address",
          "name": "spender",
          "type": "address"
        },
        {
          "internalType": "uint256",
          "name": "value",
          "type": "uint256"
        },
        {
          "internalType": "uint256",
          "name": "deadline",
          "type": "uint256"
        },
        {
          "internalType": "uint8",
          "name": "v",
          "type": "uint8"
        },
        {
          "internalType": "bytes32",
          "name": "r",
          "type": "bytes32"
        },
        {
          "internalType": "bytes32",
          "name": "s",
          "type": "bytes32"
        }
      ],
      "name": "permit",
      "outputs": [],
      "stateMutability": "nonpayable",
      "type": "function"
    },
    {
      "inputs": [],
      "name": "symbol",
      "outputs": [
        {
          "internalType": "string",
          "name": "",
          "type": "string"
        }
      ],
      "stateMutability": "view",
      "type": "function"
    },
    {
      "inputs": [],
      "name": "totalSupply",
      "outputs": [
        {
          "internalType": "uint256",
          "name": "",
          "type": "uint256"
        }
      ],
      "stateMutability": "view",
      "type": "function"
    },
    {
      "inputs": [
        {
          "internalType": "address",
          "name": "to",
          "type": "address"
        },
        {
          "internalType": "uint256",
          "name": "amount",
          "type": "uint256"
        }
      ],
      "name": "transfer",
      "outputs": [
        {
          "internalType": "bool",
          "name": "",
          "type": "bool"
        }
      ],
      "stateMutability": "nonpayable",
      "type": "function"
    },
    {
      "inputs": [
        {
          "internalType": "address",
          "name": "from",
          "type": "address"
        },
        {
          "internalType": "address",
          "name": "to",
          "type": "address"
        },
        {
          "internalType": "uint256",
          "name": "amount",
          "type": "uint256"
        }
      ],
      "name": "transferFrom",
      "outputs": [
        {
          "internalType": "bool",
          "name": "",
          "type": "bool"
        }
      ],
      "stateMutability": "nonpayable",
      "type": "function"
    }
  ],
  "bytecode": "0x6101606040523480156200001257600080fd5b50604051806040016040528060068152602001654d595553444360d01b81525080604051806040016040528060018152602001603160f81b815250604051806040016040528060068152602001654d795553444360d01b815250604051806040016040528060068152602001654d595553444360d01b81525081600390816200009c9190620003d7565b506004620000ab8282620003d7565b50620000bd915083905060056200014e565b61012052620000ce8160066200014e565b61014052815160208084019190912060e052815190820120610100524660a052620000f862000187565b60805250503060c05250600980546001600160a01b03191633908117909155620001489062000125600690565b6200013290600a620005ee565b6200014290633b9aca0062000605565b620001e3565b620007c1565b60006020835110156200016e5762000166836200028a565b905062000181565b816200017b8482620003d7565b5060ff90505b92915050565b60e05161010051604051600092620001c8927f8b73c3c69bb8fe3d512ecc4cf759cc79239f7b179b0ffacaa9a75d522b39400f92469030906020016200064c565b60405160208183030381529060405280519060200120905090565b6001600160a01b038216620002155760405162461bcd60e51b81526004016200020c90620006a2565b60405180910390fd5b8060026000828254620002299190620006de565b90915550506001600160a01b038216600081815260208190526040808220805485019055517fddf252ad1be2c89b69c2b068fc378daa952ba7f163c4a11628f55a4df523b3ef906200027d908590620006f4565b60405180910390a35b5050565b600080829050601f81511115620002b8578260405163305a27a960e01b81526004016200020c91906200075f565b8051620002c5826200077d565b179392505050565b90565b505050565b634e487b7160e01b600052604160045260246000fd5b634e487b7160e01b600052602260045260246000fd5b6002810460018216806200031657607f821691505b6020821081036200032b576200032b620002eb565b50919050565b600062000181620002cd8381565b6200034a8362000331565b815460001960089490940293841b1916921b91909117905550565b6000620002d08184846200033f565b8181101562000286576200038a60008262000365565b60010162000374565b601f821115620002d0576000818152602090206020601f85010481016020851015620003bc5750805b620003d06020601f86010483018262000374565b5050505050565b81516001600160401b03811115620003f357620003f3620002d5565b620003ff825462000301565b6200040c82828562000393565b6020601f8311600181146200044357600084156200042a5750858201515b600019600886021c19811660028602178655506200049f565b600085815260208120601f198616915b8281101562000475578885015182556020948501946001909201910162000453565b86831015620004925784890151600019601f89166008021c191682555b6001600288020188555050505b505050505050565b634e487b7160e01b600052601160045260246000fd5b80825b60018511156200050357808604811115620004df57620004df620004a7565b6001851615620004ee57908102905b8002620004fb8560011c90565b9450620004c0565b94509492505050565b6000826200051d57506001620005e7565b816200052c57506000620005e7565b8160018114620005455760028114620005505762000584565b6001915050620005e7565b60ff841115620005645762000564620004a7565b8360020a9150848211156200057d576200057d620004a7565b50620005e7565b5060208310610133831016604e8410600b8410161715620005bc575081810a83811115620005b657620005b6620004a7565b620005e7565b620005cb8484846001620004bd565b92509050818404811115620005e457620005e4620004a7565b81025b9392505050565b600060ff83169250620005e760001984846200050c565b818102808215838204851417620006205762000620620004a7565b5092915050565b805b82525050565b60006001600160a01b03821662000181565b62000629816200062f565b60a081016200065c828862000627565b6200066b602083018762000627565b6200067a604083018662000627565b62000689606083018562000627565b62000698608083018462000641565b9695505050505050565b602080825281016200018181601f81527f45524332303a206d696e7420746f20746865207a65726f206164647265737300602082015260400190565b80820180821115620001815762000181620004a7565b6020810162000181828462000627565b60005b838110156200072157818101518382015260200162000707565b50506000910152565b600062000735825190565b8084526020840193506200074e81856020860162000704565b601f01601f19169290920192915050565b60208082528101620005e781846200072a565b600062000181825190565b600062000788825190565b60208301620007978162000772565b92506020821015620007ba57620007b5600019836020036008021b90565b831692505b5050919050565b60805160a05160c05160e0516101005161012051610140516115906200081c6000396000610415015260006103ea01526000610a4901526000610a28015260006107c7015260006107f10152600061081b01526115906000f3fe608060405234801561001057600080fd5b506004361061010b5760003560e01c806370a08231116100a257806395d89b411161007157806395d89b4114610228578063a457c2d714610230578063a9059cbb14610243578063d505accf14610256578063dd62ed3e1461026957600080fd5b806370a08231146101b15780637ecebe00146101da57806384b0196e146101ed5780638da5cb5b1461020857600080fd5b8063313ce567116100de578063313ce567146101725780633644e51514610181578063395093511461018957806340c10f191461019c57600080fd5b806306fdde0314610110578063095ea7b31461012e57806318160ddd1461014e57806323b872dd1461015f575b600080fd5b61011861027c565b6040516101259190610cbf565b60405180910390f35b61014161013c366004610d18565b61030e565b6040516101259190610d5f565b6002545b6040516101259190610d73565b61014161016d366004610d81565b610328565b60066040516101259190610dda565b61015261034c565b610141610197366004610d18565b61035b565b6101af6101aa366004610d18565b61037d565b005b6101526101bf366004610de8565b6001600160a01b031660009081526020819052604090205490565b6101526101e8366004610de8565b6103be565b6101f56103dc565b6040516101259796959493929190610e87565b60095461021b906001600160a01b031681565b6040516101259190610f03565b610118610465565b61014161023e366004610d18565b610474565b610141610251366004610d18565b6104b1565b6101af610264366004610f25565b6104bf565b610152610277366004610fc4565b6105a1565b60606003805461028b9061100d565b80601f01602080910402602001604051908101604052809291908181526020018280546102b79061100d565b80156103045780601f106102d957610100808354040283529160200191610304565b820191906000526020600020905b8154815290600101906020018083116102e757829003601f168201915b5050505050905090565b60003361031c8185856105cc565b60019150505b92915050565b600033610336858285610680565b6103418585856106ca565b506001949350505050565b60006103566107ba565b905090565b60003361031c81858561036e83836105a1565b6103789190611049565b6105cc565b6009546001600160a01b031633146103b05760405162461bcd60e51b81526004016103a79061107f565b60405180910390fd5b6103ba8282610845565b5050565b6001600160a01b038116600090815260076020526040812054610322565b6000606080828080836104107f000000000000000000000000000000000000000000000000000000000000000060056108db565b61043b7f000000000000000000000000000000000000000000000000000000000000000060066108db565b60408051600080825260208201909252600f60f81b9b939a50919850469750309650945092509050565b60606004805461028b9061100d565b6000338161048282866105a1565b9050838110156104a45760405162461bcd60e51b81526004016103a7906110d4565b61034182868684036105cc565b60003361031c8185856106ca565b834211156104df5760405162461bcd60e51b81526004016103a790611118565b60007f6e71edae12b1b97f4d1f60370fef10105fa2faae0126114a169c64845d6126c988888861050e8c610986565b8960405160200161052496959493929190611128565b6040516020818303038152906040528051906020012090506000610547826109ae565b90506000610557828787876109db565b9050896001600160a01b0316816001600160a01b03161461058a5760405162461bcd60e51b81526004016103a7906111b6565b6105958a8a8a6105cc565b50505050505050505050565b6001600160a01b03918216600090815260016020908152604080832093909416825291909152205490565b6001600160a01b0383166105f25760405162461bcd60e51b81526004016103a790611207565b6001600160a01b0382166106185760405162461bcd60e51b81526004016103a790611256565b6001600160a01b0380841660008181526001602090815260408083209487168084529490915290819020849055517f8c5be1e5ebec7d5bd14f71427d1e84f3dd0314c0f7b2291e5b200ac8c7c3b92590610673908590610d73565b60405180910390a3505050565b600061068c84846105a1565b905060001981146106c457818110156106b75760405162461bcd60e51b81526004016103a79061129a565b6106c484848484036105cc565b50505050565b6001600160a01b0383166106f05760405162461bcd60e51b81526004016103a7906112ec565b6001600160a01b0382166107165760405162461bcd60e51b81526004016103a79061133c565b6001600160a01b0383166000908152602081905260409020548181101561074f5760405162461bcd60e51b81526004016103a79061138f565b6001600160a01b0380851660008181526020819052604080822086860390559286168082529083902080548601905591517fddf252ad1be2c89b69c2b068fc378daa952ba7f163c4a11628f55a4df523b3ef906107ad908690610d73565b60405180910390a36106c4565b6000306001600160a01b037f00000000000000000000000000000000000000000000000000000000000000001614801561081357507f000000000000000000000000000000000000000000000000000000000000000046145b1561083d57507f000000000000000000000000000000000000000000000000000000000000000090565b610356610a03565b6001600160a01b03821661086b5760405162461bcd60e51b81526004016103a7906113d3565b806002600082825461087d9190611049565b90915550506001600160a01b038216600081815260208190526040808220805485019055517fddf252ad1be2c89b69c2b068fc378daa952ba7f163c4a11628f55a4df523b3ef906108cf908590610d73565b60405180910390a35050565b606060ff83146108f5576108ee83610a99565b9050610322565b8180546109019061100d565b80601f016020809104026020016040519081016040528092919081815260200182805461092d9061100d565b801561097a5780601f1061094f5761010080835404028352916020019161097a565b820191906000526020600020905b81548152906001019060200180831161095d57829003601f168201915b50505050509050610322565b6001600160a01b03811660009081526007602052604090208054600181018255905b50919050565b60006103226109bb6107ba565b8360405161190160f01b8152600281019290925260228201526042902090565b60008060006109ec87878787610ad8565b915091506109f981610b8f565b5095945050505050565b60007f8b73c3c69bb8fe3d512ecc4cf759cc79239f7b179b0ffacaa9a75d522b39400f7f00000000000000000000000000000000000000000000000000000000000000007f00000000000000000000000000000000000000000000000000000000000000004630604051602001610a7e9594939291906113e3565b60405160208183030381529060405280519060200120905090565b60606000610aa683610c41565b604080516020808252818301909252919250600091906020820181803683375050509182525060208101929092525090565b6000807f7fffffffffffffffffffffffffffffff5d576e7357a4501ddfe92f46681b20a0831115610b0f5750600090506003610b86565b600060018787878760405160008152602001604052604051610b34949392919061142f565b6020604051602081039080840390855afa158015610b56573d6000803e3d6000fd5b5050604051601f1901519150506001600160a01b038116610b7f57600060019250925050610b86565b9150600090505b94509492505050565b6000816004811115610ba357610ba361146d565b03610bab5750565b6001816004811115610bbf57610bbf61146d565b03610bdc5760405162461bcd60e51b81526004016103a7906114b7565b6002816004811115610bf057610bf061146d565b03610c0d5760405162461bcd60e51b81526004016103a7906114fb565b6003816004811115610c2157610c2161146d565b03610c3e5760405162461bcd60e51b81526004016103a79061154a565b50565b600060ff8216601f81111561032257604051632cd44ac360e21b815260040160405180910390fd5b60005b83811015610c84578181015183820152602001610c6c565b50506000910152565b6000610c97825190565b808452602084019350610cae818560208601610c69565b601f01601f19169290920192915050565b60208082528101610cd08184610c8d565b9392505050565b60006001600160a01b038216610322565b610cf181610cd7565b8114610c3e57600080fd5b803561032281610ce8565b80610cf1565b803561032281610d07565b60008060408385031215610d2e57610d2e600080fd5b6000610d3a8585610cfc565b9250506020610d4b85828601610d0d565b9150509250929050565b8015155b82525050565b602081016103228284610d55565b80610d59565b602081016103228284610d6d565b600080600060608486031215610d9957610d99600080fd5b6000610da58686610cfc565b9350506020610db686828701610cfc565b9250506040610dc786828701610d0d565b9150509250925092565b60ff8116610d59565b602081016103228284610dd1565b600060208284031215610dfd57610dfd600080fd5b6000610e098484610cfc565b949350505050565b6001600160f81b03198116610d59565b610d5981610cd7565b6000610e368383610d6d565b505060200190565b6000610e48825190565b80845260209384019383018060005b83811015610e7c578151610e6b8882610e2a565b975060208301925050600101610e57565b509495945050505050565b60e08101610e95828a610e11565b8181036020830152610ea78189610c8d565b90508181036040830152610ebb8188610c8d565b9050610eca6060830187610d6d565b610ed76080830186610e21565b610ee460a0830185610d6d565b81810360c0830152610ef68184610e3e565b9998505050505050505050565b602081016103228284610e21565b60ff8116610cf1565b803561032281610f11565b600080600080600080600060e0888a031215610f4357610f43600080fd5b6000610f4f8a8a610cfc565b9750506020610f608a828b01610cfc565b9650506040610f718a828b01610d0d565b9550506060610f828a828b01610d0d565b9450506080610f938a828b01610f1a565b93505060a0610fa48a828b01610d0d565b92505060c0610fb58a828b01610d0d565b91505092959891949750929550565b60008060408385031215610fda57610fda600080fd5b6000610fe68585610cfc565b9250506020610d4b85828601610cfc565b634e487b7160e01b600052602260045260246000fd5b60028104600182168061102157607f821691505b6020821081036109a8576109a8610ff7565b634e487b7160e01b600052601160045260246000fd5b8082018082111561032257610322611033565b600981526000602082016837b7363ca7bbb732b960b91b815291505b5060200190565b602080825281016103228161105c565b602581526000602082017f45524332303a2064656372656173656420616c6c6f77616e63652062656c6f77815264207a65726f60d81b602082015291505b5060400190565b602080825281016103228161108f565b601d81526000602082017f45524332305065726d69743a206578706972656420646561646c696e6500000081529150611078565b60208082528101610322816110e4565b60c081016111368289610d6d565b6111436020830188610e21565b6111506040830187610e21565b61115d6060830186610d6d565b61116a6080830185610d6d565b61117760a0830184610d6d565b979650505050505050565b601e81526000602082017f45524332305065726d69743a20696e76616c6964207369676e6174757265000081529150611078565b6020808252810161032281611182565b602481526000602082017f45524332303a20617070726f76652066726f6d20746865207a65726f206164648152637265737360e01b602082015291506110cd565b60208082528101610322816111c6565b602281526000602082017f45524332303a20617070726f766520746f20746865207a65726f206164647265815261737360f01b602082015291506110cd565b6020808252810161032281611217565b601d81526000602082017f45524332303a20696e73756666696369656e7420616c6c6f77616e636500000081529150611078565b6020808252810161032281611266565b602581526000602082017f45524332303a207472616e736665722066726f6d20746865207a65726f206164815264647265737360d81b602082015291506110cd565b60208082528101610322816112aa565b602381526000602082017f45524332303a207472616e7366657220746f20746865207a65726f206164647281526265737360e81b602082015291506110cd565b60208082528101610322816112fc565b602681526000602082017f45524332303a207472616e7366657220616d6f756e7420657863656564732062815265616c616e636560d01b602082015291506110cd565b602080825281016103228161134c565b601f81526000602082017f45524332303a206d696e7420746f20746865207a65726f20616464726573730081529150611078565b602080825281016103228161139f565b60a081016113f18288610d6d565b6113fe6020830187610d6d565b61140b6040830186610d6d565b6114186060830185610d6d565b6114256080830184610e21565b9695505050505050565b6080810161143d8287610d6d565b61144a6020830186610dd1565b6114576040830185610d6d565b6114646060830184610d6d565b95945050505050565b634e487b7160e01b600052602160045260246000fd5b601881526000602082017f45434453413a20696e76616c6964207369676e6174757265000000000000000081529150611078565b6020808252810161032281611483565b601f81526000602082017f45434453413a20696e76616c6964207369676e6174757265206c656e6774680081529150611078565b60208082528101610322816114c7565b602281526000602082017f45434453413a20696e76616c6964207369676e6174757265202773272076616c815261756560f01b602082015291506110cd565b602080825281016103228161150b56fea26469706673582212206d546be7964a5cacaf2cb96d86cdfeefdc80ef316ef8a59c7e29097cc89be13264736f6c63430008140033",
  "linkReferences": {},
  "deployedLinkReferences": {}
}