{
  "_format": "hh-sol-artifact-1",
  "contractName": "MyUSDC",
  "sourceName": "MyUSDC.sol",
  "abi": [
    {
      "inputs": [],
      "stateMutability": "nonpayable",
      "type": "constructor"
    },
    {
      "inputs": [],
      "name": "ECDSAInvalidSignature",
      "type": "error"
    },
    {
      "inputs": [
        {
          "internalType": "uint256",
          "name": "length",
          "type": "uint256"
        }
      ],
      "name": "ECDSAInvalidSignatureLength",
      "type": "error"
    },
    {
      "inputs": [
        {
          "internalType": "bytes32",
          "name": "s",
          "type": "bytes32"
        }
      ],
      "name": "ECDSAInvalidSignatureS",
      "type": "error"
    },
    {
      "inputs": [
        {
          "internalType": "address",
          "name": "spender",
          "type": "address"
        },
        {
          "internalType": "uint256",
          "name": "allowance",
          "type": "uint256"
        },
        {
          "internalType": "uint256",
          "name": "needed",
          "type": "uint256"
        }
      ],
      "name": "ERC20InsufficientAllowance",
      "type": "error"
    },
    {
      "inputs": [
        {
          "internalType": "address",
          "name": "sender",
          "type": "address"
        },
        {
          "internalType": "uint256",
          "name": "balance",
          "type": "uint256"
        },
        {
          "internalType": "uint256",
          "name": "needed",
          "type": "uint256"
        }
      ],
      "name": "ERC20InsufficientBalance",
      "type": "error"
    },
    {
      "inputs": [
        {
          "internalType": "address",
          "name": "approver",
          "type": "address"
        }
      ],
      "name": "ERC20InvalidApprover",
      "type": "error"
    },
    {
      "inputs": [
        {
          "internalType": "address",
          "name": "receiver",
          "type": "address"
        }
      ],
      "name": "ERC20InvalidReceiver",
      "type": "error"
    },
    {
      "inputs": [
        {
          "internalType": "address",
          "name": "sender",
          "type": "address"
        }
      ],
      "name": "ERC20InvalidSender",
      "type": "error"
    },
    {
      "inputs": [
        {
          "internalType": "address",
          "name": "spender",
          "type": "address"
        }
      ],
      "name": "ERC20InvalidSpender",
      "type": "error"
    },
    {
      "inputs": [
        {
          "internalType": "uint256",
          "name": "deadline",
          "type": "uint256"
        }
      ],
      "name": "ERC2612ExpiredSignature",
      "type": "error"
    },
    {
      "inputs": [
        {
          "internalType": "address",
          "name": "signer",
          "type": "address"
        },
        {
          "internalType": "address",
          "name": "owner",
          "type": "address"
        }
      ],
      "name": "ERC2612InvalidSigner",
      "type": "error"
    },
    {
      "inputs": [
        {
          "internalType": "address",
          "name": "account",
          "type": "address"
        },
        {
          "internalType": "uint256",
          "name": "currentNonce",
          "type": "uint256"
        }
      ],
      "name": "InvalidAccountNonce",
      "type": "error"
    },
    {
      "inputs": [],
      "name": "InvalidShortString",
      "type": "error"
    },
    {
      "inputs": [
        {
          "internalType": "string",
          "name": "str",
          "type": "string"
        }
      ],
      "name": "StringTooLong",
      "type": "error"
    },
    {
      "anonymous": false,
      "inputs": [
        {
          "indexed": true,
          "internalType": "address",
          "name": "owner",
          "type": "address"
        },
        {
          "indexed": true,
          "internalType": "address",
          "name": "spender",
          "type": "address"
        },
        {
          "indexed": false,
          "internalType": "uint256",
          "name": "value",
          "type": "uint256"
        }
      ],
      "name": "Approval",
      "type": "event"
    },
    {
      "anonymous": false,
      "inputs": [],
      "name": "EIP712DomainChanged",
      "type": "event"
    },
    {
      "anonymous": false,
      "inputs": [
        {
          "indexed": true,
          "internalType": "address",
          "name": "from",
          "type": "address"
        },
        {
          "indexed": true,
          "internalType": "address",
          "name": "to",
          "type": "address"
        },
        {
          "indexed": false,
          "internalType": "uint256",
          "name": "value",
          "type": "uint256"
        }
      ],
      "name": "Transfer",
      "type": "event"
    },
    {
      "inputs": [],
      "name": "DOMAIN_SEPARATOR",
      "outputs": [
        {
          "internalType": "bytes32",
          "name": "",
          "type": "bytes32"
        }
      ],
      "stateMutability": "view",
      "type": "function"
    },
    {
      "inputs": [
        {
          "internalType": "address",
          "name": "owner",
          "type": "address"
        },
        {
          "internalType": "address",
          "name": "spender",
          "type": "address"
        }
      ],
      "name": "allowance",
      "outputs": [
        {
          "internalType": "uint256",
          "name": "",
          "type": "uint256"
        }
      ],
      "stateMutability": "view",
      "type": "function"
    },
    {
      "inputs": [
        {
          "internalType": "address",
          "name": "spender",
          "type": "address"
        },
        {
          "internalType": "uint256",
          "name": "value",
          "type": "uint256"
        }
      ],
      "name": "approve",
      "outputs": [
        {
          "internalType": "bool",
          "name": "",
          "type": "bool"
        }
      ],
      "stateMutability": "nonpayable",
      "type": "function"
    },
    {
      "inputs": [
        {
          "internalType": "address",
          "name": "account",
          "type": "address"
        }
      ],
      "name": "balanceOf",
      "outputs": [
        {
          "internalType": "uint256",
          "name": "",
          "type": "uint256"
        }
      ],
      "stateMutability": "view",
      "type": "function"
    },
    {
      "inputs": [],
      "name": "decimals",
      "outputs": [
        {
          "internalType": "uint8",
          "name": "",
          "type": "uint8"
        }
      ],
      "stateMutability": "view",
      "type": "function"
    },
    {
      "inputs": [],
      "name": "eip712Domain",
      "outputs": [
        {
          "internalType": "bytes1",
          "name": "fields",
          "type": "bytes1"
        },
        {
          "internalType": "string",
          "name": "name",
          "type": "string"
        },
        {
          "internalType": "string",
          "name": "version",
          "type": "string"
        },
        {
          "internalType": "uint256",
          "name": "chainId",
          "type": "uint256"
        },
        {
          "internalType": "address",
          "name": "verifyingContract",
          "type": "address"
        },
        {
          "internalType": "bytes32",
          "name": "salt",
          "type": "bytes32"
        },
        {
          "internalType": "uint256[]",
          "name": "extensions",
          "type": "uint256[]"
        }
      ],
      "stateMutability": "view",
      "type": "function"
    },
    {
      "inputs": [
        {
          "internalType": "address",
          "name": "to",
          "type": "address"
        },
        {
          "internalType": "uint256",
          "name": "amount",
          "type": "uint256"
        }
      ],
      "name": "mint",
      "outputs": [],
      "stateMutability": "nonpayable",
      "type": "function"
    },
    {
      "inputs": [],
      "name": "name",
      "outputs": [
        {
          "internalType": "string",
          "name": "",
          "type": "string"
        }
      ],
      "stateMutability": "view",
      "type": "function"
    },
    {
      "inputs": [
        {
          "internalType": "address",
          "name": "owner",
          "type": "address"
        }
      ],
      "name": "nonces",
      "outputs": [
        {
          "internalType": "uint256",
          "name": "",
          "type": "uint256"
        }
      ],
      "stateMutability": "view",
      "type": "function"
    },
    {
      "inputs": [],
      "name": "owner",
      "outputs": [
        {
          "internalType": "address",
          "name": "",
          "type": "address"
        }
      ],
      "stateMutability": "view",
      "type": "function"
    },
    {
      "inputs": [
        {
          "internalType": "address",
          "name": "owner",
          "type": "address"
        },
        {
          "internalType": "address",
          "name": "spender",
          "type": "address"
        },
        {
          "internalType": "uint256",
          "name": "value",
          "type": "uint256"
        },
        {
          "internalType": "uint256",
          "name": "deadline",
          "type": "uint256"
        },
        {
          "internalType": "uint8",
          "name": "v",
          "type": "uint8"
        },
        {
          "internalType": "bytes32",
          "name": "r",
          "type": "bytes32"
        },
        {
          "internalType": "bytes32",
          "name": "s",
          "type": "bytes32"
        }
      ],
      "name": "permit",
      "outputs": [],
      "stateMutability": "nonpayable",
      "type": "function"
    },
    {
      "inputs": [],
      "name": "symbol",
      "outputs": [
        {
          "internalType": "string",
          "name": "",
          "type": "string"
        }
      ],
      "stateMutability": "view",
      "type": "function"
    },
    {
      "inputs": [],
      "name": "totalSupply",
      "outputs": [
        {
          "internalType": "uint256",
          "name": "",
          "type": "uint256"
        }
      ],
      "stateMutability": "view",
      "type": "function"
    },
    {
      "inputs": [
        {
          "internalType": "address",
          "name": "to",
          "type": "address"
        },
        {
          "internalType": "uint256",
          "name": "value",
          "type": "uint256"
        }
      ],
      "name": "transfer",
      "outputs": [
        {
          "internalType": "bool",
          "name": "",
          "type": "bool"
        }
      ],
      "stateMutability": "nonpayable",
      "type": "function"
    },
    {
      "inputs": [
        {
          "internalType": "address",
          "name": "from",
          "type": "address"
        },
        {
          "internalType": "address",
          "name": "to",
          "type": "address"
        },
        {
          "internalType": "uint256",
          "name": "value",
          "type": "uint256"
        }
      ],
      "name": "transferFrom",
      "outputs": [
        {
          "internalType": "bool",
          "name": "",
          "type": "bool"
        }
      ],
      "stateMutability": "nonpayable",
      "type": "function"
    }
  ],
  "bytecode": "0x6101606040523480156200001257600080fd5b50604051806040016040528060068152602001654d595553444360d01b81525080604051806040016040528060018152602001603160f81b815250604051806040016040528060068152602001654d795553444360d01b815250604051806040016040528060068152602001654d595553444360d01b81525081600390816200009c919062000498565b506004620000ab828262000498565b50620000bd915083905060056200014e565b61012052620000ce8160066200014e565b61014052815160208084019190912060e052815190820120610100524660a052620000f862000187565b60805250503060c05250600880546001600160a01b03191633908117909155620001489062000125600690565b6200013290600a620006af565b6200014290633b9aca00620006c6565b620001e3565b6200088c565b60006020835110156200016e5762000166836200022b565b905062000181565b816200017b848262000498565b5060ff90505b92915050565b60e05161010051604051600092620001c8927f8b73c3c69bb8fe3d512ecc4cf759cc79239f7b179b0ffacaa9a75d522b39400f92469030906020016200070d565b60405160208183030381529060405280519060200120905090565b6001600160a01b0382166200021957600060405163ec442f0560e01b815260040162000210919062000763565b60405180910390fd5b620002276000838362000271565b5050565b600080829050601f8151111562000259578260405163305a27a960e01b8152600401620002109190620007ce565b80516200026682620007ec565b179392505050565b90565b6001600160a01b038316620002a057806002600082825462000294919062000830565b90915550620003029050565b6001600160a01b03831660009081526020819052604090205481811015620002e35783818360405163391434e360e21b8152600401620002109392919062000846565b6001600160a01b03841660009081526020819052604090209082900390555b6001600160a01b03821662000320576002805482900390556200033f565b6001600160a01b03821660009081526020819052604090208054820190555b816001600160a01b0316836001600160a01b03167fddf252ad1be2c89b69c2b068fc378daa952ba7f163c4a11628f55a4df523b3ef836040516200038491906200087c565b60405180910390a3505050565b634e487b7160e01b600052604160045260246000fd5b634e487b7160e01b600052602260045260246000fd5b600281046001821680620003d257607f821691505b602082108103620003e757620003e7620003a7565b50919050565b6000620001816200026e8381565b6200040683620003ed565b815460001960089490940293841b1916921b91909117905550565b600062000430818484620003fb565b505050565b8181101562000227576200044b60008262000421565b60010162000435565b601f82111562000430576000818152602090206020601f850104810160208510156200047d5750805b620004916020601f86010483018262000435565b5050505050565b81516001600160401b03811115620004b457620004b462000391565b620004c08254620003bd565b620004cd82828562000454565b6020601f831160018114620005045760008415620004eb5750858201515b600019600886021c198116600286021786555062000560565b600085815260208120601f198616915b8281101562000536578885015182556020948501946001909201910162000514565b86831015620005535784890151600019601f89166008021c191682555b6001600288020188555050505b505050505050565b634e487b7160e01b600052601160045260246000fd5b80825b6001851115620005c457808604811115620005a057620005a062000568565b6001851615620005af57908102905b8002620005bc8560011c90565b945062000581565b94509492505050565b600082620005de57506001620006a8565b81620005ed57506000620006a8565b8160018114620006065760028114620006115762000645565b6001915050620006a8565b60ff84111562000625576200062562000568565b8360020a9150848211156200063e576200063e62000568565b50620006a8565b5060208310610133831016604e8410600b84101617156200067d575081810a8381111562000677576200067762000568565b620006a8565b6200068c84848460016200057e565b92509050818404811115620006a557620006a562000568565b81025b9392505050565b600060ff83169250620006a86000198484620005cd565b818102808215838204851417620006e157620006e162000568565b5092915050565b805b82525050565b60006001600160a01b03821662000181565b620006ea81620006f0565b60a081016200071d8288620006e8565b6200072c6020830187620006e8565b6200073b6040830186620006e8565b6200074a6060830185620006e8565b62000759608083018462000702565b9695505050505050565b6020810162000181828462000702565b60005b838110156200079057818101518382015260200162000776565b50506000910152565b6000620007a4825190565b808452602084019350620007bd81856020860162000773565b601f01601f19169290920192915050565b60208082528101620006a8818462000799565b600062000181825190565b6000620007f7825190565b602083016200080681620007e1565b92506020821015620008295762000824600019836020036008021b90565b831692505b5050919050565b8082018082111562000181576200018162000568565b6060810162000856828662000702565b620008656020830185620006e8565b620008746040830184620006e8565b949350505050565b60208101620001818284620006e8565b60805160a05160c05160e0516101005161012051610140516111f5620008e760003960006106e2015260006106b50152600061099301526000610972015260006105fa015260006106240152600061064e01526111f56000f3fe608060405234801561001057600080fd5b50600436106100f55760003560e01c806370a082311161009757806395d89b411161006657806395d89b41146101ff578063a9059cbb14610207578063d505accf1461021a578063dd62ed3e1461022d57600080fd5b806370a08231146101885780637ecebe00146101b157806384b0196e146101c45780638da5cb5b146101df57600080fd5b806323b872dd116100d357806323b872dd14610149578063313ce5671461015c5780633644e5151461016b57806340c10f191461017357600080fd5b806306fdde03146100fa578063095ea7b31461011857806318160ddd14610138575b600080fd5b610102610266565b60405161010f9190610cc4565b60405180910390f35b61012b610126366004610d19565b6102f8565b60405161010f9190610d60565b6002545b60405161010f9190610d74565b61012b610157366004610d82565b610312565b600660405161010f9190610ddb565b61013c610338565b610186610181366004610d19565b610347565b005b61013c610196366004610de9565b6001600160a01b031660009081526020819052604090205490565b61013c6101bf366004610de9565b610388565b6101cc6103a6565b60405161010f9796959493929190610e80565b6008546101f2906001600160a01b031681565b60405161010f9190610efc565b6101026103ec565b61012b610215366004610d19565b6103fb565b610186610228366004610f1e565b610409565b61013c61023b366004610fbd565b6001600160a01b03918216600090815260016020908152604080832093909416825291909152205490565b60606003805461027590611006565b80601f01602080910402602001604051908101604052809291908181526020018280546102a190611006565b80156102ee5780601f106102c3576101008083540402835291602001916102ee565b820191906000526020600020905b8154815290600101906020018083116102d157829003601f168201915b5050505050905090565b600033610306818585610511565b60019150505b92915050565b600033610320858285610523565b61032b85858561058e565b60019150505b9392505050565b60006103426105ed565b905090565b6008546001600160a01b0316331461037a5760405162461bcd60e51b815260040161037190611032565b60405180910390fd5b6103848282610678565b5050565b6001600160a01b03811660009081526007602052604081205461030c565b6000606080600080600060606103ba6106ae565b6103c26106db565b60408051600080825260208201909252600f60f81b9b939a50919850469750309650945092509050565b60606004805461027590611006565b60003361030681858561058e565b8342111561042c578360405163313c898160e11b81526004016103719190610d74565b60007f6e71edae12b1b97f4d1f60370fef10105fa2faae0126114a169c64845d6126c98888886104798c6001600160a01b0316600090815260076020526040902080546001810190915590565b8960405160200161048f96959493929190611059565b60405160208183030381529060405280519060200120905060006104b282610708565b905060006104c282878787610735565b9050896001600160a01b0316816001600160a01b0316146104fa57808a6040516325c0072360e11b81526004016103719291906110b3565b6105058a8a8a610511565b50505050505050505050565b61051e8383836001610765565b505050565b6001600160a01b038381166000908152600160209081526040808320938616835292905220546000198114610588578181101561057957828183604051637dc7a0d960e11b8152600401610371939291906110ce565b61058884848484036000610765565b50505050565b6001600160a01b0383166105b8576000604051634b637e8f60e11b81526004016103719190610efc565b6001600160a01b0382166105e257600060405163ec442f0560e01b81526004016103719190610efc565b61051e838383610838565b6000306001600160a01b037f00000000000000000000000000000000000000000000000000000000000000001614801561064657507f000000000000000000000000000000000000000000000000000000000000000046145b1561067057507f000000000000000000000000000000000000000000000000000000000000000090565b61034261094d565b6001600160a01b0382166106a257600060405163ec442f0560e01b81526004016103719190610efc565b61038460008383610838565b60606103427f000000000000000000000000000000000000000000000000000000000000000060056109e3565b60606103427f000000000000000000000000000000000000000000000000000000000000000060066109e3565b600061030c6107156105ed565b8360405161190160f01b8152600281019290925260228201526042902090565b60008060008061074788888888610a8e565b9250925092506107578282610b50565b50909150505b949350505050565b6001600160a01b03841661078f57600060405163e602df0560e01b81526004016103719190610efc565b6001600160a01b0383166107b9576000604051634a1406b160e11b81526004016103719190610efc565b6001600160a01b038085166000908152600160209081526040808320938716835292905220829055801561058857826001600160a01b0316846001600160a01b03167f8c5be1e5ebec7d5bd14f71427d1e84f3dd0314c0f7b2291e5b200ac8c7c3b9258460405161082a9190610d74565b60405180910390a350505050565b6001600160a01b038316610863578060026000828254610858919061110c565b909155506108c29050565b6001600160a01b038316600090815260208190526040902054818110156108a35783818360405163391434e360e21b8152600401610371939291906110ce565b6001600160a01b03841660009081526020819052604090209082900390555b6001600160a01b0382166108de576002805482900390556108fd565b6001600160a01b03821660009081526020819052604090208054820190555b816001600160a01b0316836001600160a01b03167fddf252ad1be2c89b69c2b068fc378daa952ba7f163c4a11628f55a4df523b3ef836040516109409190610d74565b60405180910390a3505050565b60007f8b73c3c69bb8fe3d512ecc4cf759cc79239f7b179b0ffacaa9a75d522b39400f7f00000000000000000000000000000000000000000000000000000000000000007f000000000000000000000000000000000000000000000000000000000000000046306040516020016109c895949392919061111f565b60405160208183030381529060405280519060200120905090565b606060ff83146109fd576109f683610c07565b905061030c565b818054610a0990611006565b80601f0160208091040260200160405190810160405280929190818152602001828054610a3590611006565b8015610a825780601f10610a5757610100808354040283529160200191610a82565b820191906000526020600020905b815481529060010190602001808311610a6557829003601f168201915b5050505050905061030c565b600080807f7fffffffffffffffffffffffffffffff5d576e7357a4501ddfe92f46681b20a0841115610ac95750600091506003905082610b46565b600060018888888860405160008152602001604052604051610aee949392919061116b565b6020604051602081039080840390855afa158015610b10573d6000803e3d6000fd5b5050604051601f1901519150506001600160a01b038116610b3c57506000925060019150829050610b46565b9250600091508190505b9450945094915050565b6000826003811115610b6457610b646111a9565b03610b6d575050565b6001826003811115610b8157610b816111a9565b03610b9f5760405163f645eedf60e01b815260040160405180910390fd5b6002826003811115610bb357610bb36111a9565b03610bd35760405163fce698f760e01b8152610371908290600401610d74565b6003826003811115610be757610be76111a9565b0361038457806040516335e2f38360e21b81526004016103719190610d74565b60606000610c1483610c46565b604080516020808252818301909252919250600091906020820181803683375050509182525060208101929092525090565b600060ff8216601f81111561030c57604051632cd44ac360e21b815260040160405180910390fd5b60005b83811015610c89578181015183820152602001610c71565b50506000910152565b6000610c9c825190565b808452602084019350610cb3818560208601610c6e565b601f01601f19169290920192915050565b602080825281016103318184610c92565b60006001600160a01b03821661030c565b610cef81610cd5565b8114610cfa57600080fd5b50565b803561030c81610ce6565b80610cef565b803561030c81610d08565b60008060408385031215610d2f57610d2f600080fd5b6000610d3b8585610cfd565b9250506020610d4c85828601610d0e565b9150509250929050565b8015155b82525050565b6020810161030c8284610d56565b80610d5a565b6020810161030c8284610d6e565b600080600060608486031215610d9a57610d9a600080fd5b6000610da68686610cfd565b9350506020610db786828701610cfd565b9250506040610dc886828701610d0e565b9150509250925092565b60ff8116610d5a565b6020810161030c8284610dd2565b600060208284031215610dfe57610dfe600080fd5b600061075d8484610cfd565b6001600160f81b03198116610d5a565b610d5a81610cd5565b6000610e2f8383610d6e565b505060200190565b6000610e41825190565b80845260209384019383018060005b83811015610e75578151610e648882610e23565b975060208301925050600101610e50565b509495945050505050565b60e08101610e8e828a610e0a565b8181036020830152610ea08189610c92565b90508181036040830152610eb48188610c92565b9050610ec36060830187610d6e565b610ed06080830186610e1a565b610edd60a0830185610d6e565b81810360c0830152610eef8184610e37565b9998505050505050505050565b6020810161030c8284610e1a565b60ff8116610cef565b803561030c81610f0a565b600080600080600080600060e0888a031215610f3c57610f3c600080fd5b6000610f488a8a610cfd565b9750506020610f598a828b01610cfd565b9650506040610f6a8a828b01610d0e565b9550506060610f7b8a828b01610d0e565b9450506080610f8c8a828b01610f13565b93505060a0610f9d8a828b01610d0e565b92505060c0610fae8a828b01610d0e565b91505092959891949750929550565b60008060408385031215610fd357610fd3600080fd5b6000610fdf8585610cfd565b9250506020610d4c85828601610cfd565b634e487b7160e01b600052602260045260246000fd5b60028104600182168061101a57607f821691505b60208210810361102c5761102c610ff0565b50919050565b6020808252810161030c81600981526837b7363ca7bbb732b960b91b602082015260400190565b60c081016110678289610d6e565b6110746020830188610e1a565b6110816040830187610e1a565b61108e6060830186610d6e565b61109b6080830185610d6e565b6110a860a0830184610d6e565b979650505050505050565b604081016110c18285610e1a565b6103316020830184610e1a565b606081016110dc8286610e1a565b6110e96020830185610d6e565b61075d6040830184610d6e565b634e487b7160e01b600052601160045260246000fd5b8082018082111561030c5761030c6110f6565b60a0810161112d8288610d6e565b61113a6020830187610d6e565b6111476040830186610d6e565b6111546060830185610d6e565b6111616080830184610e1a565b9695505050505050565b608081016111798287610d6e565b6111866020830186610dd2565b6111936040830185610d6e565b6111a06060830184610d6e565b95945050505050565b634e487b7160e01b600052602160045260246000fdfea26469706673582212209e925892c627195af1bd130792b9f2080262e56f67ee6d7a6344ef9e5639dfe464736f6c63430008140033",
  "linkReferences": {},
  "deployedLinkReferences": {}
}