{
  "_format": "hh-sol-artifact-1",
  "contractName": "ScoreStake",
  "sourceName": "ScoreStake.sol",
  "abi": [
    {
      "inputs": [
        {
          "internalType": "bytes32",
          "name": "gameID",
          "type": "bytes32"
        },
        {
          "internalType": "address",
          "name": "usdc",
          "type": "address"
        },
        {
          "internalType": "address",
          "name": "nfticket",
          "type": "address"
        },
        {
          "internalType": "address",
          "name": "treasury",
          "type": "address"
        },
        {
          "internalType": "uint256[2]",
          "name": "_range",
          "type": "uint256[2]"
        }
      ],
      "stateMutability": "nonpayable",
      "type": "constructor"
    },
    {
      "inputs": [
        {
          "internalType": "address",
          "name": "sender",
          "type": "address"
        },
        {
          "internalType": "uint256",
          "name": "balance",
          "type": "uint256"
        },
        {
          "internalType": "uint256",
          "name": "needed",
          "type": "uint256"
        },
        {
          "internalType": "uint256",
          "name": "tokenId",
          "type": "uint256"
        }
      ],
      "name": "ERC1155InsufficientBalance",
      "type": "error"
    },
    {
      "inputs": [
        {
          "internalType": "address",
          "name": "approver",
          "type": "address"
        }
      ],
      "name": "ERC1155InvalidApprover",
      "type": "error"
    },
    {
      "inputs": [
        {
          "internalType": "uint256",
          "name": "idsLength",
          "type": "uint256"
        },
        {
          "internalType": "uint256",
          "name": "valuesLength",
          "type": "uint256"
        }
      ],
      "name": "ERC1155InvalidArrayLength",
      "type": "error"
    },
    {
      "inputs": [
        {
          "internalType": "address",
          "name": "operator",
          "type": "address"
        }
      ],
      "name": "ERC1155InvalidOperator",
      "type": "error"
    },
    {
      "inputs": [
        {
          "internalType": "address",
          "name": "receiver",
          "type": "address"
        }
      ],
      "name": "ERC1155InvalidReceiver",
      "type": "error"
    },
    {
      "inputs": [
        {
          "internalType": "address",
          "name": "sender",
          "type": "address"
        }
      ],
      "name": "ERC1155InvalidSender",
      "type": "error"
    },
    {
      "inputs": [
        {
          "internalType": "address",
          "name": "operator",
          "type": "address"
        },
        {
          "internalType": "address",
          "name": "owner",
          "type": "address"
        }
      ],
      "name": "ERC1155MissingApprovalForAll",
      "type": "error"
    },
    {
      "inputs": [],
      "name": "ReentrancyGuardReentrantCall",
      "type": "error"
    },
    {
      "anonymous": false,
      "inputs": [
        {
          "indexed": true,
          "internalType": "address",
          "name": "account",
          "type": "address"
        },
        {
          "indexed": true,
          "internalType": "address",
          "name": "operator",
          "type": "address"
        },
        {
          "indexed": false,
          "internalType": "bool",
          "name": "approved",
          "type": "bool"
        }
      ],
      "name": "ApprovalForAll",
      "type": "event"
    },
    {
      "anonymous": false,
      "inputs": [
        {
          "indexed": false,
          "internalType": "uint256",
          "name": "newFee",
          "type": "uint256"
        }
      ],
      "name": "DepositFeeChanged",
      "type": "event"
    },
    {
      "anonymous": false,
      "inputs": [
        {
          "indexed": true,
          "internalType": "address",
          "name": "manager",
          "type": "address"
        }
      ],
      "name": "ManagerAdded",
      "type": "event"
    },
    {
      "anonymous": false,
      "inputs": [
        {
          "indexed": true,
          "internalType": "address",
          "name": "manager",
          "type": "address"
        }
      ],
      "name": "ManagerRemoved",
      "type": "event"
    },
    {
      "anonymous": false,
      "inputs": [
        {
          "indexed": true,
          "internalType": "bytes32",
          "name": "_name",
          "type": "bytes32"
        },
        {
          "indexed": true,
          "internalType": "uint256",
          "name": "winningIndex",
          "type": "uint256"
        }
      ],
      "name": "StakeResolved",
      "type": "event"
    },
    {
      "anonymous": false,
      "inputs": [
        {
          "indexed": true,
          "internalType": "address",
          "name": "treasuryAddress",
          "type": "address"
        }
      ],
      "name": "StakeTreasuryCreated",
      "type": "event"
    },
    {
      "anonymous": false,
      "inputs": [
        {
          "indexed": true,
          "internalType": "address",
          "name": "tokenIn",
          "type": "address"
        },
        {
          "indexed": true,
          "internalType": "address",
          "name": "tokenOut",
          "type": "address"
        },
        {
          "indexed": true,
          "internalType": "uint256",
          "name": "amountIn",
          "type": "uint256"
        },
        {
          "indexed": false,
          "internalType": "uint256",
          "name": "amountOutMin",
          "type": "uint256"
        }
      ],
      "name": "SwapExactTokens",
      "type": "event"
    },
    {
      "anonymous": false,
      "inputs": [
        {
          "indexed": false,
          "internalType": "uint256",
          "name": "amountOut",
          "type": "uint256"
        }
      ],
      "name": "SwapExactTokensSuccess",
      "type": "event"
    },
    {
      "anonymous": false,
      "inputs": [
        {
          "indexed": true,
          "internalType": "address",
          "name": "recipient",
          "type": "address"
        },
        {
          "indexed": true,
          "internalType": "uint256",
          "name": "ticketID",
          "type": "uint256"
        },
        {
          "indexed": true,
          "internalType": "uint256",
          "name": "serviceDescriptor",
          "type": "uint256"
        }
      ],
      "name": "TicketIssued",
      "type": "event"
    },
    {
      "anonymous": false,
      "inputs": [
        {
          "indexed": true,
          "internalType": "address",
          "name": "token",
          "type": "address"
        }
      ],
      "name": "TokenAllowed",
      "type": "event"
    },
    {
      "anonymous": false,
      "inputs": [
        {
          "indexed": true,
          "internalType": "address",
          "name": "token",
          "type": "address"
        }
      ],
      "name": "TokenDisallowed",
      "type": "event"
    },
    {
      "anonymous": false,
      "inputs": [
        {
          "indexed": true,
          "internalType": "bytes32",
          "name": "_name",
          "type": "bytes32"
        },
        {
          "indexed": false,
          "internalType": "uint256",
          "name": "option",
          "type": "uint256"
        },
        {
          "indexed": true,
          "internalType": "uint256",
          "name": "totalLP",
          "type": "uint256"
        }
      ],
      "name": "TokensWagered",
      "type": "event"
    },
    {
      "anonymous": false,
      "inputs": [
        {
          "indexed": true,
          "internalType": "address",
          "name": "operator",
          "type": "address"
        },
        {
          "indexed": true,
          "internalType": "address",
          "name": "from",
          "type": "address"
        },
        {
          "indexed": true,
          "internalType": "address",
          "name": "to",
          "type": "address"
        },
        {
          "indexed": false,
          "internalType": "uint256[]",
          "name": "ids",
          "type": "uint256[]"
        },
        {
          "indexed": false,
          "internalType": "uint256[]",
          "name": "values",
          "type": "uint256[]"
        }
      ],
      "name": "TransferBatch",
      "type": "event"
    },
    {
      "anonymous": false,
      "inputs": [
        {
          "indexed": true,
          "internalType": "address",
          "name": "operator",
          "type": "address"
        },
        {
          "indexed": true,
          "internalType": "address",
          "name": "from",
          "type": "address"
        },
        {
          "indexed": true,
          "internalType": "address",
          "name": "to",
          "type": "address"
        },
        {
          "indexed": false,
          "internalType": "uint256",
          "name": "id",
          "type": "uint256"
        },
        {
          "indexed": false,
          "internalType": "uint256",
          "name": "value",
          "type": "uint256"
        }
      ],
      "name": "TransferSingle",
      "type": "event"
    },
    {
      "anonymous": false,
      "inputs": [
        {
          "indexed": false,
          "internalType": "string",
          "name": "value",
          "type": "string"
        },
        {
          "indexed": true,
          "internalType": "uint256",
          "name": "id",
          "type": "uint256"
        }
      ],
      "name": "URI",
      "type": "event"
    },
    {
      "anonymous": false,
      "inputs": [
        {
          "indexed": false,
          "internalType": "uint256",
          "name": "newFee",
          "type": "uint256"
        }
      ],
      "name": "WithdrawFeeChanged",
      "type": "event"
    },
    {
      "anonymous": false,
      "inputs": [
        {
          "indexed": true,
          "internalType": "address",
          "name": "user",
          "type": "address"
        },
        {
          "indexed": true,
          "internalType": "address",
          "name": "token",
          "type": "address"
        },
        {
          "indexed": true,
          "internalType": "uint256",
          "name": "amount",
          "type": "uint256"
        }
      ],
      "name": "WithdrawalApproved",
      "type": "event"
    },
    {
      "anonymous": false,
      "inputs": [
        {
          "indexed": true,
          "internalType": "address",
          "name": "user",
          "type": "address"
        },
        {
          "indexed": true,
          "internalType": "address",
          "name": "token",
          "type": "address"
        },
        {
          "indexed": true,
          "internalType": "uint256",
          "name": "amount",
          "type": "uint256"
        }
      ],
      "name": "WithdrawalRejected",
      "type": "event"
    },
    {
      "anonymous": false,
      "inputs": [
        {
          "indexed": true,
          "internalType": "address",
          "name": "user",
          "type": "address"
        },
        {
          "indexed": true,
          "internalType": "address",
          "name": "token",
          "type": "address"
        },
        {
          "indexed": true,
          "internalType": "uint256",
          "name": "amount",
          "type": "uint256"
        }
      ],
      "name": "WithdrawalRequested",
      "type": "event"
    },
    {
      "anonymous": false,
      "inputs": [
        {
          "indexed": true,
          "internalType": "address",
          "name": "user",
          "type": "address"
        },
        {
          "indexed": true,
          "internalType": "address",
          "name": "token",
          "type": "address"
        },
        {
          "indexed": true,
          "internalType": "uint256",
          "name": "amount",
          "type": "uint256"
        }
      ],
      "name": "Withdrawn",
      "type": "event"
    },
    {
      "inputs": [
        {
          "internalType": "address",
          "name": "account",
          "type": "address"
        },
        {
          "internalType": "uint256",
          "name": "id",
          "type": "uint256"
        }
      ],
      "name": "balanceOf",
      "outputs": [
        {
          "internalType": "uint256",
          "name": "",
          "type": "uint256"
        }
      ],
      "stateMutability": "view",
      "type": "function"
    },
    {
      "inputs": [
        {
          "internalType": "address[]",
          "name": "accounts",
          "type": "address[]"
        },
        {
          "internalType": "uint256[]",
          "name": "ids",
          "type": "uint256[]"
        }
      ],
      "name": "balanceOfBatch",
      "outputs": [
        {
          "internalType": "uint256[]",
          "name": "",
          "type": "uint256[]"
        }
      ],
      "stateMutability": "view",
      "type": "function"
    },
    {
      "inputs": [
        {
          "internalType": "address",
          "name": "sendTo",
          "type": "address"
        }
      ],
      "name": "cashOut",
      "outputs": [],
      "stateMutability": "nonpayable",
      "type": "function"
    },
    {
      "inputs": [],
      "name": "companyDescriptor",
      "outputs": [
        {
          "internalType": "uint256",
          "name": "",
          "type": "uint256"
        }
      ],
      "stateMutability": "view",
      "type": "function"
    },
    {
      "inputs": [
        {
          "internalType": "address",
          "name": "_wallet",
          "type": "address"
        },
        {
          "internalType": "address",
          "name": "erc20Contract",
          "type": "address"
        }
      ],
      "name": "deposits",
      "outputs": [
        {
          "internalType": "uint256",
          "name": "",
          "type": "uint256"
        }
      ],
      "stateMutability": "view",
      "type": "function"
    },
    {
      "inputs": [
        {
          "internalType": "uint256",
          "name": "id",
          "type": "uint256"
        }
      ],
      "name": "exists",
      "outputs": [
        {
          "internalType": "bool",
          "name": "",
          "type": "bool"
        }
      ],
      "stateMutability": "view",
      "type": "function"
    },
    {
      "inputs": [
        {
          "internalType": "uint256",
          "name": "score",
          "type": "uint256"
        }
      ],
      "name": "getRatio",
      "outputs": [
        {
          "internalType": "uint256[2]",
          "name": "ratio",
          "type": "uint256[2]"
        }
      ],
      "stateMutability": "view",
      "type": "function"
    },
    {
      "inputs": [],
      "name": "getRatios",
      "outputs": [
        {
          "internalType": "uint256[]",
          "name": "_ratios",
          "type": "uint256[]"
        }
      ],
      "stateMutability": "view",
      "type": "function"
    },
    {
      "inputs": [
        {
          "internalType": "address",
          "name": "staker",
          "type": "address"
        }
      ],
      "name": "getStakes",
      "outputs": [
        {
          "internalType": "uint256[]",
          "name": "",
          "type": "uint256[]"
        }
      ],
      "stateMutability": "view",
      "type": "function"
    },
    {
      "inputs": [],
      "name": "getUniswapRouter",
      "outputs": [
        {
          "internalType": "address",
          "name": "",
          "type": "address"
        }
      ],
      "stateMutability": "view",
      "type": "function"
    },
    {
      "inputs": [
        {
          "internalType": "address",
          "name": "account",
          "type": "address"
        },
        {
          "internalType": "address",
          "name": "operator",
          "type": "address"
        }
      ],
      "name": "isApprovedForAll",
      "outputs": [
        {
          "internalType": "bool",
          "name": "",
          "type": "bool"
        }
      ],
      "stateMutability": "view",
      "type": "function"
    },
    {
      "inputs": [],
      "name": "owner",
      "outputs": [
        {
          "internalType": "address",
          "name": "",
          "type": "address"
        }
      ],
      "stateMutability": "view",
      "type": "function"
    },
    {
      "inputs": [
        {
          "internalType": "uint256[2]",
          "name": "_option",
          "type": "uint256[2]"
        },
        {
          "internalType": "address",
          "name": "erc20Contract",
          "type": "address"
        },
        {
          "internalType": "uint256",
          "name": "stakedAmount",
          "type": "uint256"
        }
      ],
      "name": "predict_score",
      "outputs": [],
      "stateMutability": "nonpayable",
      "type": "function"
    },
    {
      "inputs": [
        {
          "internalType": "address",
          "name": "from",
          "type": "address"
        },
        {
          "internalType": "address",
          "name": "to",
          "type": "address"
        },
        {
          "internalType": "uint256[]",
          "name": "ids",
          "type": "uint256[]"
        },
        {
          "internalType": "uint256[]",
          "name": "values",
          "type": "uint256[]"
        },
        {
          "internalType": "bytes",
          "name": "data",
          "type": "bytes"
        }
      ],
      "name": "safeBatchTransferFrom",
      "outputs": [],
      "stateMutability": "nonpayable",
      "type": "function"
    },
    {
      "inputs": [
        {
          "internalType": "address",
          "name": "from",
          "type": "address"
        },
        {
          "internalType": "address",
          "name": "to",
          "type": "address"
        },
        {
          "internalType": "uint256",
          "name": "id",
          "type": "uint256"
        },
        {
          "internalType": "uint256",
          "name": "value",
          "type": "uint256"
        },
        {
          "internalType": "bytes",
          "name": "data",
          "type": "bytes"
        }
      ],
      "name": "safeTransferFrom",
      "outputs": [],
      "stateMutability": "nonpayable",
      "type": "function"
    },
    {
      "inputs": [],
      "name": "serviceDescriptor",
      "outputs": [
        {
          "internalType": "uint256",
          "name": "",
          "type": "uint256"
        }
      ],
      "stateMutability": "view",
      "type": "function"
    },
    {
      "inputs": [
        {
          "internalType": "address",
          "name": "operator",
          "type": "address"
        },
        {
          "internalType": "bool",
          "name": "approved",
          "type": "bool"
        }
      ],
      "name": "setApprovalForAll",
      "outputs": [],
      "stateMutability": "nonpayable",
      "type": "function"
    },
    {
      "inputs": [
        {
          "internalType": "uint256",
          "name": "_fee",
          "type": "uint256"
        }
      ],
      "name": "setDepositFee",
      "outputs": [],
      "stateMutability": "nonpayable",
      "type": "function"
    },
    {
      "inputs": [
        {
          "internalType": "address",
          "name": "_manager",
          "type": "address"
        },
        {
          "internalType": "bool",
          "name": "_status",
          "type": "bool"
        }
      ],
      "name": "setManager",
      "outputs": [],
      "stateMutability": "nonpayable",
      "type": "function"
    },
    {
      "inputs": [
        {
          "internalType": "address",
          "name": "_usdc",
          "type": "address"
        }
      ],
      "name": "setUSDCAddress",
      "outputs": [],
      "stateMutability": "nonpayable",
      "type": "function"
    },
    {
      "inputs": [
        {
          "internalType": "uint256[2]",
          "name": "finalScore",
          "type": "uint256[2]"
        }
      ],
      "name": "setWinner",
      "outputs": [],
      "stateMutability": "nonpayable",
      "type": "function"
    },
    {
      "inputs": [
        {
          "internalType": "uint256",
          "name": "_fee",
          "type": "uint256"
        }
      ],
      "name": "setWithdrawFee",
      "outputs": [],
      "stateMutability": "nonpayable",
      "type": "function"
    },
    {
      "inputs": [
        {
          "internalType": "bytes4",
          "name": "interfaceId",
          "type": "bytes4"
        }
      ],
      "name": "supportsInterface",
      "outputs": [
        {
          "internalType": "bool",
          "name": "",
          "type": "bool"
        }
      ],
      "stateMutability": "view",
      "type": "function"
    },
    {
      "inputs": [],
      "name": "totalSupply",
      "outputs": [
        {
          "internalType": "uint256",
          "name": "",
          "type": "uint256"
        }
      ],
      "stateMutability": "view",
      "type": "function"
    },
    {
      "inputs": [
        {
          "internalType": "uint256",
          "name": "id",
          "type": "uint256"
        }
      ],
      "name": "totalSupply",
      "outputs": [
        {
          "internalType": "uint256",
          "name": "",
          "type": "uint256"
        }
      ],
      "stateMutability": "view",
      "type": "function"
    },
    {
      "inputs": [
        {
          "internalType": "uint256",
          "name": "",
          "type": "uint256"
        }
      ],
      "name": "uri",
      "outputs": [
        {
          "internalType": "string",
          "name": "",
          "type": "string"
        }
      ],
      "stateMutability": "view",
      "type": "function"
    }
  ],
  "bytecode": "0x60e0604052602b60808181529062003bb060a039600690620000229082620002f3565b503480156200003057600080fd5b5060405162003bdb38038062003bdb83398101604081905262000053916200050d565b6006805462000062906200020f565b80601f016020809104026020016040519081016040528092919081815260200182805462000090906200020f565b8015620000e15780601f10620000b557610100808354040283529160200191620000e1565b820191906000526020600020905b815481529060010190602001808311620000c357829003601f168201915b5050600160005550620000f89150829050620001d1565b508051158015906200010d5750602081015115155b620001355760405162461bcd60e51b81526004016200012c9062000591565b60405180910390fd5b60078054336001600160a01b03199182161790915581516023556020820151602455600c805482166001600160a01b0386811691909117909155600d80548316858316179055600b80549092169086161790556000600e819055600f556108036029819055620001aa90600160fb1b620005d3565b602a55505050602191909155506000601281905560056013556014819055601555620005e9565b6003620001df8282620002f3565b5050565b634e487b7160e01b600052604160045260246000fd5b634e487b7160e01b600052602260045260246000fd5b6002810460018216806200022457607f821691505b602082108103620002395762000239620001f9565b50919050565b6000620002506200024d8381565b90565b92915050565b62000261836200023f565b815460001960089490940293841b1916921b91909117905550565b60006200028b81848462000256565b505050565b81811015620001df57620002a66000826200027c565b60010162000290565b601f8211156200028b576000818152602090206020601f85010481016020851015620002d85750805b620002ec6020601f86010483018262000290565b5050505050565b81516001600160401b038111156200030f576200030f620001e3565b6200031b82546200020f565b62000328828285620002af565b6020601f8311600181146200035f5760008415620003465750858201515b600019600886021c1981166002860217865550620003bb565b600085815260208120601f198616915b828110156200039157888501518255602094850194600190920191016200036f565b86831015620003ae5784890151600019601f89166008021c191682555b6001600288020188555050505b505050505050565b805b8114620003d157600080fd5b50565b80516200025081620003c3565b60006001600160a01b03821662000250565b620003c581620003e1565b80516200025081620003f3565b601f19601f83011681018181106001600160401b0382111715620004335762000433620001e3565b6040525050565b60006200044660405190565b90506200045482826200040b565b919050565b60006001600160401b03821115620004755762000475620001e3565b5060200290565b6000620004936200048d8462000459565b6200043a565b90508060208402830185811115620004ae57620004ae600080fd5b835b81811015620004d65780620004c68882620003d4565b84525060209283019201620004b0565b5050509392505050565b600082601f830112620004f657620004f6600080fd5b6002620005058482856200047c565b949350505050565b600080600080600060c086880312156200052a576200052a600080fd5b6000620005388888620003d4565b95505060206200054b88828901620003fe565b94505060406200055e88828901620003fe565b93505060606200057188828901620003fe565b92505060806200058488828901620004e0565b9150509295509295909350565b602080825281016200025081600d81526c696e76616c69642072616e676560981b602082015260400190565b634e487b7160e01b600052601160045260246000fd5b80820180821115620002505762000250620005bd565b6135b780620005f96000396000f3fe608060405234801561001057600080fd5b506004361061018d5760003560e01c80638eed0496116100de578063b6ac642a11610097578063e985e9c511610071578063e985e9c5146103a9578063eb3ab433146103bc578063f242432a146103c5578063f43351f8146103d857600080fd5b8063b6ac642a14610363578063bd85b03914610376578063d8a713641461039657600080fd5b80638eed0496146102d65780638f601f66146102e9578063a22cb46514610322578063a5e90eee14610335578063aaf5bfc314610348578063b13c86a31461035b57600080fd5b806346a62eaf1161014b5780634f558e79116101255780634f558e7914610274578063524900b5146102965780637ba6f458146102b05780638da5cb5b146102c357600080fd5b806346a62eaf14610221578063490ae210146102415780634e1273f41461025457600080fd5b8062fdd58e1461019257806301ffc9a7146101bb5780630e89341c146101db57806318160ddd146101fb578063189c92b9146102035780632eb2c2d61461020c575b600080fd5b6101a56101a0366004612498565b6103eb565b6040516101b291906124dd565b60405180910390f35b6101ce6101c9366004612506565b610415565b6040516101b2919061252f565b6101ee6101e936600461253d565b610465565b6040516101b291906125b4565b6005546101a5565b6101a5602a5481565b61021f61021a366004612756565b6104f9565b005b61023461022f36600461253d565b61055a565b6040516101b2919061285f565b61021f61024f36600461253d565b6105e1565b6102676102623660046128e2565b61068b565b6040516101b29190612993565b6101ce61028236600461253d565b600090815260046020526040902054151590565b6009546001600160a01b03165b6040516101b291906129ad565b6102676102be3660046129bb565b610759565b6007546102a3906001600160a01b031681565b61021f6102e43660046129f0565b6107c4565b6101a56102f7366004612a11565b6001600160a01b03918216600090815260116020908152604080832093909416825291909152205490565b61021f610330366004612a57565b610931565b61021f610343366004612a57565b610940565b61021f6103563660046129bb565b610a83565b610267610aee565b61021f61037136600461253d565b610b46565b6101a561038436600461253d565b60009081526004602052604090205490565b61021f6103a43660046129bb565b610be5565b6101ce6103b7366004612a11565b610dcb565b6101a560295481565b61021f6103d3366004612a8a565b610df9565b61021f6103e6366004612ae4565b610e49565b60008181526001602090815260408083206001600160a01b03861684529091529020545b92915050565b60006001600160e01b03198216636cdb3d1360e11b148061044657506001600160e01b031982166303a24d0760e21b145b8061040f57506301ffc9a760e01b6001600160e01b031983161461040f565b60606003805461047490612b4a565b80601f01602080910402602001604051908101604052809291908181526020018280546104a090612b4a565b80156104ed5780601f106104c2576101008083540402835291602001916104ed565b820191906000526020600020905b8154815290600101906020018083116104d057829003601f168201915b50505050509050919050565b336001600160a01b038616811480159061051a57506105188682610dcb565b155b1561054557808660405163711bec9160e11b815260040161053c929190612b76565b60405180910390fd5b61055286868686866112bb565b505050505050565b610562612407565b6105a16040518060400160405280601d81526020017f66696e64696e6720726174696f20666f72206f7074696f6e203d20257300000081525083611322565b600554815260008281526004602052604090205460208201819052815110156105dc5760405162461bcd60e51b815260040161053c90612beb565b919050565b6007546001600160a01b031633148061060e57503360009081526018602052604090205460ff1615156001145b61062a5760405162461bcd60e51b815260040161053c90612c29565b606481111561064b5760405162461bcd60e51b815260040161053c90612c5f565b60128190556040517f2a6f1084651542f3142c70f4c43c096d016a8b517c063660b146268f646ea43a906106809083906124dd565b60405180910390a150565b606081518351146106b55781518351604051635b05999160e01b815260040161053c929190612c6f565b6000835167ffffffffffffffff8111156106d1576106d16125c5565b6040519080825280602002602001820160405280156106fa578160200160208202803683370190505b50905060005b845181101561075157602080820286010151610724906020808402870101516103eb565b82828151811061073657610736612b91565b602090810291909101015261074a81612ca0565b9050610700565b509392505050565b6001600160a01b0381166000908152602760209081526040918290208054835181840281018401909452808452606093928301828280156104ed57602002820191906000526020600020905b8154815260200190600101908083116107a55750505050509050919050565b6007546001600160a01b03163314806107f157503360009081526018602052604090205460ff1615156001145b61080d5760405162461bcd60e51b815260040161053c90612c29565b6022541561082d5760405162461bcd60e51b815260040161053c90612cee565b602454813510801561084457506024546020820135105b6108605760405162461bcd60e51b815260040161053c90612d32565b60408051808201909152601081526f73636f7265206973202573203a20257360801b60208083019190915261089b9190833590840135611367565b6024546000906020830135906108b2908435612d42565b6108bc9190612d61565b90506108c9816064612d61565b60225560408051808201909152601181527077696e6e696e67496e646578203d20257360781b60208201526108fe9082611322565b6021546040518291907fca7b1fff94ccaaa3ed0d36fdb1d750075e1236e444d4e0b61a8396334cac928890600090a35050565b61093c3383836113b3565b5050565b6007546001600160a01b0316331461096a5760405162461bcd60e51b815260040161053c90612d94565b80156109ae576001600160a01b03821660009081526018602052604090205460ff16156109a95760405162461bcd60e51b815260040161053c90612dd8565b6109e6565b6001600160a01b03821660009081526018602052604090205460ff166109e65760405162461bcd60e51b815260040161053c90612e1c565b6001600160a01b0382166000908152601860205260409020805460ff19168215801591909117909155610a4b576040516001600160a01b038316907f3b4a40cccf2058c593542587329dd385be4f0b588db5471fbd9598e56dd7093a90600090a25050565b6040516001600160a01b038316907fef69f7d97228658c92417be1b16b19058315de71fecb435d07b7d23728b6bd3190600090a25050565b6007546001600160a01b0316331480610ab057503360009081526018602052604090205460ff1615156001145b610acc5760405162461bcd60e51b815260040161053c90612c29565b600b80546001600160a01b0319166001600160a01b0392909216919091179055565b60606025805480602002602001604051908101604052809291908181526020018280548015610b3c57602002820191906000526020600020905b815481526020019060010190808311610b28575b5050505050905090565b6007546001600160a01b0316331480610b7357503360009081526018602052604090205460ff1615156001145b610b8f5760405162461bcd60e51b815260040161053c90612c29565b6064811115610bb05760405162461bcd60e51b815260040161053c90612c5f565b60138190556040517fef51b055f1ac1490e0c230364c65b0a9eca534656954023b56053b78461678e4906106809083906124dd565b602254600003610c075760405162461bcd60e51b815260040161053c90612e60565b60006064602254610c189190612e70565b90506000610c2633836103eb565b600d5460215460405163019cfda760e61b81529293506000926001600160a01b039092169163673f69c091610c5d916004016124dd565b602060405180830381865afa158015610c7a573d6000803e3d6000fd5b505050506040513d601f19601f82011682018060405250810190610c9e9190612e8e565b600084815260046020526040812054919250819003610ccf5760405162461bcd60e51b815260040161053c90612ee3565b600081610cdc8486612d42565b610ce69190612f09565b905080600003610d085760405162461bcd60e51b815260040161053c90612f61565b610d113361144d565b610d2485610d1f8685612e70565b61156c565b610d2f33868661162f565b600b54610d479087906001600160a01b031683611697565b600d5460215460405163377f548960e01b81526001600160a01b039092169163377f548991610d7b91339190600401612f71565b6000604051808303816000875af1158015610d9a573d6000803e3d6000fd5b505050506040513d6000823e601f3d908101601f19168201604052610dc29190810190612ff4565b50505050505050565b6001600160a01b03918216600090815260026020908152604080832093909416825291909152205460ff1690565b336001600160a01b0386168114801590610e1a5750610e188682610dcb565b155b15610e3c57808660405163711bec9160e11b815260040161053c929190612b76565b6105528686868686611832565b610e6d60405180606001604052806000815260200160008152602001600081525090565b604051635eee785d60e11b815273__$744e6baa1f687d86a909216607c3c50c82$__9063bddcf0ba90610ea790600890879060040161302f565b602060405180830381865af4158015610ec4573d6000803e3d6000fd5b505050506040513d601f19601f82011682018060405250810190610ee89190613046565b610f045760405162461bcd60e51b815260040161053c9061309b565b60225415610f245760405162461bcd60e51b815260040161053c90612cee565b6024548435108015610f3b57506024546020850135105b610f575760405162461bcd60e51b815260040161053c90612d32565b6040516323b872dd60e01b81526001600160a01b038416906323b872dd90610f87903390309087906004016130ab565b6020604051808303816000875af1158015610fa6573d6000803e3d6000fd5b505050506040513d601f19601f82011682018060405250810190610fca9190613046565b610fe65760405162461bcd60e51b815260040161053c906130f9565b602454600090602086013590610ffd908735612d42565b6110079190612d61565b90506110496040518060400160405280601c81526020017f73657474696e672025732055534443207374616b6520666f72202573000000008152508483611367565b611055600885856118b7565b600d546021548251604051632fe3df7360e01b81529395506001600160a01b0390921692632fe3df739261109192339290918a91600401613109565b6020604051808303816000875af11580156110b0573d6000803e3d6000fd5b505050506040513d601f19601f820116820180604052508101906110d49190612e8e565b5081516110e5906008908690611a04565b60008260200151905061110933838360405180602001604052806000815250611b3f565b6111133383611b9c565b600082815260046020908152604080832054602890925282205490910361119957602580546001808201835560008390527f401968ff42a154441da5f6c4c935ac46b8671f0e062baaa62a7545ba53bb6e4c8083018790558354918201909355909101829055611184816064612d61565b600085815260286020526040902055506111d6565b60008381526028602052604090205481906025906111b990606390612e70565b815481106111c9576111c9612b91565b6000918252602090912001555b61124c6040518060600160405280602d8152602001613530602d913960008581526028602052604090205461120d90606390612e70565b60008681526028602052604090205460259061122b90606390612e70565b8154811061123b5761123b612b91565b906000526020600020015484611c16565b61127360405180606001604052806025815260200161355d60259139848660200151611367565b83602001516021547fe79d0fce8d68f798b274c3a8025b84bf7ac69a004b1946384504d5d0819f080c856040516112aa91906124dd565b60405180910390a350505050505050565b6001600160a01b0384166112e5576000604051632bfa23e760e11b815260040161053c91906129ad565b6001600160a01b03851661130e576000604051626a0d4560e21b815260040161053c91906129ad565b61131b8585858585611c5f565b5050505050565b61093c828260405160240161133892919061313e565b60408051601f198184030181529190526020810180516001600160e01b0316632d839cb360e21b179052611cb2565b6113ae83838360405160240161137f9392919061315e565b60408051601f198184030181529190526020810180516001600160e01b031663ca47c4eb60e01b179052611cb2565b505050565b6001600160a01b0382166113dc57600060405162ced3e160e81b815260040161053c91906129ad565b6001600160a01b0383811660008181526002602090815260408083209487168084529490915290819020805460ff1916851515179055517f17307eab39ab6107e8899845ad3d59bd9653f200f220920489ca2b5937696c319061144090859061252f565b60405180910390a3505050565b60005b6001600160a01b038216600090815260276020526040902054811015611547576001600160a01b038216600090815260276020526040812080548390811061149a5761149a612b91565b60009182526020808320909101546001600160a01b038616835260268252604080842082855290925291205490915060ff1615611534576115086040518060400160405280601481526020017364656c6574655374616b655b25735d203d20257360601b8152508383611367565b6001600160a01b03831660009081526026602090815260408083208484529091529020805460ff191690555b508061153f81612ca0565b915050611450565b506001600160a01b038116600090815260276020526040812061156991612425565b50565b60005b6025548110156113ae57826025828154811061158d5761158d612b91565b90600052602060002001540361161d576115c76040518060600160405280602881526020016134e36028913984602561122b856001612d61565b8160256115d5836001612d61565b815481106115e5576115e5612b91565b90600052602060002001819055506113ae60405180606001604052806025815260200161350b6025913984602561122b856001612d61565b611628600282612d61565b905061156f565b6001600160a01b038316611658576000604051626a0d4560e21b815260040161053c91906129ad565b604080516001808252602082018590528183019081526060820184905260a0820190925260006080820181815291929161131b91879185908590611c5f565b61169f611cbb565b600b5482906001600160a01b038083169116146116ce5760405162461bcd60e51b815260040161053c906131a6565b600d5460215460405163019cfda760e61b815284926001600160a01b03169163673f69c09161170091906004016124dd565b602060405180830381865afa15801561171d573d6000803e3d6000fd5b505050506040513d601f19601f820116820180604052508101906117419190612e8e565b101561175f5760405162461bcd60e51b815260040161053c906131f6565b601354600090611773906008908590611ce5565b905060006117818285612e70565b600d546021546040516378ce040160e01b81529293506001600160a01b03909116916378ce0401916117bb91899086908c90600401613206565b600060405180830381600087803b1580156117d557600080fd5b505af11580156117e9573d6000803e3d6000fd5b50506040518392506001600160a01b038816915033907fd1c19fbcd4551a5edfb66d43d2e337c04837afda3482b42bdf569a8fccdae5fb90600090a45050506113ae6001600055565b6001600160a01b03841661185c576000604051632bfa23e760e11b815260040161053c91906129ad565b6001600160a01b038516611885576000604051626a0d4560e21b815260040161053c91906129ad565b60408051600180825260208201869052818301908152606082018590526080820190925290610dc28787848487611c5f565b6118db60405180606001604052806000815260200160008152602001600081525090565b60038401546001600160a01b0384811691161461190a5760405162461bcd60e51b815260040161053c906131a6565b611919848386600a0154611ce5565b6040820181905261192a9083612e70565b80825261193a9085908590611d05565b60208201819052600685018054600090611955908490612d61565b90915550506040808201516001600160a01b03851660009081526013870160205291822080549192909161198a908490612d61565b9091555050805133600090815260098601602090815260408083206001600160a01b0388168452909152812080549091906119c6908490612d61565b909155505080516001600160a01b0384166000908152600e86016020526040812080549091906119f7908490612d61565b90915550505b9392505050565b60038301546001600160a01b03838116911614611a335760405162461bcd60e51b815260040161053c90613265565b6040516370a0823160e01b815281906001600160a01b038416906370a0823190611a619030906004016129ad565b602060405180830381865afa158015611a7e573d6000803e3d6000fd5b505050506040513d601f19601f82011682018060405250810190611aa29190612e8e565b1015611ac05760405162461bcd60e51b815260040161053c906132ba565b600583015460405163a9059cbb60e01b81526001600160a01b038481169263a9059cbb92611af692909116908590600401612f71565b6020604051808303816000875af1158015611b15573d6000803e3d6000fd5b505050506040513d601f19601f82011682018060405250810190611b399190613046565b50505050565b6001600160a01b038416611b69576000604051632bfa23e760e11b815260040161053c91906129ad565b60408051600180825260208201869052818301908152606082018590526080820190925290610552600087848487611c5f565b6001600160a01b038216600090815260266020908152604080832084845290915281205460ff161515900361093c576001600160a01b039190911660008181526026602090815260408083208584528252808320805460ff1916600190811790915593835260278252822080549384018155825290200155565b611b3984848484604051602401611c3094939291906132ca565b60408051601f198184030181529190526020810180516001600160e01b031663a7a8785360e01b179052611cb2565b611c6b85858585611d5b565b6001600160a01b0384161561131b5782513390600103611ca45760208481015190840151611c9d838989858589611eb5565b5050610552565b610552818787878787611fc7565b611569816120a7565b600260005403611cde57604051633ee5aeb560e01b815260040160405180910390fd5b6002600055565b60006064611cf38385612d42565b611cfd9190612f09565b949350505050565b60038301546000906001600160a01b0390811690841603611d275750806119fd565b6000611d3385856120c8565b6020810151815191925090611d489085612d42565b611d529190612f09565b95945050505050565b611d678484848461220c565b6001600160a01b038416611e1a576000805b8351811015611e00576000838281518110611d9657611d96612b91565b602002602001015190508060046000878581518110611db757611db7612b91565b602002602001015181526020019081526020016000206000828254611ddc9190612d61565b90915550611dec90508184612d61565b92505080611df990612ca0565b9050611d79565b508060056000828254611e139190612d61565b9091555050505b6001600160a01b038316611b39576000805b8351811015611ea4576000838281518110611e4957611e49612b91565b602002602001015190508060046000878581518110611e6a57611e6a612b91565b602002602001015181526020019081526020016000206000828254039250508190555080830192505080611e9d90612ca0565b9050611e2c565b506005805491909103905550505050565b6001600160a01b0384163b156105525760405163f23a6e6160e01b81526001600160a01b0385169063f23a6e6190611ef990899089908890889088906004016132f7565b6020604051808303816000875af1925050508015611f34575060408051601f3d908101601f19168201909252611f3191810190613354565b60015b611f94573d808015611f62576040519150601f19603f3d011682016040523d82523d6000602084013e611f67565b606091505b508051600003611f8c5784604051632bfa23e760e11b815260040161053c91906129ad565b805181602001fd5b6001600160e01b0319811663f23a6e6160e01b14610dc25784604051632bfa23e760e11b815260040161053c91906129ad565b6001600160a01b0384163b156105525760405163bc197c8160e01b81526001600160a01b0385169063bc197c819061200b9089908990889088908890600401613375565b6020604051808303816000875af1925050508015612046575060408051601f3d908101601f1916820190925261204391810190613354565b60015b612074573d808015611f62576040519150601f19603f3d011682016040523d82523d6000602084013e611f67565b6001600160e01b0319811663bc197c8160e01b14610dc25784604051632bfa23e760e11b815260040161053c91906129ad565b60006a636f6e736f6c652e6c6f679050600080835160208501845afa505050565b6120d0612407565b6002830154600384015460405163e6a4390560e01b81526001600160a01b0392831692600092849263e6a439059261210e9216908890600401612b76565b602060405180830381865afa15801561212b573d6000803e3d6000fd5b505050506040513d601f19601f8201168201806040525081019061214f91906133d5565b90506001600160a01b0381166121775760405162461bcd60e51b815260040161053c9061341b565b6000819050600080826001600160a01b0316630902f1ac6040518163ffffffff1660e01b8152600401606060405180830381865afa1580156121bd573d6000803e3d6000fd5b505050506040513d601f19601f820116820180604052508101906121e1919061345c565b50604080518082019091526001600160701b0392831681529116602082015298975050505050505050565b80518251146122345781518151604051635b05999160e01b815260040161053c929190612c6f565b3360005b8351811015612331576020818102858101820151908501909101516001600160a01b038816156122d75760008281526001602090815260408083206001600160a01b038c168452909152902054818110156122ae57888183856040516303dee4c560e01b815260040161053c94939291906134a2565b60008381526001602090815260408083206001600160a01b038d16845290915290209082900390555b6001600160a01b0387161561231e5760008281526001602090815260408083206001600160a01b038b16845290915281208054839290612318908490612d61565b90915550505b50508061232a90612ca0565b9050612238565b5082516001036123a95760208301516000906020840151909150856001600160a01b0316876001600160a01b0316846001600160a01b03167fc3d58168c5ae7397731d063d5bbf3d657854427343f4c083240f7aacaa2d0f62858560405161239a929190612c6f565b60405180910390a4505061131b565b836001600160a01b0316856001600160a01b0316826001600160a01b03167f4a39dc06d4c0dbc64b70af90fd698a233a518aa5d07e595d983b8c0526c8f7fb86866040516123f89291906134bd565b60405180910390a45050505050565b60405180604001604052806002906020820280368337509192915050565b508054600082559060005260206000209081019061156991905b80821115612453576000815560010161243f565b5090565b60006001600160a01b03821661040f565b61247181612457565b811461156957600080fd5b803561040f81612468565b80612471565b803561040f81612487565b600080604083850312156124ae576124ae600080fd5b60006124ba858561247c565b92505060206124cb8582860161248d565b9150509250929050565b805b82525050565b6020810161040f82846124d5565b6001600160e01b03198116612471565b803561040f816124eb565b60006020828403121561251b5761251b600080fd5b6000611cfd84846124fb565b8015156124d7565b6020810161040f8284612527565b60006020828403121561255257612552600080fd5b6000611cfd848461248d565b60005b83811015612579578181015183820152602001612561565b50506000910152565b600061258c825190565b8084526020840193506125a381856020860161255e565b601f01601f19169290920192915050565b602080825281016119fd8184612582565b634e487b7160e01b600052604160045260246000fd5b601f19601f830116810181811067ffffffffffffffff82111715612601576126016125c5565b6040525050565b600061261360405190565b90506105dc82826125db565b600067ffffffffffffffff821115612639576126396125c5565b5060209081020190565b60006126566126518461261f565b612608565b8381529050602080820190840283018581111561267557612675600080fd5b835b81811015612699578061268a888261248d565b84525060209283019201612677565b5050509392505050565b600082601f8301126126b7576126b7600080fd5b8135611cfd848260208601612643565b600067ffffffffffffffff8211156126e1576126e16125c5565b601f19601f83011660200192915050565b82818337506000910152565b600061270c612651846126c7565b90508281526020810184848401111561272757612727600080fd5b6107518482856126f2565b600082601f83011261274657612746600080fd5b8135611cfd8482602086016126fe565b600080600080600060a0868803121561277157612771600080fd5b600061277d888861247c565b955050602061278e8882890161247c565b945050604086013567ffffffffffffffff8111156127ae576127ae600080fd5b6127ba888289016126a3565b935050606086013567ffffffffffffffff8111156127da576127da600080fd5b6127e6888289016126a3565b925050608086013567ffffffffffffffff81111561280657612806600080fd5b61281288828901612732565b9150509295509295909350565b600061282b83836124d5565b505060200190565b6002818060005b8381101561055257815161284e878261281f565b96506020830192505060010161283a565b6040810161040f8284612833565b600061287b6126518461261f565b8381529050602080820190840283018581111561289a5761289a600080fd5b835b8181101561269957806128af888261247c565b8452506020928301920161289c565b600082601f8301126128d2576128d2600080fd5b8135611cfd84826020860161286d565b600080604083850312156128f8576128f8600080fd5b823567ffffffffffffffff81111561291257612912600080fd5b61291e858286016128be565b925050602083013567ffffffffffffffff81111561293e5761293e600080fd5b6124cb858286016126a3565b6000612954825190565b80845260209384019383018060005b83811015612988578151612977888261281f565b975060208301925050600101612963565b509495945050505050565b602080825281016119fd818461294a565b6124d781612457565b6020810161040f82846129a4565b6000602082840312156129d0576129d0600080fd5b6000611cfd848461247c565b806040810183101561040f5761040f600080fd5b600060408284031215612a0557612a05600080fd5b6000611cfd84846129dc565b60008060408385031215612a2757612a27600080fd5b6000612a33858561247c565b92505060206124cb8582860161247c565b801515612471565b803561040f81612a44565b60008060408385031215612a6d57612a6d600080fd5b6000612a79858561247c565b92505060206124cb85828601612a4c565b600080600080600060a08688031215612aa557612aa5600080fd5b6000612ab1888861247c565b9550506020612ac28882890161247c565b9450506040612ad38882890161248d565b93505060606127e68882890161248d565b600080600060808486031215612afc57612afc600080fd5b6000612b0886866129dc565b9350506040612b198682870161247c565b9250506060612b2a8682870161248d565b9150509250925092565b634e487b7160e01b600052602260045260246000fd5b600281046001821680612b5e57607f821691505b602082108103612b7057612b70612b34565b50919050565b60408101612b8482856129a4565b6119fd60208301846129a4565b634e487b7160e01b600052603260045260246000fd5b602481526000602082017f676574526174696f3a20746f74616c537570706c79206e6f74207375666669638152631a595b9d60e21b602082015291505b5060400190565b6020808252810161040f81612ba7565b60148152600060208201732737ba1037bbb732b91037b91036b0b730b3b2b960611b815291505b5060200190565b6020808252810161040f81612bfb565b600f81526000602082016e08ccaca40d2e640e8dede40d0d2ced608b1b81529150612c22565b6020808252810161040f81612c39565b60408101612c7d82856124d5565b6119fd60208301846124d5565b634e487b7160e01b600052601160045260246000fd5b60006000198203612cb357612cb3612c8a565b5060010190565b601981526000602082017f77696e6e657220616c72656164792064657465726d696e65640000000000000081529150612c22565b6020808252810161040f81612cba565b601981526000602082017f73657457696e6e65723a2073636f7265206f766572666c6f770000000000000081529150612c22565b6020808252810161040f81612cfe565b818102808215838204851417612d5a57612d5a612c8a565b5092915050565b8082018082111561040f5761040f612c8a565b600981526000602082016837b7363ca7bbb732b960b91b81529150612c22565b6020808252810161040f81612d74565b601c81526000602082017f4164647265737320697320616c72656164792061206d616e616765720000000081529150612c22565b6020808252810161040f81612da4565b601881526000602082017f41646472657373206973206e6f742061206d616e61676572000000000000000081529150612c22565b6020808252810161040f81612de8565b601981526000602082017f77696e6e6572206e6f74207965742064657465726d696e65640000000000000081529150612c22565b6020808252810161040f81612e2c565b8181038181111561040f5761040f612c8a565b805161040f81612487565b600060208284031215612ea357612ea3600080fd5b6000611cfd8484612e83565b601881526000602082017f746f6b656e206e6f7420696e2063697263756c6174696f6e000000000000000081529150612c22565b6020808252810161040f81612eaf565b634e487b7160e01b600052601260045260246000fd5b600082612f1857612f18612ef3565b500490565b602781526000602082017f796f752068617665206e6f207374616b6520696e207468652077696e6e696e678152661037b83a34b7b760c91b60208201529150612be4565b6020808252810161040f81612f1d565b60408101612c7d82856129a4565b6000612f8d6126518461261f565b83815290506020808201908402830185811115612fac57612fac600080fd5b835b818110156126995780612fc18882612e83565b84525060209283019201612fae565b600082601f830112612fe457612fe4600080fd5b8151611cfd848260208601612f7f565b60006020828403121561300957613009600080fd5b815167ffffffffffffffff81111561302357613023600080fd5b611cfd84828501612fd0565b82815260408101612b84565b805161040f81612a44565b60006020828403121561305b5761305b600080fd5b6000611cfd848461303b565b601f81526000602082017f7468697320746f6b656e206973206e6f7420616363657074656420686572650081529150612c22565b6020808252810161040f81613067565b606081016130b982866129a4565b6130c660208301856129a4565b611cfd60408301846124d5565b600f81526000602082016e151c985b9cd9995c8819985a5b1959608a1b81529150612c22565b6020808252810161040f816130d3565b6080810161311782876129a4565b61312460208301866124d5565b61313160408301856129a4565b611d5260608301846124d5565b6040808252810161314f8185612582565b90506119fd60208301846124d5565b6060808252810161316f8186612582565b90506130c660208301856124d5565b6011815260006020820170151bdad95b881b9bdd08185b1b1bddd959607a1b81529150612c22565b6020808252810161040f8161317e565b602381526000602082017f496e73756666696369656e742062616c616e636520696e2054726561737572798152622634b160e91b60208201529150612be4565b6020808252810161040f816131b6565b6080810161321482876124d5565b61322160208301866129a4565b61322e60408301856124d5565b611d5260608301846129a4565b60138152600060208201722ab735b737bbb71039ba30b136329031b7b4b760691b81529150612c22565b6020808252810161040f8161323b565b602881526000602082017f4d616e6167657220646f6573206e6f7420686176652073756666696369656e748152672062616c616e636560c01b60208201529150612be4565b6020808252810161040f81613275565b608080825281016132db8187612582565b90506132ea60208301866124d5565b61313160408301856124d5565b60a0810161330582886129a4565b61331260208301876129a4565b61331f60408301866124d5565b61332c60608301856124d5565b818103608083015261333e8184612582565b979650505050505050565b805161040f816124eb565b60006020828403121561336957613369600080fd5b6000611cfd8484613349565b60a0810161338382886129a4565b61339060208301876129a4565b81810360408301526133a2818661294a565b905081810360608301526133b6818561294a565b9050818103608083015261333e8184612582565b805161040f81612468565b6000602082840312156133ea576133ea600080fd5b6000611cfd84846133ca565b600e81526000602082016d14185a5c881b9bdd08199bdd5b9960921b81529150612c22565b6020808252810161040f816133f6565b6001600160701b038116612471565b805161040f8161342b565b63ffffffff8116612471565b805161040f81613445565b60008060006060848603121561347457613474600080fd5b6000613480868661343a565b93505060206134918682870161343a565b9250506040612b2a86828701613451565b608081016134b082876129a4565b6132ea60208301866124d5565b604080825281016134ce818561294a565b90508181036020830152611cfd818461294a56fe736574526174696f3a20666f756e6420726174696f5b25732c25735d20617420696e646578202573736574526174696f204e455720726174696f5b25732c25735d20617420696e646578202573726174696f735b25735d203d205f746f74616c537570706c79202573202d20746f74616c537570706c79202573546f6b656e7357616765726564286f7074696f6e3a2025642c206166746572466565202573a2646970667358221220f74c0d5a91d8912ae46642b726678bc05432e39b976002745c9fdf557a81e77f64736f6c6343000814003368747470733a2f2f73706f7274732e6c616462726f6b65732e636f6d2f73706f72742f666f6f7462616c6c",
  "linkReferences": {
    "libs/ManagerLib.sol": {
      "ManagerLib": [
        {
          "length": 20,
          "start": 5237
        }
      ]
    }
  },
  "deployedLinkReferences": {
    "libs/ManagerLib.sol": {
      "ManagerLib": [
        {
          "length": 20,
          "start": 3708
        }
      ]
    }
  }
}